:1000000000200020C3000000D5130000DB13000017
:1000100000000000000000000000000000000000E0
:10002000000000000000000000000000C10000000F
:100030000000000000000000C1000000ED130000FF
:100040000D1400002D1400004D1400006D1400006C
:100050008D140000AD140000CD140000ED1400005C
:100060000D1500002D1500004D1500006D15000048
:100070008D150000AD150000CD150000ED15000038
:100080000000000000000000000000000000000070
:100090000000000000000000000000000000000060
:1000A0000000000000000000000000000000000050
:1000B0000000000000000000000000000000000040
:1000C000FEE7002370B50A480A490B4C1A188A4209
:1000D00003D2E55C01331570F8E70021074B084AAD
:1000E000934202D219700133FAE700F01BF870BD99
:1000F00000000020340400204819000044040020BF
:10010000F405002010B50021040001F009FB044BA8
:100110001868C36B002B00D09847200001F00AFC40
:1001200058980000094A0A4B01201A600022094B26
:100130001A6009491A60C04601390029FBD10649F5
:100140001860C04601390029FBD1F2E7FFFF00002B
:10015000080000500400005060AE0A00034B10B5C8
:10016000002B02D0024801F059FB10BD0000000036
:100170003597000010B5064C2378002B07D1054BAE
:10018000002B02D0044800E000BF0123237010BD03
:10019000AC9C01000000000064980000084B10B502
:1001A000002B03D00749084800E000BF0748036858
:1001B000002B00D110BD064B002BFBD09847F9E770
:1001C00000000000B09C01006498000074980100D9
:1001D00000000000164B002B00D1144B9D4640221E
:1001E00092029A1A924600218B460F461348144AEF
:1001F000121A01F04FFA0F4B002B00D098470E4B0C
:10020000002B00D098470020002104000D000D486D
:10021000002802D00C4801F001FB01F017FA200081
:100220002900FFF77FFFFFF76DFFC04600000800C1
:10023000000000000000000000000000AC9C010075
:100240005C9E01002597000035970000EFF30980C0
:10025000001C704780F309887047EFF30880001C8A
:10026000704780F308887047EFF31080704780F381
:100270001088704700BA704740BA7047C0BA7047DC
:10028000EFF31480704780F314887047830702D11E
:1002900080239B05C1507047C30702D480239B0570
:1002A000C152704780239B05C154704700238207C9
:1002B00002D180239B05C358180070470023C20752
:1002C00002D480239B05C35A1800704780239B05E6
:1002D000C05C7047830701D1014BC1507047C046D5
:1002E000002000200023820701D1024BC3581800D0
:1002F0007047C0460020002010B5044C2360044B1A
:100300001A60044B1960044B186010BD04000350C0
:10031000080003500C0003501000035010B5044CAB
:100320002360044B1A60044B1960044B186010BD25
:1003300014000350180003501C0003502000035009
:1003400030B504000B48056800209D4210D10A4BCF
:1003500001301B6893420BD1084B01301B688B4264
:1003600006D1074B1B68181B431E98410423181A1B
:1003700030BDC04624000350280003502C00035019
:1003800030000350A023DB0518688007C00F7047BA
:100390000122014B1A6070472C0000500122014BD2
:1003A0001A60704730000050C04670471622074B55
:1003B000FF321A600022064B1A60064B03321A60A5
:1003C000054B1A60023A1A607047C0460C10004094
:1003D00018100040141000400010004070B5414C4F
:1003E0002278D2B2012A34D16378002B0BD1A378C2
:1003F000013BDBB2A370002B2BD13B4B1A600323D4
:100400006270A37025E0A378013BDBB2A370002BE0
:100410001FD1E178002915D123796179A079091AD2
:100420000B41134201D0314B00E02F4B1A600323E4
:10043000A370A379013BDBB2A371002B09D1013377
:10044000E37006E029490A600322A270E37063703A
:100450002370E379002B44D1237A012B15D1637AE1
:10046000013BDBB26372002B3BD121002372A372EC
:10047000A289A07B12B20F318854A289013212B234
:10048000A281FF2A2DDDA3812BE0A37A002B0DD1C1
:10049000FFF778FF002824D10123154AA372033304
:1004A000A0736372D37BDBB213741AE0637A013BEF
:1004B000DBB26372002B14D103336372FFF762FF68
:1004C0000B4AD17B157CA37B491B88401843C0B2E3
:1004D000A073137C013BDBB21374002B01D10133F9
:1004E000237270BDC89C0100300000502C000050E9
:1004F000C89D010001210222C1200F4B10B51960D7
:100500000E4B80001A600E4B0E4A1C5822401A50A7
:1005100040221A6000220C4B0C485A701A70DA7094
:100520009A721A72DA710832C2735A71084B1960E2
:10053000FFF73CFF10BDC046080000500C00005003
:1005400000E100E0FFFF00FFC89C0100C89D010022
:100550002C0000500B4A0C4B30B5548A9D89002169
:10056000A5420DD0518A0F3309B25B5C01210370A3
:10057000538A01331BB25382FF2B01DD00235382C8
:10058000080030BDC89D0100C89C0100064B1A78C8
:10059000012AFCD003229A705A79D2B29A710122B0
:1005A00018711A707047C046C89C01000023024AA7
:1005B0009381024A53827047C89C0100C89D010084
:1005C000054B064A988903B2508A00B2181A431E96
:1005D0009841C0B27047C046C89C0100C89D010048
:1005E0000022014BDA717047C89C01000122014BC7
:1005F000DA717047C89C0100054B02211870012375
:10060000044A1360044A1160044A13607047C046EC
:10061000DE9D01002C0000500C000050080000502E
:100620000121030000B50B408DB00193022303406C
:1006300002930423034003930823034004931023ED
:100640000340059320230340069340230340079370
:100650007F239843754B08901A78754B09910A913E
:100660001960002A00D008E1C046C046C046C04616
:10067000C046C046C046C046C046C046C046C0464A
:10068000C046C0466B4A0198002805D0C046C04607
:10069000C0460A99116005E00A991960C046C04633
:1006A000C046C046C046C046C046C046C046C0461A
:1006B000C046C046C046C046C046C046C046C0460A
:1006C000C0460298002805D0C046C046C0460A99D8
:1006D000116005E00A991960C046C046C046C04690
:1006E000C046C046C046C046C046C046C046C046DA
:1006F000C046C046C046C046C046C046C046039835
:10070000002805D0C046C046C0460A99116005E0E1
:100710000A991960C046C046C046C046C046C04699
:10072000C046C046C046C046C046C046C046C04699
:10073000C046C046C046C046C0460498002805D002
:10074000C046C046C0460A99116005E00A99196082
:10075000C046C046C046C046C046C046C046C04669
:10076000C046C046C046C046C046C046C046C04659
:10077000C046C046C0460598002805D0C046C046C1
:10078000C0460A99116005E00A991960C046C04642
:10079000C046C046C046C046C046C046C046C04629
:1007A000C046C046C046C046C046C046C046C04619
:1007B000C0460698002805D0C046C046C0460A99E3
:1007C000116005E00A991960C046C046C046C0469F
:1007D000C046C046C046C046C046C046C046C046E9
:1007E000C046C046C046C046C046C046C046079840
:1007F000002805D0C046C046C0460A99116005E0F1
:100800000A991960C046C046C046C046C046C046A8
:10081000C046C046C046C046C046C046C046C046A8
:10082000C046C046C046C046C04605E0DE9D010049
:10083000300000502C0000500898002805D0C04619
:10084000C046C0460A99116005E00A991960C04681
:10085000C046C046C046C046C046C046C046C04668
:10086000C046C046C046C046C046C046C046C04658
:10087000C046C046C0461160DDE000220B920B9AD4
:10088000022A03DCC0460B9A0132F7E7C046C04695
:100890006A4A0198002805D0C046C046C0460A9959
:1008A000116005E00A991960C046C046C046C046BE
:1008B000C04600210B910B99022903DCC0460B991D
:1008C0000131F7E7C0460298002805D0C046C0466F
:1008D000C0460A99116005E00A991960C046C046F1
:1008E000C046C046C04600210B910B99022903DC8B
:1008F000C0460B990131F7E7C0460398002805D0A0
:10090000C046C046C0460A99116005E00A991960C0
:10091000C046C046C046C046C04600210B910B9958
:10092000022903DCC0460B990131F7E7C046049861
:10093000002805D0C046C046C0460A99116005E0AF
:100940000A991960C046C046C046C046C04600214C
:100950000B910B99022903DCC0460B990131F7E793
:10096000C0460598002805D0C046C046C0460A9932
:10097000116005E00A991960C046C046C046C046ED
:10098000C04600210B910B99022903DCC0460B994C
:100990000131F7E7C0460698002805D0C046C0469A
:1009A000C0460A99116005E00A991960C046C04620
:1009B000C046C046C04600210B910B99022903DCBA
:1009C000C0460B990131F7E7C0460798002805D0CB
:1009D000C046C046C0460A99116005E00A991960F0
:1009E000C046C046C046C046C04600210B910B9988
:1009F000022903DCC0460B990131F7E7C04608988D
:100A0000002805D0C046C046C0460A99116005E0DE
:100A10000A991960C046C046C046C046C046002379
:100A20000B930B9B022B03DCC0460B9B0133F7E7B8
:100A3000C046012313600DB000BDC0462C0000501D
:100A4000A022F0B5984B85B01B78D205002B00D0C2
:100A5000DDE0023311681942FCD1C046C046C046F1
:100A6000C046C046C046C046C046C046C046C04656
:100A7000C046C046C046C046C046C046C046C04646
:100A8000C046C046C046C046C046C046C046C04636
:100A9000C046C046A023DB051A68022313406A46FD
:100AA0000332002B02D0C046C04601231370C0465B
:100AB000C046C046C046C046C046C046C046C04606
:100AC000C046C046A023DB051A680223134001AAD2
:100AD000002B02D0C046C04601231370C046C0465A
:100AE000C046C046C046C046C046C046C046C046D6
:100AF000C046A023DB051A68022313406A4605326C
:100B0000002B02D0C046C04601231370C046C04629
:100B1000C046C046C046C046C046C046C046C046A5
:100B2000C046A023DB051A68022313406A4606323A
:100B3000002B02D0C046C04601231370C046C046F9
:100B4000C046C046C046C046C046C046C046C04675
:100B5000C046A023DB051A68022313406A46073209
:100B6000002B02D0C046C04601231370C046C046C9
:100B7000C046C046C046C046C046C046C046C04645
:100B8000C046A023DB051A680223134002AA002BEB
:100B900002D0C046C04601231370C046C046C046BE
:100BA000C046C046C046C046C046C046C046C04615
:100BB000A023DB051A680223134009226A44002B94
:100BC00002D0C046C04601231370C046C046C0468E
:100BD000C046C046C046C046C046C046C046C046E5
:100BE000A023DB051A68022313400A226A44002B63
:100BF00002D0C046C04601231370C046C046C0465E
:100C0000C046C046C046C046C046C046DFE00221DE
:100C100013680B40FCD10421244A11600393039B09
:100C2000022B03DCC046039B0133F7E7C046C046F6
:100C3000C046C046C046C04600230393039B022B18
:100C400003DCC046039B0133F7E7C046C046A02340
:100C5000DB051A68022313406A460332002B02D0D8
:100C6000C046C0460123137000230393039B022B4D
:100C700003DCC046039B0133F7E7C046C046A02310
:100C8000DB051A680223134001AA002B02D0C046DC
:100C9000C0460123137000230393039B022B07DC40
:100CA000C046039B0133F7E7DE9D0100340000508E
:100CB000C046C046A023DB051A68022313406A46DB
:100CC0000532002B02D0C046C0460123137000231A
:100CD0000393039B022B03DCC046039B0133F7E71E
:100CE000C046C046A023DB051A68022313406A46AB
:100CF0000632002B02D0C046C046012313700023E9
:100D00000393039B022B03DCC046039B0133F7E7ED
:100D1000C046C046A023DB051A68022313406A467A
:100D20000732002B02D0C046C046012313700023B7
:100D30000393039B022B03DCC046039B0133F7E7BD
:100D4000C046C046A023DB051A680223134002AA4E
:100D5000002B02D0C046C04601231370002303932A
:100D6000039B022B03DCC046039B0133F7E7C0461D
:100D7000C046A023DB051A680223134009226A44F7
:100D8000002B02D0C046C0460123137000230393FA
:100D9000039B022B03DCC046039B0133F7E7C046ED
:100DA000C046A023DB051A68022313400A226A44C6
:100DB000002B02D0C046C0460123137000230393CA
:100DC000039B022B03DCC046039B0133F7E7C046BD
:100DD000C046A023DB051A68022313400B226A4495
:100DE000002B02D0C046C046012313706B46DF784B
:100DF00001AB18786B465E796B469D796B46DC7962
:100E000002AB197809236B441A780A23B600400014
:100E100030433843ED006B44284324011B782043C2
:100E20004901084392011043DB011843C0B205B0E9
:100E3000F0BD10B504000134631E1878002802D0FC
:100E4000FFF7EEFBF7E710BD10B504000134631E99
:100E50001878002802D0FFF7E3FBF7E70A30FFF726
:100E6000DFFB0D20FFF7DCFB10BDC04670B50600B0
:100E7000050000F0E1FB0022002300F0CBFB00287E
:100E800000DC99E07D4BF618300000F0D5FB002225
:100E9000002300F0BFFB002803DD8024350024047C
:100EA00001E080242402764BEE18300000F0C4FBF1
:100EB0000022002300F0AEFB002801DD35002401F4
:100EC000704BEE18300000F0B7FB0022002300F05A
:100ED000A1FB002801DD3500A4006B4BEE183000AB
:100EE00000F0AAFB0022002300F094FB002801DDA3
:100EF00035006400654BEE18300000F09DFB0022C9
:100F0000002300F087FB002802DD35006310E418A1
:100F10005F4BEE18300000F08FFB0022002300F042
:100F200079FB002802DD3500A310E418594BEE18B8
:100F3000300000F081FB0022002300F06BFB002852
:100F400002DD3500E310E418534BEE18300000F0DA
:100F500073FB0022002300F05DFB002802DD35005A
:100F60002311E4184D4BEE18300000F065FB002211
:100F7000002300F04FFB002802DD35006311E41868
:100F80002E00FC3EFF3E300000F056FB0022002306
:100F900000F040FB002802DD3500A311E418280012
:100FA000FF3800F049FB0022002300F033FB00284B
:100FB00062DDE311E4185FE0394BF518280000F01A
:100FC0003BFB0022002300F025FB012804DD280064
:100FD000FFF74CFF401050E0324BF518280000F0AE
:100FE0002BFB0022002300F015FB012804DD280064
:100FF000FFF73CFF801040E02B4BF518280000F075
:101000001BFB0022002300F005FB012804DD280063
:10101000FFF72CFF001130E0244BF518280000F0FA
:101020000BFB0022002300F0F5FA012804DD280064
:10103000FFF71CFF001220E01D4BF518280000F000
:10104000FBFA0022002300F0E5FA012804DD280065
:10105000FFF70CFF001310E0164BF618300000F0FD
:10106000EBFA0022002300F0D5FA012804DD30005D
:10107000FFF7FCFEC01300E0200070BD373AFDFF13
:101080001C9DFEFF8E4EFFFF49A7FFFF19CCFFFFFF
:1010900072E3FFFFECF0FFFF3FF8FFFF0FFCFFFFE5
:1010A000B758000072B10000E4620100C9C5020037
:1010B000AD280400D732050070B5050204002800F1
:1010C00000F0BAFA80220023120600F0A3FA0028EA
:1010D00002DC2C004A4D00E000252601300000F023
:1010E000ABFA80220023120600F094FA002802DCFA
:1010F0003400444BED18A600300000F09DFA802229
:101100000023120600F086FA002802DC34003E4B71
:10111000ED186600300000F08FFA802200231206DE
:1011200000F078FA002802DC3400384BED18661025
:101130003619300000F080FA80220023120600F0F9
:1011400069FA002802DC3400314BED18A61036197C
:10115000300000F071FA80220023120600F05AFAE3
:10116000002802DC34002B4BED18E6103619300055
:1011700000F062FA80220023120600F04BFA0028E9
:1011800002DC3400244BED182611A619300000F0C3
:1011900053FA80220023120600F03CFA002802DCF9
:1011A00034001E4BED186611A619300000F044FA09
:1011B00080220023120600F02DFA002802DC340001
:1011C000174BED18A611A619300000F035FA802251
:1011D0000023120600F01EFA002802DC3400FC3D59
:1011E000FF3DE011001900F027FA802200231206CB
:1011F00000F010FA002800DCFF3D280070BDC0465A
:10120000373AFDFF1C9DFEFF8E4EFFFF49A7FFFFF3
:1012100019CCFFFF72E3FFFFECF0FFFF3FF8FFFF89
:101220000FFCFFFF0822324BF0B51A70043A9A7097
:101230000422DA7006229A720622DA720722012448
:1012400007250221002005275A73032204261D7456
:101250001D195F711F72587018719C71DC71597281
:1012600019739A73DA7358749A74D8741A755C7512
:101270009975DC7519765C769976DC7619775877EE
:101280009A77EA775D18E8779D18EC771D1DEA7765
:10129000DD19E9779D1DEE77DD1DEF770825AC465A
:1012A0009C4465460726EE772825AC469C44654657
:1012B00006262E702925AC469C4465462C701C00E1
:1012C0002A34D877207018002B30017019002C3187
:1012D0000A701A002D3217701A0004212E32117074
:1012E0001A0006212F321170072230331A70F0BD18
:1012F000E59D010070B50D00040000F089F900F0D3
:101300009BF90022002300F085F9002800DC2C0066
:10131000200070BDF0B50024260087B00090019138
:1013200002922B4B2A4D1B78A3423FD9029AA3006D
:10133000D3180593264B6700DB19009AE500039349
:101340005B785159019A9B00985800F05FF9039B14
:10135000009A9B785519019A9B00696804900700D0
:10136000985800F053F901000500049800F050F976
:1013700000F062F90022002300F04CF9002800DCA4
:101380002F00059B39001F60002C0BD0300000F0AF
:101390003FF900F051F90022002300F03BF900284A
:1013A00000DD37000134E4B23E00BAE700242B78B8
:1013B000A3420AD9029BA700DF193868310000F068
:1013C00027F901343860E4B2F1E707B0F0BDC04658
:1013D000E59D010040BF40BF7047802010B5024925
:1013E0008000FEF753FFFEE72222222210B540BF05
:1013F0008020044A04491368800001331360FEF71B
:1014000045FFFEE7189E01003333333340BF054AE2
:101410000121536801335360C023034A5B00D1505C
:1014200040BF7047189E010000E100E040BFC023AC
:101430000221044A5B00D150034A93680133936050
:101440007047C04600E100E0189E010040BFC02385
:101450000421044A5B00D150034AD3680133D360AE
:101460007047C04600E100E0189E010040BFC02365
:101470000821044A5B00D150034A13690133136108
:101480007047C04600E100E0189E010040BFC02345
:101490001021044A5B00D150034A53690133536160
:1014A0007047C04600E100E0189E010040BFC02325
:1014B0002021044A5B00D150034A936901339361B0
:1014C0007047C04600E100E0189E010040BFC02305
:1014D0004021044A5B00D150034AD3690133D361F0
:1014E0007047C04600E100E0189E010040BFC023E5
:1014F0008021044A5B00D150034A136A013313620E
:101500007047C04600E100E0189E010040BF802106
:10151000C023044A49005B00D150034A536A013397
:101520005362704700E100E0189E010040BF802137
:10153000C023044A89005B00D150034A936A0133F7
:101540009362704700E100E0189E010040BF8021D7
:10155000C023044AC9005B00D150034AD36A013357
:10156000D362704700E100E0189E010040BF802177
:10157000C023044A09015B00D150034A136B0133B5
:101580001363704700E100E0189E010040BF802116
:10159000C023044A49015B00D150034A536B013315
:1015A0005363704700E100E0189E010040BF8021B6
:1015B000C023044A89015B00D150034A936B013375
:1015C0009363704700E100E0189E010040BF802156
:1015D000C023044AC9015B00D150034AD36B0133D5
:1015E000D363704700E100E0189E010040BF8021F6
:1015F000C023044A09025B00D150034A136C013333
:101600001364704700E100E0189E0100081870475D
:10161000401A70478B4206DC03D0994205DD022058
:1016200070478242F9D90020FAE7994201D19042ED
:10163000F5D80120F4E7C04610B5C117040C090421
:1016400002040C431000210010BDC04670B50D4EC1
:101650000D4D0024AD1BAD1005D0A300F35801348F
:101660009847A542F9D1FEF747FD084E084D0024E2
:10167000AD1BAD1005D0A300F35801349847A54227
:10168000F9D170BD68980100689801006898010060
:101690007098010070B583073FD0541E002A3BD0DC
:1016A000CEB20300032503E0621E002C34D01400E8
:1016B00001335A1E16702B42F6D1032C24D9FF2574
:1016C0000D402A0215432A0415430F2C11D9260078
:1016D000103E3609013636011A009B191560556017
:1016E0009560D56010329342F8D10F221440032C3C
:1016F0000AD9261FB6080136B6001A009B1920C267
:101700009342FCD103221440002C05D0C9B21C190D
:10171000197001339C42FBD170BD14000300CCE76B
:10172000F0B55F4656464D464446F0B40F00394B7F
:1017300085B01B68019002934933FF330393A422C1
:10174000029B52009E58002E4ED0039B9946C42304
:101750005B00984604339A467468B044A500751936
:10176000B244013C08D52DE06B1DFF331B689F423E
:1017700004D0043D013C25D3002FF5D173686A687D
:10178000013BA34239D000236B60002AF1D073687B
:1017900041469B460123A340096819422BD051467C
:1017A000096819422BD12B0084331968019890479E
:1017B00073685B45C3D14B461B68B342BFD1043D40
:1017C000013CD9D2144B002B0ED07368002B1BD1D7
:1017D0003368002B1CD04A463000136000E000BF85
:1017E0004B461E68002EB2D105B03CBC90469946CF
:1017F000A246AB46F0BD9047DAE77460C5E72B0020
:10180000843318689047D3E73368B1461E00E9E790
:101810000023FAE7589800000000000010B501000E
:1018200000230022002000F01BF810BD70B5094B0A
:10183000094CE41AA41009D0084AA518AD00ED1807
:101840002B68013C9847043D002CF9D100F074F856
:1018500070BDC0467098010074980100FFFFFF3F03
:10186000F8B544465F4656464D469B462F4BF0B46E
:101870001C68A4235B000500E0580E009046002879
:101880004BD043681F2B0DDC5C1C002D21D1023393
:101890009B0044601E5000203CBC90469946A246E6
:1018A000AB46F8BD224B002B3CD0C820400000E0E6
:1018B00000BF002836D0A42200235200A158436064
:1018C0000160A05040328350043283500124002D27
:1018D000DDD09A0091468144424688214F467A5095
:1018E000C42252009046804442468739994012688B
:1018F0008A460A439446424661461160842249461C
:101900005F4652008F50022DC1D1020055468D32E4
:10191000FF3211680D431560B9E720004D30FF30EC
:10192000E050AEE701204042B6E7C04658980000BC
:1019300000000000FEE7C046D6C7C2B5271ADD1674
:08194000430000008098010043
:0C194800F8B5C046F8BC08BC9E467047CD
:0C195400F8B5C046F8BC08BC9E467047C1
:0819600080E8FF7F0100000098
:04196800000000007B
:10196C000000000000000000000000006C9B010063
:10197C00D49B01003C9C0100000000000000000012
:10198C00000000000000000000000000000000004B
:10199C00000000000000000000000000549800004F
:1019AC00000000000000000000000000000000002B
:1019BC00000000000000000000000000000000001B
:1019CC00000000000000000000000000000000000B
:1019DC0000000000000000000000000000000000FB
:1019EC0000000000000000000000000000000000EB
:1019FC0000000000000000000000000000000000DB
:101A0C0000000000000000000000000000000000CA
:101A1C0001000000000000000E33CDAB34126DE667
:101A2C00ECDE05000B0000000000000000000000D0
:101A3C00000000000000000000000000000000009A
:101A4C00000000000000000000000000000000008A
:101A5C00000000000000000000000000000000007A
:101A6C00000000000000000000000000000000006A
:041D9C00809801002A
:081DA00065800000A580000031
:041DA8007D8000003A
:041DAC000000000033
:04000003000000C336
:00000001FF
