:1000000000200020C3000000F9160000FF160000C9
:1000100000000000000000000000000000000000E0
:10002000000000000000000000000000C10000000F
:100030000000000000000000C100000011170000D7
:1000400031170000511700007117000091170000D0
:10005000B1170000D1170000F117000011180000BF
:1000600031180000511800007118000091180000AC
:10007000B1180000D1180000F1180000111900009B
:100080000000000000000000000000000000000070
:100090000000000000000000000000000000000060
:1000A0000000000000000000000000000000000050
:1000B0000000000000000000000000000000000040
:1000C000FEE7002370B50A480A490B4C1A188A4209
:1000D00003D2E55C01331570F8E70021074B084AAD
:1000E000934202D219700133FAE700F01DF870BD97
:1000F00000000020340400204820000044040020B8
:10010000100600200000000010B50021040001F0DE
:1001100087FE044B1868C36B002B00D09847200063
:1001200001F088FF589F0000094A0A4B01201A601D
:100130000022094B1A6009491A60C046013900299A
:10014000FBD106491860C04601390029FBD1F2E70E
:10015000FFFF0000080000500400005040420F0064
:10016000034B10B5002B02D0024801F0D7FE10BDA2
:1001700000000000359E000010B5064C2378002BCF
:1001800007D1054B002B02D0044800E000BF01233B
:10019000237010BDACA3010000000000649F0000AC
:1001A000084B10B5002B03D00749084800E000BFFA
:1001B00007480368002B00D110BD064B002BFBD075
:1001C0009847F9E700000000B0A30100649F000019
:1001D000749F010000000000164B002B00D1144B4F
:1001E0009D46402292029A1A924600218B460F4663
:1001F0001348144A121A01F0CDFD0F4B002B00D00A
:1002000098470E4B002B00D0984700200021040097
:100210000D000D48002802D00C4801F07FFE01F0CF
:1002200095FD20002900FFF77FFFFFF76DFFC04617
:1002300000000800000000000000000000000000B6
:10024000ACA3010078A50100259E0000359E0000AA
:10025000EFF30980001C704780F309887047EFF3C3
:100260000880001C704780F308887047EFF3108007
:10027000704780F31088704700BA704740BA7047E3
:10028000C0BA7047EFF31480704780F3148870474A
:10029000830702D180239B05C1507047C30702D456
:1002A00080239B05C152704780239B05C154704732
:1002B0000023820702D180239B05C3581800704792
:1002C0000023C20702D480239B05C35A180070473D
:1002D00080239B05C05C7047830701D1014BC1504F
:1002E0007047C046002000200023820701D1024B46
:1002F000C35818007047C0460020002010B5044CB9
:100300002360044B1A60044B1960044B186010BD45
:1003100004000350080003500C0003501000035069
:1003200010B5044C2360044B1A60044B1960044B55
:10033000186010BD14000350180003501C00035037
:100340002000035030B504000B48056800209D4292
:1003500010D10A4B01301B6893420BD1084B01307E
:100360001B688B4206D1074B1B68181B431E984124
:100370000423181A30BDC04624000350280003503F
:100380002C00035030000350A023DB0518688007C1
:10039000C00F70470122014B1A6070472C000050BB
:1003A0000122014B1A60704730000050C046704770
:1003B0001622074BFF321A600022064B1A60064BCA
:1003C00003321A60054B1A60023A1A607047C04641
:1003D0000C100040181000401410004000100040A5
:1003E00070B5414C2278D2B2012A34D16378002B07
:1003F0000BD1A378013BDBB2A370002B2BD13B4B7D
:100400001A6003236270A37025E0A378013BDBB27E
:10041000A370002B1FD1E178002915D123796179D0
:10042000A079091A0B41134201D0314B00E02F4B48
:100430001A600323A370A379013BDBB2A371002BE5
:1004400009D10133E37006E029490A600322A27052
:10045000E37063702370E379002B44D1237A012B7E
:1004600015D1637A013BDBB26372002B3BD12100D3
:100470002372A372A289A07B12B20F318854A28981
:10048000013212B2A281FF2A2DDDA3812BE0A37AD3
:10049000002B0DD1FFF778FF002824D10123154A46
:1004A000A3720333A0736372D37BDBB213741AE0BD
:1004B000637A013BDBB26372002B14D103336372A6
:1004C000FFF762FF0B4AD17B157CA37B491B884059
:1004D0001843C0B2A073137C013BDBB21374002B32
:1004E00001D10133237270BDC8A301003000005058
:1004F0002C000050C8A4010001210222C1200F4B92
:1005000010B519600E4B80001A600E4B0E4A1C5835
:1005100022401A5040221A6000220C4B0C485A709C
:100520001A70DA709A721A72DA710832C2735A71DA
:10053000084B1960FFF73CFF10BDC0460800005093
:100540000C00005000E100E0FFFF00FFC8A3010025
:10055000C8A401002C0000500B4A0C4B30B5548A43
:100560009D890021A5420DD0518A0F3309B25B5CF1
:1005700001210370538A01331BB25382FF2B01DD2B
:1005800000235382080030BDC8A40100C8A30100A5
:10059000064B1A78012AFCD003229A705A79D2B2FB
:1005A0009A71012218711A707047C046C8A30100E1
:1005B0000023024A9381024A53827047C8A3010074
:1005C000C8A40100054B064A988903B2508A00B2BC
:1005D000181A431E9841C0B27047C046C8A3010014
:1005E000C8A401000022014BDA717047C8A30100C2
:1005F0000122014BDA717047C8A30100054B0221AB
:1006000018700123044A1360044A1160044A1360FD
:100610007047C046DEA401002C0000500C000050C2
:10062000080000500121030000B50B408DB001937C
:10063000022303400293042303400393082303404F
:100640000493102303400593202303400693402383
:10065000034007937F239843754B08901A78754B96
:1006600009910A911960002A00D008E1C046C046ED
:10067000C046C046C046C046C046C046C046C0464A
:10068000C046C046C046C0466B4A0198002805D007
:10069000C046C046C0460A99116005E00A99196033
:1006A000C046C046C046C046C046C046C046C0461A
:1006B000C046C046C046C046C046C046C046C0460A
:1006C000C046C046C0460298002805D0C046C04675
:1006D000C0460A99116005E00A991960C046C046F3
:1006E000C046C046C046C046C046C046C046C046DA
:1006F000C046C046C046C046C046C046C046C046CA
:10070000C0460398002805D0C046C046C0460A9996
:10071000116005E00A991960C046C046C046C0464F
:10072000C046C046C046C046C046C046C046C04699
:10073000C046C046C046C046C046C046C0460498F3
:10074000002805D0C046C046C0460A99116005E0A1
:100750000A991960C046C046C046C046C046C04659
:10076000C046C046C046C046C046C046C046C04659
:10077000C046C046C046C046C0460598002805D0C1
:10078000C046C046C0460A99116005E00A99196042
:10079000C046C046C046C046C046C046C046C04629
:1007A000C046C046C046C046C046C046C046C04619
:1007B000C046C046C0460698002805D0C046C04680
:1007C000C0460A99116005E00A991960C046C04602
:1007D000C046C046C046C046C046C046C046C046E9
:1007E000C046C046C046C046C046C046C046C046D9
:1007F000C0460798002805D0C046C046C0460A99A2
:10080000116005E00A991960C046C046C046C0465E
:10081000C046C046C046C046C046C046C046C046A8
:10082000C046C046C046C046C046C046C04605E0B9
:10083000DEA40100300000502C0000500898002871
:1008400005D0C046C046C0460A99116005E00A9925
:100850001960C046C046C046C046C046C046C046F5
:10086000C046C046C046C046C046C046C046C04658
:10087000C046C046C046C046C0461160DDE000220A
:100880000B920B9A022A03DCC0460B9A0132F7E75F
:10089000C046C0466A4A0198002805D0C046C046F6
:1008A000C0460A99116005E00A991960C046C04621
:1008B000C046C046C04600210B910B99022903DCBB
:1008C000C0460B990131F7E7C0460298002805D0D1
:1008D000C046C046C0460A99116005E00A991960F1
:1008E000C046C046C046C046C04600210B910B9989
:1008F000022903DCC0460B990131F7E7C046039893
:10090000002805D0C046C046C0460A99116005E0DF
:100910000A991960C046C046C046C046C04600217C
:100920000B910B99022903DCC0460B990131F7E7C3
:10093000C0460498002805D0C046C046C0460A9963
:10094000116005E00A991960C046C046C046C0461D
:10095000C04600210B910B99022903DCC0460B997C
:100960000131F7E7C0460598002805D0C046C046CB
:10097000C0460A99116005E00A991960C046C04650
:10098000C046C046C04600210B910B99022903DCEA
:10099000C0460B990131F7E7C0460698002805D0FC
:1009A000C046C046C0460A99116005E00A99196020
:1009B000C046C046C046C046C04600210B910B99B8
:1009C000022903DCC0460B990131F7E7C0460798BE
:1009D000002805D0C046C046C0460A99116005E00F
:1009E0000A991960C046C046C046C046C0460021AC
:1009F0000B910B99022903DCC0460B990131F7E7F3
:100A0000C0460898002805D0C046C046C0460A998E
:100A1000116005E00A991960C046C046C046C0464C
:100A2000C04600230B930B9B022B03DCC0460B9BA1
:100A30000133F7E7C046012313600DB000BDC04687
:100A40002C000050A022F0B5984B85B01B78D20541
:100A5000002B00D0DDE0023311681942FCD1C04602
:100A6000C046C046C046C046C046C046C046C04656
:100A7000C046C046C046C046C046C046C046C04646
:100A8000C046C046C046C046C046C046C046C04636
:100A9000C046C046C046C046A023DB051A680223F4
:100AA00013406A460332002B02D0C046C0460123E1
:100AB0001370C046C046C046C046C046C046C04689
:100AC000C046C046C046C046A023DB051A680223C4
:100AD000134001AA002B02D0C046C0460123137068
:100AE000C046C046C046C046C046C046C046C046D6
:100AF000C046C046C046A023DB051A680223134047
:100B00006A460532002B02D0C046C046012313704E
:100B1000C046C046C046C046C046C046C046C046A5
:100B2000C046C046C046A023DB051A680223134016
:100B30006A460632002B02D0C046C046012313701D
:100B4000C046C046C046C046C046C046C046C04675
:100B5000C046C046C046A023DB051A6802231340E6
:100B60006A460732002B02D0C046C04601231370EC
:100B7000C046C046C046C046C046C046C046C04645
:100B8000C046C046C046A023DB051A6802231340B6
:100B900002AA002B02D0C046C04601231370C046F3
:100BA000C046C046C046C046C046C046C046C04615
:100BB000C046C046A023DB051A6802231340092261
:100BC0006A44002B02D0C046C04601231370C046C1
:100BD000C046C046C046C046C046C046C046C046E5
:100BE000C046C046A023DB051A68022313400A2230
:100BF0006A44002B02D0C046C04601231370C04691
:100C0000C046C046C046C046C046C046C046C046B4
:100C1000DFE0022113680B40FCD10421244A11605B
:100C20000393039B022B03DCC046039B0133F7E7CE
:100C3000C046C046C046C046C046C04600230393D7
:100C4000039B022B03DCC046039B0133F7E7C0463E
:100C5000C046A023DB051A68022313406A4603320C
:100C6000002B02D0C046C04601231370002303931B
:100C7000039B022B03DCC046039B0133F7E7C0460E
:100C8000C046A023DB051A680223134001AA002BEB
:100C900002D0C046C0460123137000230393039B78
:100CA000022B07DCC046039B0133F7E7DEA40100FB
:100CB00034000050C046C046A023DB051A6802235A
:100CC00013406A460532002B02D0C046C0460123BD
:100CD000137000230393039B022B03DCC046039B8A
:100CE0000133F7E7C046C046A023DB051A6802239C
:100CF00013406A460632002B02D0C046C04601238C
:100D0000137000230393039B022B03DCC046039B59
:100D10000133F7E7C046C046A023DB051A6802236B
:100D200013406A460732002B02D0C046C04601235A
:100D3000137000230393039B022B03DCC046039B29
:100D40000133F7E7C046C046A023DB051A6802233B
:100D5000134002AA002B02D0C046C04601231370E4
:100D600000230393039B022B03DCC046039B013348
:100D7000F7E7C046C046A023DB051A6802231340EC
:100D800009226A44002B02D0C046C04601231370DA
:100D900000230393039B022B03DCC046039B013318
:100DA000F7E7C046C046A023DB051A6802231340BC
:100DB0000A226A44002B02D0C046C04601231370A9
:100DC00000230393039B022B03DCC046039B0133E8
:100DD000F7E7C046C046A023DB051A68022313408C
:100DE0000B226A44002B02D0C046C0460123137078
:100DF0006B46DF7801AB18786B465E796B469D7960
:100E00006B46DC7902AB197809236B441A780A2304
:100E1000B600400030433843ED006B4428432401C2
:100E20001B7820434901084392011043DB0118431A
:100E3000C0B205B0F0BD10B504000134631E1878CF
:100E4000002802D0FFF7EEFBF7E710BD10B5040055
:100E50000134631E1878002802D0FFF7E3FBF7E7A0
:100E60000A30FFF7DFFB0D20FFF7DCFB10BDC046AB
:100E70000822014B1A60704700000350014B1868AC
:100E80007047C0460C0003500222084B1A60084B02
:100E90001960084B1860084B08481B680360084B32
:100EA0001B684360074B1B6883607047000003505A
:100EB00008000350040003500C000350E8A4010094
:100EC00010000350140003500622094B1A60094B0E
:100ED0001960094B1860094B09481B680C30036006
:100EE000084B1B684360084B1B6883607047C04613
:100EF0000000035008000350040003500C0003508E
:100F0000E8A40100100003501400035070B506005F
:100F1000050000F02FFD0022002300F011FD002845
:100F200000DC99E07D4BF618300000F023FD002234
:100F3000002300F005FD002803DD80243500240493
:100F400001E080242402764BEE18300000F012FD00
:100F50000022002300F0F4FC002801DD350024010C
:100F6000704BEE18300000F005FD0022002300F069
:100F7000E7FC002801DD3500A4006B4BEE183000C3
:100F800000F0F8FC0022002300F0DAFC002801DD6C
:100F900035006400654BEE18300000F0EBFC0022D9
:100FA000002300F0CDFC002802DD35006310E418BA
:100FB0005F4BEE18300000F0DDFC0022002300F053
:100FC000BFFC002802DD3500A310E418594BEE18D1
:100FD000300000F0CFFC0022002300F0B1FC00281C
:100FE00002DD3500E310E418534BEE18300000F03A
:100FF000C1FC0022002300F0A3FC002802DD350024
:101000002311E4184D4BEE18300000F0B3FC002221
:10101000002300F095FC002802DD35006311E41880
:101020002E00FC3EFF3E300000F0A4FC0022002316
:1010300000F086FC002802DD3500A311E41828002A
:10104000FF3800F097FC0022002300F079FC002814
:1010500062DDE311E4185FE0394BF518280000F079
:1010600089FC0022002300F06BFC012804DD28002D
:10107000FFF74CFF401050E0324BF518280000F00D
:1010800079FC0022002300F05BFC012804DD28002D
:10109000FFF73CFF801040E02B4BF518280000F0D4
:1010A00069FC0022002300F04BFC012804DD28002D
:1010B000FFF72CFF001130E0244BF518280000F05A
:1010C00059FC0022002300F03BFC012804DD28002D
:1010D000FFF71CFF001220E01D4BF518280000F060
:1010E00049FC0022002300F02BFC012804DD28002D
:1010F000FFF70CFF001310E0164BF618300000F05D
:1011000039FC0022002300F01BFC012804DD300024
:10111000FFF7FCFEC01300E0200070BD373AFDFF72
:101120001C9DFEFF8E4EFFFF49A7FFFF19CCFFFF5E
:1011300072E3FFFFECF0FFFF3FF8FFFF0FFCFFFF44
:10114000B758000072B10000E4620100C9C5020096
:10115000AD280400D732050070B505020400280050
:1011600000F008FC80220023120600F0E9FB0028B2
:1011700002DC2C004A4D00E000252601300000F082
:10118000F9FB80220023120600F0DAFB002802DCC3
:101190003400444BED18A600300000F0EBFB802239
:1011A0000023120600F0CCFB002802DC34003E4B8A
:1011B000ED186600300000F0DDFB802200231206EF
:1011C00000F0BEFB002802DC3400384BED1866103E
:1011D0003619300000F0CEFB80220023120600F00A
:1011E000AFFB002802DC3400314BED18A610361995
:1011F000300000F0BFFB80220023120600F0A0FBAD
:10120000002802DC34002B4BED18E61036193000B4
:1012100000F0B0FB80220023120600F091FB0028B2
:1012200002DC3400244BED182611A619300000F022
:10123000A1FB80220023120600F082FB002802DCC2
:1012400034001E4BED186611A619300000F092FB19
:1012500080220023120600F073FB002802DC340019
:10126000174BED18A611A619300000F083FB802261
:101270000023120600F064FB002802DC3400FC3D71
:10128000FF3DE011001900F075FB802200231206DB
:1012900000F056FB002800DCFF3D280070BDC04672
:1012A000373AFDFF1C9DFEFF8E4EFFFF49A7FFFF53
:1012B00019CCFFFF72E3FFFFECF0FFFF3FF8FFFFE9
:1012C0000FFCFFFF000000000822324BF0B51A703F
:1012D000043A9A700422DA7006229A720622DA72AE
:1012E0000722012407250221002005275A73032223
:1012F00004261D741D195F711F72587018719C713E
:10130000DC71597219739A73DA7358749A74D874B9
:101310001A755C759975DC7519765C769976DC764C
:10132000197758779A77EA775D18E8779D18EC7700
:101330001D1DEA77DD19E9779D1DEE77DD1DEF773D
:101340000825AC469C4465460726EE772825AC4622
:101350009C44654606262E702925AC469C4465466D
:101360002C701C002A34D877207018002B300170A4
:1013700019002C310A701A002D3217701A0004213E
:101380002E3211701A0006212F32117007223033CD
:101390001A70F0BD00A5010070B50D00040000F04A
:1013A000CDFA00F0E7FA0022002300F0C9FA002885
:1013B00000DC2C00200070BDF0B58BB00192119ABA
:1013C000089307920022109B0590069100920993C2
:1013D0002A4B00991A78520091424DDA009A284F10
:1013E0009B1801225B7C274E581010401A400423A2
:1013F00040000138029240B23B6000F0C9FA059B00
:10140000214A224D306013602B68214C03932368DE
:10141000049304233B60029B5800013840B200F063
:10142000B7FA069B184A3060136004222B682168C3
:101430003A60079A04983260039A5B045204C00B26
:10144000C90B1943104300F073FA01220E4B1860C8
:101450002B6821685B04C90B1943009B09989C0009
:10146000134200D0089800F063FA019B1851009BCA
:101470000133DBB20093ABE70BB0F0BD00A5010078
:1014800000000350080003500400035010000350F4
:101490000C000350F0B500260F008BB0099310AB81
:1014A0001B7804900593119B019207930396029673
:1014B0007E4B1B78B34200D8D9E0730006937B4B78
:1014C00072009B180222987C9A56012308920422EB
:1014D00018404000764B01381A6040B200F058FACC
:1014E000744B754D18600420099B71490693069A48
:1014F000724B1A60724B1A682B685204DB0B08603F
:10150000134307986D4A6B49086013606C4B059A4A
:101510001B682C685B04E40B1C43089B9B00002E9B
:1015200015D13968012A09D1019AD05800F000FA82
:1015300073000133049A9B00995804E0019AD05833
:1015400000F0F6F9210000F0F3F9029024E0012AFE
:101550000BD10199B200C958D05900F0E9F97300D4
:101560000133049A9B00995806E0019A2100D05853
:1015700000F0DEF9B300D95900F0DAF901000400F7
:10158000029800F0DBF900F0F5F90022002300F0EA
:10159000D7F9002800DC02940124444B72009A1809
:1015A000145772009B18587C0123042218404000F5
:1015B0003F4B01381A6040B200F0EAF93D4B069A01
:1015C000186004203D4B3A491A603D4BA4001A684C
:1015D0002B685204DB0B0860134307983549374AE0
:1015E00008601360364B1B682D685B04ED0B1D43D0
:1015F000059B002E14D13968012B08D1019B185985
:1016000000F096F97300049A9B00995804E0019B3E
:10161000185900F08DF9290000F08AF9039023E0B1
:10162000012B0AD1019AB3001159D85900F080F961
:101630007300049A9B00995806E0019B29001859F1
:1016400000F076F9B300D95900F072F901000400F6
:10165000039800F073F900F08DF90022002300F0E8
:101660006FF9002800DC0394731CDEB220E70399B5
:10167000029800F063F9040000F07CF900220523D1
:1016800006000F0000F05CF901280ADC05230022A7
:101690005B423000390000F053F9002803DC094CAC
:1016A00001E0A024E40220000BB0F0BD00A5010081
:1016B00000000350080003500C00035004000350C6
:1016C000100003500000FBFF70B500F053F9094B08
:1016D000074A0D00040000F02DF902000B00200065
:1016E000290000F03FF900F04FF970BDC046C04638
:1016F000000000800000000040BF40BF7047802015
:1017000010B502498000FEF7C3FDFEE72222222227
:1017100010B540BF8020044A04491368800001339B
:101720001360FEF7B5FDFEE734A501003333333314
:1017300040BF054A0121536801335360C023034A67
:101740005B00D15040BF704734A5010000E100E0CC
:1017500040BFC0230221044A5B00D150034A936872
:10176000013393607047C04600E100E034A50100FA
:1017700040BFC0230421044A5B00D150034AD36810
:101780000133D3607047C04600E100E034A501009A
:1017900040BFC0230821044A5B00D150034A1369AB
:1017A000013313617047C04600E100E034A5010039
:1017B00040BFC0231021044A5B00D150034A536943
:1017C000013353617047C04600E100E034A50100D9
:1017D00040BFC0232021044A5B00D150034A9369D3
:1017E000013393617047C04600E100E034A5010079
:1017F00040BFC0234021044A5B00D150034AD36953
:101800000133D3617047C04600E100E034A5010018
:1018100040BFC0238021044A5B00D150034A136AB1
:10182000013313627047C04600E100E034A50100B7
:1018300040BF8021C023044A49005B00D150034AC5
:10184000536A01335362704700E100E034A50100A0
:1018500040BF8021C023044A89005B00D150034A65
:10186000936A01339362704700E100E034A5010000
:1018700040BF8021C023044AC9005B00D150034A05
:10188000D36A0133D362704700E100E034A5010060
:1018900040BF8021C023044A09015B00D150034AA4
:1018A000136B01331363704700E100E034A50100BE
:1018B00040BF8021C023044A49015B00D150034A44
:1018C000536B01335363704700E100E034A501001E
:1018D00040BF8021C023044A89015B00D150034AE4
:1018E000936B01339363704700E100E034A501007E
:1018F00040BF8021C023044AC9015B00D150034A84
:10190000D36B0133D363704700E100E034A50100DD
:1019100040BF8021C023044A09025B00D150034A22
:10192000136C01331364704700E100E034A501003B
:1019300008187047801859417047C046401A7047D0
:101940008B4206DC03D0994205DD022070478242BB
:10195000F9D90020FAE7994201D19042F5D8012047
:10196000F4E7C04610B5002482B0009400F012F8ED
:1019700002B010BD10B5C117040C090402040C43D9
:101980001000210010BDC0460B04000C1843704726
:10199000C0037047F0B54D4644465F465646F0B426
:1019A0008BB004000D0002920393002900DB77E066
:1019B000002544428D4101218B460399002907DA15
:1019C00000215042994101239C4602900391E34437
:1019D0006308EF071F436B109A4602980399E607C6
:1019E000EC170B000200814688465046210000F0AB
:1019F000A1F802000B000298039904920593069245
:101A0000079302000B005046210000F093F840219C
:101A100000208C46002100960197DC0FA246019C15
:101A200092185B41002C03DA0124002512196B4146
:101A300000184941564604000D00002E04D1984577
:101A40000AD801D1914507D802980399121A8B41FF
:101A50000120002100196941009E019F34003D00D2
:101A6000A4197D410094019501246442A246D44406
:101A70006446002CD1D15B4608900991012B12D00D
:101A8000149B002B03D008A906A800F023F808989F
:101A900009990BB03CBC90469946A246AB46F0BDB6
:101AA00000218B4689E7002342428B41089209932B
:101AB0001A4307D104980599002342428B410692AC
:101AC0000793DDE70499059ACB430693D343079325
:101AD000D6E7C046436810B50268002B09DD002236
:101AE0000023026043600122114B52420A604B60A6
:101AF00010BD002B01D1002AF1D114001C4313D0DA
:101B0000013206D1013304D180234A681B069A4270
:101B1000EED201225242D31702604360802300229A
:101B20001B060A604B60E3E74B68002BE0DAD6E760
:101B3000FFFFFF7F002B11D1002A0FD1002900D118
:101B4000002802D00021C943081C07B4024802A1A2
:101B50004018029003BDC0469D01000003B46846D2
:101B600001B5029800F006F8019B9E4602B00CBC3D
:101B70007047C046F0B54D46564644465F46F0B401
:101B8000924683B004000D0099468B422FD82CD08A
:101B90004946504600F0B0F829000600200000F049
:101BA000ABF8331A9846203B9B4600D574E0534669
:101BB0005A4693401F005346424693401E00AF4290
:101BC00029D826D05B46A41BBD41002B00DA79E062
:101BD000002200230092019301235A46934001936F
:101BE000012342469340009319E08242D0D900225B
:101BF0000023009201930C9B002B01D01C605D60C0
:101C00000098019903B03CBC90469946A246AB4669
:101C1000F0BDA342D6D9002200230092019343468F
:101C2000002BE8D0FB0772081A4346467B080EE0FB
:101C3000AB4201D1A2420CD8A41A9D410120241923
:101C40006D410021013E24184D41002E06D0AB42CB
:101C5000EED9013E24196D41002EF8D15B46009863
:101C6000019900196941002B22DB2B005A46D34011
:101C70002A004446E2401C005B461500002B2CDB8A
:101C800026009E40330026004746BE403200801AA0
:101C9000994100900191AEE7424620239B1A52469B
:101CA000DA40414613004A468A4017001F4382E744
:101CB000424620239B1A2A0046469A402300F340BE
:101CC0001343D5E74246202300219B1A00220091AE
:101CD00001920122DA40019282E742462023260047
:101CE0009B1ADE402F00B446974066463B003343C4
:101CF000C9E7C0467047C04610B5002903D100F0BF
:101D000007F8203002E0081C00F002F810BDC046C1
:101D10001C2101231B04984201D3000C10391B0A1B
:101D2000984201D3000A08391B09984201D30009DF
:101D3000043902A2105C40187047C0460403020236
:101D400001010101000000000000000070B50D4E0F
:101D50000D4D0024AD1BAD1005D0A300F358013488
:101D60009847A542F9D1FEF7C7F9084E084D00245F
:101D7000AD1BAD1005D0A300F35801349847A54220
:101D8000F9D170BD689F0100689F0100689F010044
:101D9000709F010070B583073FD0541E002A3BD0CE
:101DA000CEB20300032503E0621E002C34D01400E1
:101DB00001335A1E16702B42F6D1032C24D9FF256D
:101DC0000D402A0215432A0415430F2C11D9260071
:101DD000103E3609013636011A009B191560556010
:101DE0009560D56010329342F8D10F221440032C35
:101DF0000AD9261FB6080136B6001A009B1920C260
:101E00009342FCD103221440002C05D0C9B21C1906
:101E1000197001339C42FBD170BD14000300CCE764
:101E2000F0B55F4656464D464446F0B40F00394B78
:101E300085B01B68019002934933FF330393A422BA
:101E4000029B52009E58002E4ED0039B9946C423FD
:101E50005B00984604339A467468B044A50075192F
:101E6000B244013C08D52DE06B1DFF331B689F4237
:101E700004D0043D013C25D3002FF5D173686A6876
:101E8000013BA34239D000236B60002AF1D0736874
:101E900041469B460123A340096819422BD0514675
:101EA000096819422BD12B00843319680198904797
:101EB00073685B45C3D14B461B68B342BFD1043D39
:101EC000013CD9D2144B002B0ED07368002B1BD1D0
:101ED0003368002B1CD04A463000136000E000BF7E
:101EE0004B461E68002EB2D105B03CBC90469946C8
:101EF000A246AB46F0BD9047DAE77460C5E72B0019
:101F0000843318689047D3E73368B1461E00E9E789
:101F10000023FAE7589F00000000000010B5010000
:101F200000230022002000F01BF810BD70B5094B03
:101F3000094CE41AA41009D0084AA518AD00ED1800
:101F40002B68013C9847043D002CF9D100F074F84F
:101F500070BDC046709F0100749F0100FFFFFF3FEE
:101F6000F8B544465F4656464D469B462F4BF0B467
:101F70001C68A4235B000500E0580E009046002872
:101F80004BD043681F2B0DDC5C1C002D21D102338C
:101F90009B0044601E5000203CBC90469946A246DF
:101FA000AB46F8BD224B002B3CD0C820400000E0DF
:101FB00000BF002836D0A42200235200A15843605D
:101FC0000160A05040328350043283500124002D20
:101FD000DDD09A0091468144424688214F467A508E
:101FE000C422520090468044424687399940126884
:101FF0008A460A4394464246614611608422494615
:102000005F4652008F50022DC1D1020055468D32DD
:10201000FF3211680D431560B9E720004D30FF30E5
:10202000E050AEE701204042B6E7C046589F0000AE
:1020300000000000FEE7C046D6C7C2B5271ADD166D
:0820400043000000809F010035
:0C204800F8B5C046F8BC08BC9E467047C6
:0C205400F8B5C046F8BC08BC9E467047BA
:0820600084E1FF7F0100000094
:042068000000000074
:10206C000000000000000000000000006CA2010055
:10207C00D4A201003CA301000000000000000000FD
:10208C000000000000000000000000000000000044
:10209C00000000000000000000000000549F000041
:1020AC000000000000000000000000000000000024
:1020BC000000000000000000000000000000000014
:1020CC000000000000000000000000000000000004
:1020DC0000000000000000000000000000000000F4
:1020EC0000000000000000000000000000000000E4
:1020FC0000000000000000000000000000000000D4
:10210C0000000000000000000000000000000000C3
:10211C0001000000000000000E33CDAB34126DE660
:10212C00ECDE05000B0000000000000000000000C9
:10213C000000000000000000000000000000000093
:10214C000000000000000000000000000000000083
:10215C000000000000000000000000000000000073
:10216C000000000000000000000000000000000063
:04249C00809F01001C
:0824A00069800000A980000022
:0424A800818000002F
:0424AC00000000002C
:04000003000000C336
:00000001FF
