:1000000000200020C30000002D1500003315000063
:1000100000000000000000000000000000000000E0
:10002000000000000000000000000000C10000000F
:100030000000000000000000C100000045150000A5
:100040006515000085150000A5150000C11500000C
:10005000E1150000FD1500001D1600003D16000012
:100060005D1600007D1600009D160000BD16000004
:10007000DD160000FD1600001D1700003D170000F2
:100080000000000000000000000000000000000070
:100090000000000000000000000000000000000060
:1000A0000000000000000000000000000000000050
:1000B0000000000000000000000000000000000040
:1000C000FEE7002370B50A480A490B4C1A188A4209
:1000D00003D2E55C01331570F8E70021074B084AAD
:1000E000934202D219700133FAE700F01BF870BD99
:1000F0000000002034040020141B000044040020F1
:10010000F405002010B50021040001F0EBFB044BC6
:100110001868C36B002B00D09847200001F0ECFC5E
:10012000249A000001220A4B52421A6080200022C9
:10013000084BC0021A6008491A60C04601390029FC
:10014000FBD105491860C04601390029FBD1F2E70F
:100150000800005004000050A0860100034B10B5B9
:10016000002B02D0024801F03BFC10BD0000000053
:10017000F998000010B5064C2378002B07D1054BE9
:10018000002B02D0044800E000BF0123237010BD03
:100190007C9E010000000000309A0000084B10B562
:1001A000002B03D00749084800E000BF0748036858
:1001B000002B00D110BD064B002BFBD09847F9E770
:1001C00000000000809E0100309A0000409A01006B
:1001D00000000000164B002B00D1144B9D4640221E
:1001E00092029A1A924600218B460F461348144AEF
:1001F000121A01F031FB0F4B002B00D098470E4B29
:10020000002B00D098470020002104000D000D486D
:10021000002802D00C4801F0E3FB01F0BBFA2000FB
:100220002900FFF77FFFFFF76DFFC04600000800C1
:100230000000000000000000000000007C9E0100A3
:100240002CA00100E9980000F9980000EFF3098064
:10025000001C704780F309887047EFF30880001C8A
:10026000704780F308887047EFF31080704780F381
:100270001088704700BA704740BA7047C0BA7047DC
:10028000EFF31480704780F314887047830702D11E
:1002900080239B05C1507047C30702D480239B0570
:1002A000C152704780239B05C154704700238207C9
:1002B00002D180239B05C358180070470023C20752
:1002C00002D480239B05C35A1800704780239B05E6
:1002D000C05C7047830701D1014BC1507047C046D5
:1002E000002000200023820701D1024BC3581800D0
:1002F0007047C0460020002010B5044C2360044B1A
:100300001A60044B1960044B186010BD04000350C0
:10031000080003500C0003501000035010B5044CAB
:100320002360044B1A60044B1960044B186010BD25
:1003300014000350180003501C0003502000035009
:1003400030B504000B48056800209D4210D10A4BCF
:1003500001301B6893420BD1084B01301B688B4264
:1003600006D1074B1B68181B431E98410423181A1B
:1003700030BDC04624000350280003502C00035019
:1003800030000350A023DB0518688007C00F7047BA
:100390000122014B1A6070472C0000500122014BD2
:1003A0001A60704730000050C04670471622074B55
:1003B000FF321A600022064B1A60064B03321A60A5
:1003C000054B1A60023A1A607047C0460C10004094
:1003D00018100040141000400010004070B5414C4F
:1003E0002278D2B2012A34D16378002B0BD1A378C2
:1003F000013BDBB2A370002B2BD13B4B1A600323D4
:100400006270A37025E0A378013BDBB2A370002BE0
:100410001FD1E178002915D123796179A079091AD2
:100420000B41134201D0314B00E02F4B1A600323E4
:10043000A370A379013BDBB2A371002B09D1013377
:10044000E37006E029490A600322A270E37063703A
:100450002370E379002B44D1237A012B15D1637AE1
:10046000013BDBB26372002B3BD121002372A372EC
:10047000A289A07B12B20F318854A289013212B234
:10048000A281FF2A2DDDA3812BE0A37A002B0DD1C1
:10049000FFF778FF002824D10123154AA372033304
:1004A000A0736372D37BDBB213741AE0637A013BEF
:1004B000DBB26372002B14D103336372FFF762FF68
:1004C0000B4AD17B157CA37B491B88401843C0B2E3
:1004D000A073137C013BDBB21374002B01D10133F9
:1004E000237270BD989E0100300000502C00005017
:1004F000989F010001210222C1200F4B10B5196005
:100500000E4B80001A600E4B0E4A1C5822401A50A7
:1005100040221A6000220C4B0C485A701A70DA7094
:100520009A721A72DA710832C2735A71084B1960E2
:10053000FFF73CFF10BDC046080000500C00005003
:1005400000E100E0FFFF00FF989E0100989F01007E
:100550002C0000500B4A0C4B30B5548A9D89002169
:10056000A5420DD0518A0F3309B25B5C01210370A3
:10057000538A01331BB25382FF2B01DD00235382C8
:10058000080030BD989F0100989E0100064B1A7824
:10059000012AFCD003229A705A79D2B29A710122B0
:1005A00018711A707047C046989E01000023024AD5
:1005B0009381024A53827047989E0100989F0100E0
:1005C000054B064A988903B2508A00B2181A431E96
:1005D0009841C0B27047C046989E0100989F0100A4
:1005E0000022014BDA717047989E01000122014BF5
:1005F000DA717047989E0100054B022118700123A3
:10060000044A1360044A1160044A13607047C046EC
:10061000AE9F01002C0000500C000050080000505C
:100620000121030000B50B408DB00193022303406C
:1006300002930423034003930823034004931023ED
:100640000340059320230340069340230340079370
:100650007F239843754B08901A78754B09910A913E
:100660001960002A00D008E1C046C046C046C04616
:10067000C046C046C046C046C046C046C046C0464A
:10068000C046C0466B4A0198002805D0C046C04607
:10069000C0460A99116005E00A991960C046C04633
:1006A000C046C046C046C046C046C046C046C0461A
:1006B000C046C046C046C046C046C046C046C0460A
:1006C000C0460298002805D0C046C046C0460A99D8
:1006D000116005E00A991960C046C046C046C04690
:1006E000C046C046C046C046C046C046C046C046DA
:1006F000C046C046C046C046C046C046C046039835
:10070000002805D0C046C046C0460A99116005E0E1
:100710000A991960C046C046C046C046C046C04699
:10072000C046C046C046C046C046C046C046C04699
:10073000C046C046C046C046C0460498002805D002
:10074000C046C046C0460A99116005E00A99196082
:10075000C046C046C046C046C046C046C046C04669
:10076000C046C046C046C046C046C046C046C04659
:10077000C046C046C0460598002805D0C046C046C1
:10078000C0460A99116005E00A991960C046C04642
:10079000C046C046C046C046C046C046C046C04629
:1007A000C046C046C046C046C046C046C046C04619
:1007B000C0460698002805D0C046C046C0460A99E3
:1007C000116005E00A991960C046C046C046C0469F
:1007D000C046C046C046C046C046C046C046C046E9
:1007E000C046C046C046C046C046C046C046079840
:1007F000002805D0C046C046C0460A99116005E0F1
:100800000A991960C046C046C046C046C046C046A8
:10081000C046C046C046C046C046C046C046C046A8
:10082000C046C046C046C046C04605E0AE9F010077
:10083000300000502C0000500898002805D0C04619
:10084000C046C0460A99116005E00A991960C04681
:10085000C046C046C046C046C046C046C046C04668
:10086000C046C046C046C046C046C046C046C04658
:10087000C046C046C0461160DDE000220B920B9AD4
:10088000022A03DCC0460B9A0132F7E7C046C04695
:100890006A4A0198002805D0C046C046C0460A9959
:1008A000116005E00A991960C046C046C046C046BE
:1008B000C04600210B910B99022903DCC0460B991D
:1008C0000131F7E7C0460298002805D0C046C0466F
:1008D000C0460A99116005E00A991960C046C046F1
:1008E000C046C046C04600210B910B99022903DC8B
:1008F000C0460B990131F7E7C0460398002805D0A0
:10090000C046C046C0460A99116005E00A991960C0
:10091000C046C046C046C046C04600210B910B9958
:10092000022903DCC0460B990131F7E7C046049861
:10093000002805D0C046C046C0460A99116005E0AF
:100940000A991960C046C046C046C046C04600214C
:100950000B910B99022903DCC0460B990131F7E793
:10096000C0460598002805D0C046C046C0460A9932
:10097000116005E00A991960C046C046C046C046ED
:10098000C04600210B910B99022903DCC0460B994C
:100990000131F7E7C0460698002805D0C046C0469A
:1009A000C0460A99116005E00A991960C046C04620
:1009B000C046C046C04600210B910B99022903DCBA
:1009C000C0460B990131F7E7C0460798002805D0CB
:1009D000C046C046C0460A99116005E00A991960F0
:1009E000C046C046C046C046C04600210B910B9988
:1009F000022903DCC0460B990131F7E7C04608988D
:100A0000002805D0C046C046C0460A99116005E0DE
:100A10000A991960C046C046C046C046C046002379
:100A20000B930B9B022B03DCC0460B9B0133F7E7B8
:100A3000C046012313600DB000BDC0462C0000501D
:100A4000A022F0B5984B85B01B78D205002B00D0C2
:100A5000DDE0023311681942FCD1C046C046C046F1
:100A6000C046C046C046C046C046C046C046C04656
:100A7000C046C046C046C046C046C046C046C04646
:100A8000C046C046C046C046C046C046C046C04636
:100A9000C046C046A023DB051A68022313406A46FD
:100AA0000332002B02D0C046C04601231370C0465B
:100AB000C046C046C046C046C046C046C046C04606
:100AC000C046C046A023DB051A680223134001AAD2
:100AD000002B02D0C046C04601231370C046C0465A
:100AE000C046C046C046C046C046C046C046C046D6
:100AF000C046A023DB051A68022313406A4605326C
:100B0000002B02D0C046C04601231370C046C04629
:100B1000C046C046C046C046C046C046C046C046A5
:100B2000C046A023DB051A68022313406A4606323A
:100B3000002B02D0C046C04601231370C046C046F9
:100B4000C046C046C046C046C046C046C046C04675
:100B5000C046A023DB051A68022313406A46073209
:100B6000002B02D0C046C04601231370C046C046C9
:100B7000C046C046C046C046C046C046C046C04645
:100B8000C046A023DB051A680223134002AA002BEB
:100B900002D0C046C04601231370C046C046C046BE
:100BA000C046C046C046C046C046C046C046C04615
:100BB000A023DB051A680223134009226A44002B94
:100BC00002D0C046C04601231370C046C046C0468E
:100BD000C046C046C046C046C046C046C046C046E5
:100BE000A023DB051A68022313400A226A44002B63
:100BF00002D0C046C04601231370C046C046C0465E
:100C0000C046C046C046C046C046C046DFE00221DE
:100C100013680B40FCD10421244A11600393039B09
:100C2000022B03DCC046039B0133F7E7C046C046F6
:100C3000C046C046C046C04600230393039B022B18
:100C400003DCC046039B0133F7E7C046C046A02340
:100C5000DB051A68022313406A460332002B02D0D8
:100C6000C046C0460123137000230393039B022B4D
:100C700003DCC046039B0133F7E7C046C046A02310
:100C8000DB051A680223134001AA002B02D0C046DC
:100C9000C0460123137000230393039B022B07DC40
:100CA000C046039B0133F7E7AE9F010034000050BC
:100CB000C046C046A023DB051A68022313406A46DB
:100CC0000532002B02D0C046C0460123137000231A
:100CD0000393039B022B03DCC046039B0133F7E71E
:100CE000C046C046A023DB051A68022313406A46AB
:100CF0000632002B02D0C046C046012313700023E9
:100D00000393039B022B03DCC046039B0133F7E7ED
:100D1000C046C046A023DB051A68022313406A467A
:100D20000732002B02D0C046C046012313700023B7
:100D30000393039B022B03DCC046039B0133F7E7BD
:100D4000C046C046A023DB051A680223134002AA4E
:100D5000002B02D0C046C04601231370002303932A
:100D6000039B022B03DCC046039B0133F7E7C0461D
:100D7000C046A023DB051A680223134009226A44F7
:100D8000002B02D0C046C0460123137000230393FA
:100D9000039B022B03DCC046039B0133F7E7C046ED
:100DA000C046A023DB051A68022313400A226A44C6
:100DB000002B02D0C046C0460123137000230393CA
:100DC000039B022B03DCC046039B0133F7E7C046BD
:100DD000C046A023DB051A68022313400B226A4495
:100DE000002B02D0C046C046012313706B46DF784B
:100DF00001AB18786B465E796B469D796B46DC7962
:100E000002AB197809236B441A780A23B600400014
:100E100030433843ED006B44284324011B782043C2
:100E20004901084392011043DB011843C0B205B0E9
:100E3000F0BD10B504000134631E1878002802D0FC
:100E4000FFF7EEFBF7E710BD10B504000134631E99
:100E50001878002802D0FFF7E3FBF7E70A30FFF726
:100E6000DFFB0D20FFF7DCFB10BDC046F0B505AC85
:100E7000277806AC257807AC267801242540A540C4
:100E800027402F430325BF0015403D43A540234085
:100E90002B43084D5A002B6821409B0823401343E5
:100EA000A3401943A1402040034B084328601E6023
:100EB000F0BDC046082000400C2000400421024A3A
:100EC00013680B4313607047082000400421024A56
:100ED00013688B43136070470820004002230449C5
:100EE0000A681A4201D0C046FAE7024B1860704700
:100EF0000420004000200040022310B50A490A687F
:100F0000094C1A4001D0C046F9E7084B1A6001327B
:100F100020680549104201D1C046F9E701200A685E
:100F200002430A60186810BD042000400020004001
:100F300070B50600050000F023FC0022002300F03D
:100F40000DFC002800DC99E07D4BF618300000F025
:100F500017FC0022002300F001FC002803DD8024A0
:100F60003500240401E080242402764BEE18300082
:100F700000F006FC0022002300F0F0FB002801DD59
:100F800035002401704BEE18300000F0F9FB002210
:100F9000002300F0E3FB002801DD3500A4006B4BCB
:100FA000EE18300000F0ECFB0022002300F0D6FB2E
:100FB000002801DD35006400654BEE18300000F0BC
:100FC000DFFB0022002300F0C9FB002802DD350012
:100FD0006310E4185F4BEE18300000F0D1FB0022E4
:100FE000002300F0BBFB002802DD3500A310E4184D
:100FF000594BEE18300000F0C3FB0022002300F034
:10100000ADFB002802DD3500E310E418534BEE1869
:10101000300000F0B5FB0022002300F09FFB002809
:1010200002DD35002311E4184D4BEE18300000F0BE
:10103000A7FB0022002300F091FB002802DD350011
:101040006311E4182E00FC3EFF3E300000F098FBD8
:101050000022002300F082FB002802DD3500A311EE
:10106000E4182800FF3800F08BFB0022002300F07A
:1010700075FB002862DDE311E4185FE0394BF518D9
:10108000280000F07DFB0022002300F067FB012810
:1010900004DD2800FFF74CFF401050E0324BF518FC
:1010A000280000F06DFB0022002300F057FB012810
:1010B00004DD2800FFF73CFF801040E02B4BF518C3
:1010C000280000F05DFB0022002300F047FB012810
:1010D00004DD2800FFF72CFF001130E0244BF51849
:1010E000280000F04DFB0022002300F037FB012810
:1010F00004DD2800FFF71CFF001220E01D4BF5184F
:10110000280000F03DFB0022002300F027FB01280F
:1011100004DD2800FFF70CFF001310E0164BF61853
:10112000300000F02DFB0022002300F017FB012807
:1011300004DD3000FFF7FCFEC01300E0200070BDAE
:10114000373AFDFF1C9DFEFF8E4EFFFF49A7FFFFB4
:1011500019CCFFFF72E3FFFFECF0FFFF3FF8FFFF4A
:101160000FFCFFFFB758000072B10000E4620100FD
:10117000C9C50200AD280400D732050070B50502CC
:101180000400280000F0FCFA80220023120600F080
:10119000E5FA002802DC2C004A4D00E0002526017B
:1011A000300000F0EDFA80220023120600F0D6FA9B
:1011B000002802DC3400444BED18A600300000F09B
:1011C000DFFA80220023120600F0C8FA002802DCB1
:1011D00034003E4BED186600300000F0D1FA80225A
:1011E0000023120600F0BAFA002802DC3400384B63
:1011F000ED1866103619300000F0C2FA8022002384
:10120000120600F0ABFA002802DC3400314BED1876
:10121000A6103619300000F0B3FA8022002312061F
:1012200000F09CFA002802DC34002B4BED18E6108D
:101230003619300000F0A4FA80220023120600F0D4
:101240008DFA002802DC3400244BED182611A61973
:10125000300000F095FA80220023120600F07EFA9A
:10126000002802DC34001E4BED186611A619300070
:1012700000F086FA80220023120600F06FFA0028A0
:1012800002DC3400174BED18A611A619300000F04F
:1012900077FA80220023120600F060FA002802DCB0
:1012A0003400FC3DFF3DE011001900F069FA802296
:1012B0000023120600F052FA002800DCFF3D28004F
:1012C00070BDC046373AFDFF1C9DFEFF8E4EFFFFEE
:1012D00049A7FFFF19CCFFFF72E3FFFFECF0FFFF10
:1012E0003FF8FFFF0FFCFFFF0822324BF0B51A70EA
:1012F000043A9A700422DA7006229A720622DA728E
:101300000722012407250221002005275A73032202
:1013100004261D741D195F711F72587018719C711D
:10132000DC71597219739A73DA7358749A74D87499
:101330001A755C759975DC7519765C769976DC762C
:10134000197758779A77EA775D18E8779D18EC77E0
:101350001D1DEA77DD19E9779D1DEE77DD1DEF771D
:101360000825AC469C4465460726EE772825AC4602
:101370009C44654606262E702925AC469C4465464D
:101380002C701C002A34D877207018002B30017084
:1013900019002C310A701A002D3217701A0004211E
:1013A0002E3211701A0006212F32117007223033AD
:1013B0001A70F0BDB59F0100F7B501250024AC46B9
:1013C000019101998C4212D061460A4E055D5B0085
:1013D000F3185D196E7C650077100F4057550E406D
:1013E00055196E70055D01345B195B78E9E71800EB
:1013F000FEBDC046B59F0100F7B515006A464B001B
:101400000733DB08DB00D21AD31A00AF95469D469E
:101410000C003B60002306007A60FFF7CDFF6A46B0
:10142000E31DDB08DB00D31A9D463000694600F05F
:1014300026F83A68002321006846FFF7BDFF002226
:10144000A2420ED078685300C05CD1186854786806
:101450000133C05C6918487038680132C35C8B7016
:10146000EEE7BD46F7BDC04610B502AC24780139A1
:1014700021405B5C0138D2181040C0B210BDF7B5F6
:1014800001AC042206000D002000094900F0A6F975
:1014900080200023E5220327400019003940615CC9
:1014A0005218D2B2B15CE95401338342F5D1F7BD91
:1014B000189A0000F7B501AC042206000D002000C8
:1014C0000B4900F08BF903270023E522190039406E
:1014D000615C5218D2B2910089598C4660469900DD
:1014E00068508021013349008B42EFD1F7BDC046DF
:1014F000189A0000F7B504220D000B4901AC8918B9
:101500000600200000F06AF980200023EE22032765
:10151000400019003940615C5218D2B2B15CE95404
:1015200001338342F5D1F7BD189A000040BF40BF98
:101530007047802010B502498000FEF7A7FEFEE745
:101540002222222210B540BF8020044A0449136899
:10155000800001331360FEF799FEFEE7E89F01006B
:101560003333333340BF054A01215368013353609D
:10157000C023034A5B00D15040BF7047E89F010081
:1015800000E100E040BFC0230221044A5B00D150CB
:10159000034A9368013393607047C04600E100E05E
:1015A000E89F010040BF0422034BDA67034AD36877
:1015B0000133D3607047C04604E100E0E89F0100BA
:1015C00040BFC0230821044A5B00D150034A13697D
:1015D000013313617047C04600E100E0E89F01005D
:1015E00040BF1022034BDA67034A5369013353614A
:1015F0007047C04604E100E0E89F010040BFC023FF
:101600002021044A5B00D150034A9369013393615E
:101610007047C04600E100E0E89F010040BFC023E2
:101620004021044A5B00D150034AD3690133D3619E
:101630007047C04600E100E0E89F010040BFC023C2
:101640008021044A5B00D150034A136A01331362BC
:101650007047C04600E100E0E89F010040BF8021E4
:10166000C023044A49005B00D150034A536A013346
:101670005362704700E100E0E89F010040BF802115
:10168000C023044A89005B00D150034A936A0133A6
:101690009362704700E100E0E89F010040BF8021B5
:1016A000C023044AC9005B00D150034AD36A013306
:1016B000D362704700E100E0E89F010040BF802155
:1016C000C023044A09015B00D150034A136B013364
:1016D0001363704700E100E0E89F010040BF8021F4
:1016E000C023044A49015B00D150034A536B0133C4
:1016F0005363704700E100E0E89F010040BF802194
:10170000C023044A89015B00D150034A936B013323
:101710009363704700E100E0E89F010040BF802133
:10172000C023044AC9015B00D150034AD36B013383
:10173000D363704700E100E0E89F010040BF8021D3
:10174000C023044A09025B00D150034A136C0133E1
:101750001364704700E100E0E89F01008B4206DC63
:1017600003D0994205DD022070478242F9D900205A
:10177000FAE7994201D19042F5D80120F4E7C0463A
:1017800010B5C117040C090402040C431000210019
:1017900010BDC04670B50D4E0D4D0024AD1BAD10F3
:1017A00005D0A300F35801349847A542F9D1FEF7BC
:1017B000A3FC084E084D0024AD1BAD1005D0A300BE
:1017C000F35801349847A542F9D170BD349A01000D
:1017D000349A0100349A01003C9A010070B50F2A36
:1017E00032D90C0004430B00A40731D115000400CA
:1017F000103D2D0901352D0149191E6826605E68CE
:1018000066609E68A660DE681033E6601034994218
:10181000F3D10F2345191340032B1BD91C1F0023A1
:10182000A4080134A400CE58EE5004339C42FAD1EF
:1018300003232D1909191A4005D00023CC5CEC5460
:1018400001339A42FAD170BD0500002AF5D1FAE7BA
:101850000500F2E71A00F8E770B583073FD0541E81
:10186000002A3BD0CEB20300032503E0621E002C09
:1018700034D0140001335A1E16702B42F6D1032CBB
:1018800024D9FF250D402A0215432A0415430F2CA5
:1018900011D92600103E3609013636011A009B196F
:1018A000156055609560D56010329342F8D10F22D3
:1018B0001440032C0AD9261FB6080136B6001A00B8
:1018C0009B1920C29342FCD103221440002C05D066
:1018D000C9B21C19197001339C42FBD170BD1400B0
:1018E0000300CCE7F0B55F4656464D464446F0B49B
:1018F0000F00394B85B01B68019002934933FF33C9
:101900000393A422029B52009E58002E4ED0039BAC
:101910009946C4235B00984604339A467468B044E1
:10192000A5007519B244013C08D52DE06B1DFF33AD
:101930001B689F4204D0043D013C25D3002FF5D104
:1019400073686A68013BA34239D000236B60002AA8
:10195000F1D0736841469B460123A34009681942B0
:101960002BD05146096819422BD12B0084331968BA
:101970000198904773685B45C3D14B461B68B342DF
:10198000BFD1043D013CD9D2144B002B0ED073685B
:10199000002B1BD13368002B1CD04A46300013604B
:1019A00000E000BF4B461E68002EB2D105B03CBC23
:1019B00090469946A246AB46F0BD9047DAE7746080
:1019C000C5E72B00843318689047D3E73368B146E6
:1019D0001E00E9E70023FAE7249A00000000000057
:1019E00010B5010000230022002000F01BF810BDFC
:1019F00070B5094B094CE41AA41009D0084AA5187F
:101A0000AD00ED182B68013C9847043D002CF9D13E
:101A100000F074F870BDC0463C9A0100409A010085
:101A2000FFFFFF3FF8B544465F4656464D469B468E
:101A30002F4BF0B41C68A4235B000500E0580E0097
:101A4000904600284BD043681F2B0DDC5C1C002DFA
:101A500021D102339B0044601E5000203CBC9046C4
:101A60009946A246AB46F8BD224B002B3CD0C8207D
:101A7000400000E000BF002836D0A422002352001E
:101A8000A15843600160A05040328350043283501B
:101A90000124002DDDD09A009146814442468821E0
:101AA0004F467A50C42252009046804442468739BD
:101AB000994012688A460A4394464246614611603C
:101AC000842249465F4652008F50022DC1D1020048
:101AD00055468D32FF3211680D431560B9E720007D
:101AE0004D30FF30E050AEE701204042B6E7C0463F
:101AF000249A000000000000FEE7C046D6C7C2B529
:101B0000271ADD16271ADD16D6C7C2B54300000016
:041B1000509A0100E6
:0C1B1400F8B5C046F8BC08BC9E467047FF
:0C1B2000F8B5C046F8BC08BC9E467047F3
:081B2C00B4E6FF7F0100000098
:041B340000000000AD
:101B38000000000000000000000000003C9D0100C3
:101B4800A49D01000C9E01000000000000000000A0
:101B5800000000000000000000000000000000007D
:101B6800000000000000000000000000209A0000B3
:101B7800000000000000000000000000000000005D
:101B8800000000000000000000000000000000004D
:101B9800000000000000000000000000000000003D
:101BA800000000000000000000000000000000002D
:101BB800000000000000000000000000000000001D
:101BC800000000000000000000000000000000000D
:101BD80000000000000000000000000000000000FD
:101BE80001000000000000000E33CDAB34126DE69A
:101BF800ECDE05000B000000000000000000000003
:101C080000000000000000000000000000000000CC
:101C180000000000000000000000000000000000BC
:101C280000000000000000000000000000000000AC
:101C3800000000000000000000000000000000009C
:041F6800509A01008A
:081F6C0065800000A580000063
:041F74007D8000006C
:041F78000000000065
:04000003000000C336
:00000001FF
