:1000000000200020C3000000CD150000D315000023
:1000100000000000000000000000000000000000E0
:10002000000000000000000000000000C10000000F
:100030000000000000000000C1000000E515000005
:100040000516000025160000451600006116000088
:10005000811600009D160000BD160000F11600007C
:100060001117000031170000511700007117000030
:1000700091170000B1170000D1170000F117000020
:100080000000000000000000000000000000000070
:100090000000000000000000000000000000000060
:1000A0000000000000000000000000000000000050
:1000B0000000000000000000000000000000000040
:1000C000FEE7002370B50A480A490B4C1A188A4209
:1000D00003D2E55C01331570F8E70021074B084AAD
:1000E000934202D219700133FAE700F01BF870BD99
:1000F00000000020340400203420000044040020CC
:10010000F405002010B50021040001F079FE044B35
:100110001868C36B002B00D09847200001F07AFFCD
:10012000449F0000F0B5C24CA54401F027F900F04F
:1001300009FC8022BF4BD2021A60002300240793DF
:10014000E5330A930993C82325009B0305940D9476
:1001500008940B940C930694049403940D9B002B29
:1001600071D10F260CABF618300000F01DFC0028F2
:1001700055D0069B002B16D10020049B30569F00C3
:1001800001F0B8FB012101F047FB01F0A5FB802243
:100190000023120601F03CFB01F0A8FBFFAB443347
:1001A000F85001233AE0069B012B18D10020049B54
:1001B00030569F0001F09EFB069901F02DFB01F0E7
:1001C0008BFB80220023120601F022FB01F08EFB44
:1001D00081230CAA1B019B18F85002231EE0069BEA
:1001E000022B1CD10020049B30569F0001F082FBA3
:1001F000012101F011FB01F06FFB802200231206A8
:1002000001F006FB01F072FBC1230CAA1B019B1835
:10021000F850049B01331BB2049300230693802300
:10022000049A5B009A429CD10C9801F055FB0200A5
:1002300080200B000006002101F046FB01F056FB78
:1002400001230C900D9340227B4E336837001342FC
:1002500006D0079B002B03D1784B1B68DBB20793BA
:1002600010223368134274D0089B002B02D16B46D6
:100270001B7B0BE06B4680201B7B0A9A00930421BA
:100280006F4B400001F040F903000A906D4A9B005B
:10029000116810AA9950039A6B48013292B213B2B6
:1002A000039302230168194201D0C046FAE7674B65
:1002B00003991960FF2D0BDC022C09D11F231A4072
:1002C00006D103996B1149115B1A012B00DC140054
:1002D0008023039A5B009A423BD1089AFF3B9B1A0A
:1002E000DBB20893002B02D1E5330A930993059BF7
:1002F00000240133DBB20593012B26D0022B26D13B
:1003000010ABE05801F0E8FA0023002201F0ACFA4B
:100310000F250CABED180123012800DC00232B7006
:10032000287800F05DFB280000F03EFB002801D19A
:10033000C046F8E780230434DB009C42E0D100246F
:1003400005940D940B94049401E0059B0B932500F8
:100350000394079B322B1AD140223368134216D0E4
:10036000364B1B6880235B009D4202D1002307931C
:100370000BE0213A2A4000D0FFE003996B114911AC
:100380005B1A012B00DCF8E007920224E6E6049BEE
:100390009D4200DBE2E6002C00D0DFE62A4C02237F
:1003A000002D28D122681A4201D0C046FAE7012266
:1003B000274B1A6092182168114201D0C046FAE713
:1003C0000B9A1A6002222168114201D0C046FAE756
:1003D0000C9A1A60022322681A4201D0C046FAE73A
:1003E0001A4B0B9A1A6040223B68134201D1C04657
:1003F000F9E7124B1B680223226802271A4201D038
:10040000C046F9E7124E089A37603B00002A4ED1E9
:1004100022681A4201D0C046FAE7FFAAAB00443274
:100420009B583360022322681A4213D0C046FAE771
:10043000BCEFFFFF080000500000045018000450FB
:10044000319F0000140004500400045024000450A4
:100450002800045081220CA91201AB0052189B58AD
:100460003360059B002B01D1023301E002230CE035
:1004700022681A4201D0C046FAE70222434B336099
:100480002168114249D0C046FAE722681A4201D0D9
:10049000C046FAE7AB0010AA9F58380000F0B8FE3B
:1004A0000223306022681A424CD0C046FAE780200E
:1004B000EBB20093099A364B0421400001F024F876
:1004C000099023683B4201D0C046FAE7099BFFAA86
:1004D0009B0044329B583360022322681A4201D0A9
:1004E000C046FAE7C1220CA91201AB0052189B5872
:1004F0003360059B002B01D1023301E002230EE0A3
:1005000022681A4201D0C046FAE702221F4B33602C
:100510002168114201D0C046FAE7336021E0226829
:100520001A4201D0C046FAE7099B10AA9B009F58C7
:10053000380000F06DFE0223306022681A4201D0BC
:10054000C046FAE7380001F0C7F9020080200B002E
:100550000006002101F05CF901F0C8F900F058FE36
:1005600030600135ABB21DB20124DB0600D0F5E5E9
:100570008022084BD2021A60F0E500230793049B07
:1005800000249D4200DA09E7E8E5C04649A7FFFFDD
:10059000319F000034000050034B10B5002B02D0F7
:1005A000024801F0ABFC10BD00000000159E0000E9
:1005B00010B5064C2378002B07D1054B002B02D039
:1005C000044800E000BF0123237010BD9CA301007C
:1005D00000000000509F0000084B10B5002B03D016
:1005E0000749084800E000BF07480368002B00D116
:1005F00010BD064B002BFBD09847F9E70000000028
:10060000A0A30100509F0000609F010000000000B7
:10061000164B002B00D1144B9D46402292029A1A91
:10062000924600218B460F461348144A121A01F0D5
:10063000A1FB0F4B002B00D098470E4B002B00D096
:1006400098470020002104000D000D48002802D02A
:100650000C4801F053FC01F02BFB20002900FFF7B0
:1006600061FDFFF74FFDC0460000080000000000DC
:1006700000000000000000009CA301004CA5010048
:10068000059E0000159E0000EFF30980001C7047D6
:1006900080F309887047EFF30880001C704780F3EF
:1006A00008887047EFF31080704780F31088704718
:1006B00000BA704740BA7047C0BA7047EFF3148071
:1006C000704780F314887047830702D180239B050D
:1006D000C1507047C30702D480239B05C1527047A5
:1006E00080239B05C15470470023820702D18023D9
:1006F0009B05C358180070470023C20702D480230B
:100700009B05C35A1800704780239B05C05C704747
:10071000830701D1014BC1507047C0460020002023
:100720000023820701D1024BC35818007047C0460E
:100730000020002010B5044C2360044B1A60044BC9
:100740001960044B186010BD0400035008000350EA
:100750000C0003501000035010B5044C2360044BF0
:100760001A60044B1960044B186010BD140003504C
:10077000180003501C0003502000035030B5040043
:100780000B48056800209D4210D10A4B01301B68C0
:1007900093420BD1084B01301B688B4206D1074BAB
:1007A0001B68181B431E98410423181A30BDC0460D
:1007B00024000350280003502C0003503000035045
:1007C000A023DB0518688003C00F70478022024B0E
:1007D00052021A607047C0462C0000508022024B23
:1007E00052021A607047C04630000050C046704741
:1007F0001622074BFF321A600022064B1A60064B86
:1008000003321A60054B1A60023A1A607047C046FC
:100810000C10004018100040141000400010004060
:1008200070B5444C2278D2B2012A3AD16378002BB9
:100830000DD1A378013BDBB2A370002B31D1802115
:100840003D4B4902196003236270A37029E0A3782D
:10085000013BDBB2A370002B23D1E178002917D133
:1008600023796179A079091A0B4180214902134249
:1008700001D0324B00E0304B19600323A370A37901
:10088000013BDBB2A371002B0BD10133E37008E015
:1008900080212A4A490211600322A270E37063702A
:1008A0002370E379002B44D1237A012B15D1637A8D
:1008B000013BDBB26372002B3BD121002372A37298
:1008C000A289A07B12B20F318854A289013212B2E0
:1008D000A281FF2A2DDDA3812BE0A37A002B0DD16D
:1008E000FFF76EFF002824D10123154AA3720333BA
:1008F000A0736372D37BDBB213741AE0637A013B9B
:10090000DBB26372002B14D103336372FFF758FF1D
:100910000B4AD17B157CA37B491B88401843C0B28E
:10092000A073137C013BDBB21374002B01D10133A4
:10093000237270BDB8A30100300000502C0000509D
:10094000B8A4010080218022C120104B490210B5BB
:1009500019600F4B92021A600E4B80001C580E4A11
:1009600022401A5040221A6000220C4B0C485A7048
:100970001A70DA709A721A72DA710832C2735A7186
:10098000084B1960FFF734FF10BDC0460800005047
:100990000C00005000E100E0FFFF00FFB8A30100E1
:1009A000B8A401002C0000500B4A0C4B30B5548AFF
:1009B0009D890021A5420DD0518A0F3309B25B5C9D
:1009C00001210370538A01331BB25382FF2B01DDD7
:1009D00000235382080030BDB8A40100B8A3010071
:1009E000064B1A78012AFCD003229A705A79D2B2A7
:1009F0009A71012218711A707047C046B8A301009D
:100A00000023024A9381024A53827047B8A301002F
:100A1000B8A40100054B064A988903B2508A00B277
:100A2000181A431E9841C0B27047C046B8A30100CF
:100A3000B8A401000022014BDA717047B8A301008D
:100A40000122014BDA717047B8A30100054B012167
:100A500018708023044A5B021360044A1160044A40
:100A600013607047CEA401002C0000500C00005011
:100A7000080000500122030000B513408DB001931F
:100A800002230340029304230340039308230340FB
:100A9000049310230340059320230340069340232F
:100AA000034007937F239843802308900992754A57
:100AB0005B0212780A93002A01D1C046E0E0724A34
:100AC000136000230B930B9B022B03DCC0460B9B94
:100AD0000133F7E7C046C0466C4B0198002805D0AB
:100AE000C046C046C0460A99196005E00A991160DF
:100AF000C046C046C046C046C04600210B910B9977
:100B0000022903DCC0460B990131F7E7C046029881
:100B1000002805D0C046C046C0460A99196005E0C5
:100B20000A991160C046C046C046C046C046002172
:100B30000B910B99022903DCC0460B990131F7E7B1
:100B4000C0460398002805D0C046C046C0460A9952
:100B5000196005E00A991160C046C046C046C0460B
:100B6000C04600210B910B99022903DCC0460B996A
:100B70000131F7E7C0460498002805D0C046C046BA
:100B8000C0460A99196005E00A991160C046C0463E
:100B9000C046C046C04600210B910B99022903DCD8
:100BA000C0460B990131F7E7C0460598002805D0EB
:100BB000C046C046C0460A99196005E00A9911600E
:100BC000C046C046C046C046C04600210B910B99A6
:100BD000022903DCC0460B990131F7E7C0460698AD
:100BE000002805D0C046C046C0460A99196005E0F5
:100BF0000A991160C046C046C046C046C0460021A2
:100C00000B910B99022903DCC0460B990131F7E7E0
:100C1000C0460798002805D0C046C046C0460A997D
:100C2000196005E00A991160C046C046C046C0463A
:100C3000C04600210B910B99022903DCC0460B9999
:100C40000131F7E7C0460898002805D0C046C046E5
:100C5000C0460A99196005E00A991160C046C0466D
:100C6000C046C046C04600220B920B9A022A03DC03
:100C7000C0460B9A0132F7E7C046802252021A6042
:100C80000DB000BDCEA40100300000502C0000507B
:100C9000F0B58B4B85B01B78002B01D1C046ECE042
:100CA000A0210122C9050B681340FCD10421854A0B
:100CB00011600393039B022B03DCC046039B0133AB
:100CC000F7E7C046C046C046C046C046C0460023FF
:100CD0000393039B022B03DCC046039B0133F7E71E
:100CE000C046C046A02301216A46DB051B680332CB
:100CF0000B4003D0C046C046117000E013700023C3
:100D00000393039B022B03DCC046039B0133F7E7ED
:100D1000C046C046A0230121DB051B6801AA0B4089
:100D200003D0C046C046117000E013700023039347
:100D3000039B022B03DCC046039B0133F7E7C0464D
:100D4000C046A02301216A46DB051B6805320B4023
:100D500003D0C046C046117000E013700023039317
:100D6000039B022B03DCC046039B0133F7E7C0461D
:100D7000C046A02301216A46DB051B6806320B40F2
:100D800003D0C046C046117000E0137000230393E7
:100D9000039B022B03DCC046039B0133F7E7C046ED
:100DA000C046A02301216A46DB051B6807320B40C1
:100DB00003D0C046C046117000E0137000230393B7
:100DC000039B022B03DCC046039B0133F7E7C046BD
:100DD000C046A0230121DB051B6802AA0B4003D0FB
:100DE000C046C046117000E0137000230393039BBC
:100DF000022B03DCC046039B0133F7E7C046C04625
:100E0000A02301210922DB051B686A440B4003D0A3
:100E1000C046C046117000E0137000230393039B8B
:100E2000022B03DCC046039B0133F7E7C046C046F4
:100E3000A02301210A22DB051B686A440B4003D072
:100E4000C046C046117000E0137000230393039B5B
:100E5000022B03DCC046039B0133F7E7C046C046C4
:100E6000A02301210B22DB051B686A440B4003D041
:100E7000C046C046117000E013706B46DF7801ABCE
:100E800018786B465E796B469D796B46DC7902ABD0
:100E9000197809236B441A780A23B60040003043BE
:100EA0003843ED006B44284324011B78204349015B
:100EB000084392011043DB011843C0B205B0F0BDF6
:100EC000CEA401003400005010B504000134631EAC
:100ED0001878002802D0FFF7CDFDF7E710BD10B558
:100EE00004000134631E1878002802D0FFF7C2FD09
:100EF000F7E70A30FFF7BEFD0D20FFF7BBFD10BD81
:100F0000F0B505AC277806AC257807AC2678012427
:100F10002540A54027402F430325BF0015403D43F2
:100F2000A54023402B43084D5A002B6821409B08C5
:100F300023401343A3401943A1402040034B0843DF
:100F400028601E60F0BDC046082000400C20004014
:100F50000421024A13680B431360704708200040C5
:100F60000421024A13688B43136070470820004035
:100F7000022304490A681A4201D0C046FAE7024B2C
:100F8000186070470420004000200040022310B584
:100F90000A490A68094C1A4001D0C046F9E7084BD3
:100FA0001A60013220680549104201D1C046F9E7B4
:100FB00001200A6802430A60186810BD042000403E
:100FC0000020004070B50600050000F085FC0022FE
:100FD000002300F049FC002800DC99E07D4BF61866
:100FE000300000F079FC0022002300F03DFC0028D6
:100FF00003DD80243500240401E080242402764BA4
:10100000EE18300000F068FC0022002300F02CFCF9
:10101000002801DD35002401704BEE18300000F08F
:101020005BFC0022002300F01FFC002801DD3500DE
:10103000A4006B4BEE18300000F04EFC00220023A1
:1010400000F012FC002801DD35006400654BEE184D
:10105000300000F041FC0022002300F005FC0028D5
:1010600002DD35006310E4185F4BEE18300000F02D
:1010700033FC0022002300F0F7FB002802DD3500DE
:10108000A310E418594BEE18300000F025FC0022A4
:10109000002300F0E9FB002802DD3500E310E4182E
:1010A000534BEE18300000F017FC0022002300F034
:1010B000DBFB002802DD35002311E4184D4BEE1850
:1010C000300000F009FC0022002300F0CDFB0028D6
:1010D00002DD35006311E4182E00FC3EFF3E3000B7
:1010E00000F0FAFB0022002300F0BEFB002802DD26
:1010F0003500A311E4182800FF3800F0EDFB0022B2
:10110000002300F0B1FB002862DDE311E4185FE08A
:10111000394BF518280000F0DFFB0022002300F017
:10112000A3FB012804DD2800FFF74CFF401050E02E
:10113000324BF518280000F0CFFB0022002300F00E
:1011400093FB012804DD2800FFF73CFF801040E0FE
:101150002B4BF518280000F0BFFB0022002300F005
:1011600083FB012804DD2800FFF72CFF001130E08D
:10117000244BF518280000F0AFFB0022002300F0FC
:1011800073FB012804DD2800FFF71CFF001220E09C
:101190001D4BF518280000F09FFB0022002300F0F3
:1011A00063FB012804DD2800FFF70CFF001310E0AB
:1011B000164BF618300000F08FFB0022002300F0E1
:1011C00053FB012804DD3000FFF7FCFEC01300E0F4
:1011D000200070BD373AFDFF1C9DFEFF8E4EFFFFC5
:1011E00049A7FFFF19CCFFFF72E3FFFFECF0FFFF01
:1011F0003FF8FFFF0FFCFFFFB758000072B100007F
:10120000E4620100C9C50200AD280400D732050020
:1012100070B505020400280000F05EFB8022002368
:10122000120600F021FB002802DC2C004A4D00E0F1
:1012300000252601300000F04FFB8022002312061B
:1012400000F012FB002802DC3400444BED18A6002D
:10125000300000F041FB80220023120600F004FB66
:10126000002802DC34003E4BED186600300000F030
:1012700033FB80220023120600F0F6FA002802DC7D
:101280003400384BED1866103619300000F024FB9E
:1012900080220023120600F0E7FA002802DC340066
:1012A000314BED18A6103619300000F015FB8022E6
:1012B0000023120600F0D8FA002802DC34002B4B81
:1012C000ED18E6103619300000F006FB80220023EE
:1012D000120600F0C9FA002802DC3400244BED1895
:1012E0002611A619300000F0F7FA8022002312061A
:1012F00000F0BAFA002802DC34001E4BED1866112B
:10130000A619300000F0E8FA80220023120600F04F
:10131000ABFA002802DC3400174BED18A611A61911
:10132000300000F0D9FA80220023120600F09CFA67
:10133000002802DC3400FC3DFF3DE011001900F004
:10134000CBFA80220023120600F08EFA002800DC7F
:10135000FF3D280070BDC046373AFDFF1C9DFEFFD3
:101360008E4EFFFF49A7FFFF19CCFFFF72E3FFFF7F
:10137000ECF0FFFF3FF8FFFF0FFCFFFF8022344B34
:10138000D202F0B51A600822324B01241A70043AD6
:101390009A700422DA7006229A720622DA72072202
:1013A00007250221002005275A73032204261D74F5
:1013B0001D195F711F72587018719C71DC71597220
:1013C00019739A73DA7358749A74D8741A755C75B1
:1013D0009975DC7519765C769976DC76197758778D
:1013E000EA775D18E8779D18EC771D1DEA77DD191F
:1013F000E9779D1DEE77DD1DEF770825AC469C440F
:1014000065460726EE772825AC469C4465460626A9
:101410002E702925AC469C4465462C701C002A344D
:10142000D877207018002B30017019002C319A7772
:101430000A701A002D3217701A0004212E32117012
:101440001A0006212F321170072230331A70F0BDB6
:1014500008000050D5A40100F7B501250024AC46D2
:10146000019101998C4212D061460A4E055D5B00E4
:10147000F3185D196E7C650077100F4057550E40CC
:1014800055196E70055D01345B195B78E9E718004A
:10149000FEBDC046D5A40100F7B515006A464B0055
:1014A0000733DB08DB00D21AD31A00AF95469D46FE
:1014B0000C003B60002306007A60FFF7CDFF6A4610
:1014C000E31DDB08DB00D31A9D463000694600F0BF
:1014D00026F83A68002321006846FFF7BDFF002286
:1014E000A2420ED078685300C05CD1186854786866
:1014F0000133C05C6918487038680132C35C8B7076
:10150000EEE7BD46F7BDC04610B502AC2478013900
:1015100021405B5C0138D2181040C0B210BDF7B555
:1015200001AC042206000D002000094900F0E4FB94
:1015300080200023E5220327400019003940615C28
:101540005218D2B2B15CE95401338342F5D1F7BDF0
:10155000359F0000F7B501AC042206000D00200005
:101560000B4900F0C9FB03270023E522190039408D
:10157000615C5218D2B2910089598C46604699003C
:1015800068508021013349008B42EFD1F7BDC0463E
:10159000359F0000F7B504220D000B4901AC8918F6
:1015A0000600200000F0A8FB80200023EE22032785
:1015B000400019003940615C5218D2B2B15CE95464
:1015C00001338342F5D1F7BD359F000040BF40BFD6
:1015D0007047802010B502498000FFF775F8FEE7DC
:1015E0002222222210B540BF8020044A04491368F9
:1015F000800001331360FFF767F8FEE708A50100DC
:101600003333333340BF054A0121536801335360FC
:10161000C023034A5B00D15040BF704708A50100BA
:1016200000E100E040BFC0230221044A5B00D1502A
:10163000034A9368013393607047C04600E100E0BD
:1016400008A5010040BF0422034BDA67034AD368B0
:101650000133D3607047C04604E100E008A50100F3
:1016600040BFC0230821044A5B00D150034A1369DC
:10167000013313617047C04600E100E008A5010096
:1016800040BF1022034BDA67034A536901335361A9
:101690007047C04604E100E008A5010040BFC02338
:1016A0002021044A5B00D150034A936901339361BE
:1016B0007047C04600E100E008A5010010B540BF3A
:1016C000C0234021074A5B00D150074AD369013348
:1016D000D361064B1A68D20703D500221A60FFF7C0
:1016E0009FF810BD00E100E008A5010004100040D3
:1016F00040BFC0238021044A5B00D150034A136AD3
:10170000013313627047C04600E100E008A5010004
:1017100040BF8021C023044A49005B00D150034AE6
:10172000536A01335362704700E100E008A50100ED
:1017300040BF8021C023044A89005B00D150034A86
:10174000936A01339362704700E100E008A501004D
:1017500040BF8021C023044AC9005B00D150034A26
:10176000D36A0133D362704700E100E008A50100AD
:1017700040BF8021C023044A09015B00D150034AC5
:10178000136B01331363704700E100E008A501000B
:1017900040BF8021C023044A49015B00D150034A65
:1017A000536B01335363704700E100E008A501006B
:1017B00040BF8021C023044A89015B00D150034A05
:1017C000936B01339363704700E100E008A50100CB
:1017D00040BF8021C023044AC9015B00D150034AA5
:1017E000D36B0133D363704700E100E008A501002B
:1017F00040BF8021C023044A09025B00D150034A44
:10180000136C01331364704700E100E008A5010088
:10181000801A99417047C04610B5002200F002F8C6
:1018200010BDC04630B5C41783B01F290ADD0023A0
:1018300001900093002A02D0684600F027F8009833
:1018400003B030BD20235B42CB1805D404009C407C
:10185000019488400090EDE7202305005B1ADD40ED
:101860008C402C430194F4E78B4206DC03D0994270
:1018700005DD022070478242F9D90020FAE799423B
:1018800001D19042F5D80120F4E7C04643680268D0
:10189000002B0BDC08D0591C0DDA80220123120624
:1018A0005B42026043607047002AFCDA0023054A6D
:1018B00002604360F7E70133F5D180231B069A42AB
:1018C000EBD3F0E7FFFFFF7F10B5002482B0009458
:1018D00000F012F802B010BD10B5C117040C0904D5
:1018E00002040C431000210010BDC0460B04000C84
:1018F00018437047C0037047F0B54D4644465F46F5
:101900005646F0B48BB004000D00029203930029F8
:1019100000DB77E0002544428D4101218B4603998D
:10192000002907DA00215042994101239C46029088
:101930000391E3446308EF071F436B109A46029834
:101940000399E607EC170B000200814688465046D3
:10195000210000F0A1F802000B0002980399049204
:1019600005930692079302000B005046210000F0F9
:1019700093F8402100208C46002100960197DC0F4F
:10198000A246019C92185B41002C03DA0124002539
:1019900012196B4100184941564604000D00002EF3
:1019A00004D198450AD801D1914507D802980399E6
:1019B000121A8B410120002100196941009E019FEC
:1019C00034003D00A4197D41009401950124644236
:1019D000A246D4446446002CD1D15B4608900991BC
:1019E000012B12D0149B002B03D008A906A800F0ED
:1019F00023F8089809990BB03CBC90469946A2463A
:101A0000AB46F0BD00218B4689E7002342428B4163
:101A1000089209931A4307D104980599002342427A
:101A20008B4106920793DDE70499059ACB43069311
:101A3000D3430793D6E7C046436810B50268002B2E
:101A400009DD00220023026043600122114B524253
:101A50000A604B6010BD002B01D1002AF1D11400A7
:101A60001C4313D0013206D1013304D180234A68CC
:101A70001B069A42EED201225242D3170260436003
:101A8000802300221B060A604B60E3E74B68002BB3
:101A9000E0DAD6E7FFFFFF7F002B11D1002A0FD13C
:101AA000002900D1002802D00021C943081C07B436
:101AB000024802A14018029003BDC0469D010000EB
:101AC00003B4684601B5029800F006F8019B9E46F3
:101AD00002B00CBC7047C046F0B54D465646444671
:101AE0005F46F0B4924683B004000D0099468B42E5
:101AF0002FD82CD04946504600F0B0F829000600F7
:101B0000200000F0ABF8331A9846203B9B4600D5E6
:101B100074E053465A4693401F0053464246934052
:101B20001E00AF4229D826D05B46A41BBD41002B26
:101B300000DA79E0002200230092019301235A4643
:101B400093400193012342469340009319E082425F
:101B5000D0D900220023009201930C9B002B01D0CE
:101B60001C605D600098019903B03CBC90469946AA
:101B7000A246AB46F0BDA342D6D900220023009274
:101B800001934346002BE8D0FB0772081A434646F0
:101B90007B080EE0AB4201D1A2420CD8A41A9D41B1
:101BA000012024196D410021013E24184D41002ED1
:101BB00006D0AB42EED9013E24196D41002EF8D17A
:101BC0005B460098019900196941002B22DB2B002C
:101BD0005A46D3402A004446E2401C005B461500AA
:101BE000002B2CDB26009E40330026004746BE40DB
:101BF0003200801A994100900191AEE742462023BD
:101C00009B1A5246DA40414613004A468A40170062
:101C10001F4382E7424620239B1A2A0046469A40E9
:101C20002300F3401343D5E74246202300219B1AAB
:101C30000022009101920122DA40019282E742469D
:101C4000202326009B1ADE402F00B44697406646AC
:101C50003B003343C9E7C0467047C04610B5002972
:101C600003D100F007F8203002E0081C00F002F871
:101C700010BDC0461C2101231B04984201D3000C57
:101C800010391B0A984201D3000A08391B099842EF
:101C900001D30009043902A2105C40187047C04605
:101CA0000403020201010101000000000000000025
:101CB00070B50D4E0D4D0024AD1BAD1005D0A30029
:101CC000F35801349847A542F9D1FEF715FA084EAA
:101CD000084D0024AD1BAD1005D0A300F35801340E
:101CE0009847A542F9D170BD549F0100549F01004F
:101CF000549F01005C9F010070B50F2A32D90C007F
:101D000004430B00A40731D115000400103D2D0938
:101D100001352D0149191E6826605E6866609E685F
:101D2000A660DE681033E66010349942F3D10F23C9
:101D300045191340032B1BD91C1F0023A408013491
:101D4000A400CE58EE5004339C42FAD103232D193F
:101D500009191A4005D00023CC5CEC5401339A4297
:101D6000FAD170BD0500002AF5D1FAE70500F2E7C7
:101D70001A00F8E770B583073FD0541E002A3BD005
:101D8000CEB20300032503E0621E002C34D0140001
:101D900001335A1E16702B42F6D1032C24D9FF258D
:101DA0000D402A0215432A0415430F2C11D9260091
:101DB000103E3609013636011A009B191560556030
:101DC0009560D56010329342F8D10F221440032C55
:101DD0000AD9261FB6080136B6001A009B1920C280
:101DE0009342FCD103221440002C05D0C9B21C1927
:101DF000197001339C42FBD170BD14000300CCE785
:101E0000F0B55F4656464D464446F0B40F00394B98
:101E100085B01B68019002934933FF330393A422DA
:101E2000029B52009E58002E4ED0039B9946C4231D
:101E30005B00984604339A467468B044A50075194F
:101E4000B244013C08D52DE06B1DFF331B689F4257
:101E500004D0043D013C25D3002FF5D173686A6896
:101E6000013BA34239D000236B60002AF1D0736894
:101E700041469B460123A340096819422BD0514695
:101E8000096819422BD12B008433196801989047B7
:101E900073685B45C3D14B461B68B342BFD1043D59
:101EA000013CD9D2144B002B0ED07368002B1BD1F0
:101EB0003368002B1CD04A463000136000E000BF9E
:101EC0004B461E68002EB2D105B03CBC90469946E8
:101ED000A246AB46F0BD9047DAE77460C5E72B0039
:101EE000843318689047D3E73368B1461E00E9E7AA
:101EF0000023FAE7449F00000000000010B5010035
:101F000000230022002000F01BF810BD70B5094B23
:101F1000094CE41AA41009D0084AA518AD00ED1820
:101F20002B68013C9847043D002CF9D100F074F86F
:101F300070BDC0465C9F0100609F0100FFFFFF3F36
:101F4000F8B544465F4656464D469B462F4BF0B487
:101F50001C68A4235B000500E0580E009046002892
:101F60004BD043681F2B0DDC5C1C002D21D10233AC
:101F70009B0044601E5000203CBC90469946A246FF
:101F8000AB46F8BD224B002B3CD0C820400000E0FF
:101F900000BF002836D0A42200235200A15843607D
:101FA0000160A05040328350043283500124002D40
:101FB000DDD09A0091468144424688214F467A50AE
:101FC000C4225200904680444246873999401268A4
:101FD0008A460A4394464246614611608422494635
:101FE0005F4652008F50022DC1D1020055468D32FE
:101FF000FF3211680D431560B9E720004D30FF3006
:10200000E050AEE701204042B6E7C046449F0000E2
:1020100000000000FEE7C04612D6C7C2B5271ADD91
:1020200016271ADD16D6C7C2B5000000430000000F
:04203000709F01009C
:0C203400F8B5C046F8BC08BC9E467047DA
:0C204000F8B5C046F8BC08BC9E467047CE
:08204C00D0E5FF7F0100000058
:042054000000000088
:102058000000000000000000000000005CA2010079
:10206800C4A201002CA30100000000000000000031
:102078000000000000000000000000000000000058
:10208800000000000000000000000000409F000069
:102098000000000000000000000000000000000038
:1020A8000000000000000000000000000000000028
:1020B8000000000000000000000000000000000018
:1020C8000000000000000000000000000000000008
:1020D80000000000000000000000000000000000F8
:1020E80000000000000000000000000000000000E8
:1020F80000000000000000000000000000000000D8
:1021080001000000000000000E33CDAB34126DE674
:10211800ECDE05000B0000000000000000000000DD
:1021280000000000000000000000000000000000A7
:102138000000000000000000000000000000000097
:102148000000000000000000000000000000000087
:102158000000000000000000000000000000000077
:04248800709F010040
:08248C00A1840000E1840000BE
:04249400B984000007
:042498000000000040
:04000003000000C336
:00000001FF
