:1000000000200020C3000000591A00005F1A000001
:1000100000000000000000000000000000000000E0
:10002000000000000000000000000000C10000000F
:100030000000000000000000C1000000711A000074
:10004000911A0000B11A0000D11A0000F11A000044
:10005000111B0000311B0000511B0000711B000030
:10006000911B0000B11B0000D11B0000F11B000020
:10007000111C0000311C0000511C0000711C00000C
:100080000000000000000000000000000000000070
:100090000000000000000000000000000000000060
:1000A0000000000000000000000000000000000050
:1000B0000000000000000000000000000000000040
:1000C000FEE7002370B50A480A490B4C1A188A4209
:1000D00003D2E55C01331570F8E70021074B084AAD
:1000E000934202D219700133FAE700F01DF870BD97
:1000F0000000002034040020AC2300004404002051
:10010000100600200000000010B50021040002F0DD
:1001100037F8044B1868C36B002B00D098472000B9
:1001200002F038F9BCA20000F0B5BD4CA54401F0C6
:1001300077FA0122BB4BA1211A600023C9000EAA45
:100140008918F822B84892009A1804338850202B56
:10015000F7D10026013B0A96099605930496069668
:10016000089607960122B14B1B68134204D0002E5B
:1001700002D1AF4B1B68DEB2012E1CD1AB4B1B680A
:1001800033425DD00F22AB4B1B681B0C1340012B7D
:1001900056D9A74BA8481A681B68D1B20C91022106
:1001A0000B9303680B4001D0C046FAE7A349D2B2D3
:1001B0000A601E0044E0022E42D101229B4B1B68C4
:1001C00013423DD09B4B0E321B681B0C1340032B7C
:1001D00036D902AB9C8A3032224093009C46674657
:1001E000934D10AB286829689201F9502B68944F01
:1001F00003930EABFF182D68BA180B9F0134039BB5
:1002000001970095A4B201F089FA23B20793330055
:1002100089490A6888481A4201D0C046F9E7322362
:100220000221864A136003680B4001D0C046FAE7FA
:1002300007991E001160E30602D10122814B1A606A
:10024000079B069A934236DD099B002B33D1079B0F
:10025000DB0630D1130020331BB2774D099302AB7C
:100260001B8A3F201900002201400901744F8818A1
:100270000EAC80003F19C0598446022728683842D6
:1002800001D0C046F9E767466F4801320760102A7F
:10029000ECD101331BB206930422644B1B6813425A
:1002A00001D1C046F8E7694B069A1B68099B934247
:1002B000D5D1012309935D4B1A6804231A4266D0F5
:1002C000049A1F2A63D8059A002A60D00F21594A40
:1002D0001268120D0A40072A59D90220049A5B4974
:1002E0002032D2B20D92049A540150AA141900225D
:1002F0004E4D2D681D4201D1C046F9E70D68A5504D
:10030000524D0432AC46202AF2D1049A4A4D0132B1
:10031000D2B204922A68484C024201D0C046F9E7A2
:10032000494A049D0D9F1560049D0F92BD42DAD18C
:100330000425059B1F3BDBB20E93059B5801002350
:100340003A490968294201D1C046F9E76146A1222C
:100350000968D20004910EAF1918BF18049A203909
:1003600004337A50202BEBD1059B013BDBB2059384
:1003700002222368134201D0C046F9E7059B0F9A79
:100380001360059B0E9A9342D7D10D9B0493274B84
:100390001B68DB0603D52E4B1B6800230A93049BC6
:1003A000202B00D0DEE6059B0A9A134300D0D9E645
:1003B0001F21A1223F2002AB1C8B0EAD2140D20099
:1003C0004901521950AD521869181D4D20400EAF09
:1003D0008300ED19800128180B9D01950C9D009557
:1003E00010AD5B5901F008FA089B134A002B11D19C
:1003F00002331168194201D0C046FAE7154B0C9937
:100400001960102309490968194201D1C046F9E76A
:100410000F4B1B680223116819421DD0C046FAE732
:10042000BCE6FFFF08000050D7F5FEFF00000450B7
:100430000C00045008000450040004501C00045038
:10044000080900003400005020000450100004503F
:100450001400045024000450164B0134A4B2186058
:1004600023B208930723234059424B411F21DBB29B
:100470000A93069B194006D108985B1140111B1A7C
:10048000012B00DC09911F2300211C4005918C42A7
:1004900001D105930494802308995B00994200D010
:1004A00060E680239B05136000230693089307935F
:1004B00058E6C04624000450034B10B5002B02D070
:1004C000024801F0DBFE10BD0000000095A1000015
:1004D00010B5064C2378002B07D1054B002B02D01A
:1004E000044800E000BF0123237010BD14A70100E1
:1004F00000000000C8A20000084B10B5002B03D07C
:100500000749084800E000BF07480368002B00D1F6
:1005100010BD064B002BFBD09847F9E70000000008
:1005200018A70100C8A20000D8A201000000000026
:10053000164B002B00D1144B9D46402292029A1A72
:10054000924600218B460F461348144A121A01F0B6
:10055000D1FD0F4B002B00D098470E4B002B00D045
:1005600098470020002104000D000D48002802D00B
:100570000C4801F083FE01F099FD20002900FFF7EF
:10058000D3FDFFF7C1FDC0460000080000000000D9
:10059000000000000000000014A70100E0A8010016
:1005A00085A1000095A10000EFF30980001C7047B1
:1005B00080F309887047EFF30880001C704780F3D0
:1005C00008887047EFF31080704780F310887047F9
:1005D00000BA704740BA7047C0BA7047EFF3148052
:1005E000704780F314887047830702D180239B05EE
:1005F000C1507047C30702D480239B05C152704786
:1006000080239B05C15470470023820702D18023B9
:100610009B05C358180070470023C20702D48023EB
:100620009B05C35A1800704780239B05C05C704728
:10063000830701D1014BC1507047C0460020002004
:100640000023820701D1024BC35818007047C046EF
:100650000020002010B5044C2360044B1A60044BAA
:100660001960044B186010BD0400035008000350CB
:100670000C0003501000035010B5044C2360044BD1
:100680001A60044B1960044B186010BD140003502D
:10069000180003501C0003502000035030B5040024
:1006A0000B48056800209D4210D10A4B01301B68A1
:1006B00093420BD1084B01301B688B4206D1074B8C
:1006C0001B68181B431E98410423181A30BDC046EE
:1006D00024000350280003502C0003503000035026
:1006E000A023DB0518688007C00F70470122014B6B
:1006F0001A6070472C0000500122014B1A607047AD
:1007000030000050C04670471622074BFF321A6077
:100710000022064B1A60064B03321A60054B1A6022
:10072000023A1A607047C0460C1000401810004092
:10073000141000400010004070B5414C2278D2B235
:10074000012A34D16378002B0BD1A378013BDBB2B3
:10075000A370002B2BD13B4B1A6003236270A37054
:1007600025E0A378013BDBB2A370002B1FD1E17819
:10077000002915D123796179A079091A0B41134217
:1007800001D0314B00E02F4B1A600323A370A379F3
:10079000013BDBB2A371002B09D10133E37006E00A
:1007A00029490A600322A270E37063702370E37921
:1007B000002B44D1237A012B15D1637A013BDBB2A4
:1007C0006372002B3BD121002372A372A289A07B0C
:1007D00012B20F318854A289013212B2A281FF2ACB
:1007E0002DDDA3812BE0A37A002B0DD1FFF778FF3D
:1007F000002824D10123154AA3720333A073637226
:10080000D37BDBB213741AE0637A013BDBB2637211
:10081000002B14D103336372FFF762FF0B4AD17BC5
:10082000157CA37B491B88401843C0B2A073137C7E
:10083000013BDBB21374002B01D10133237270BD75
:1008400030A70100300000502C00005030A80100FB
:1008500001210222C1200F4B10B519600E4B800000
:100860001A600E4B0E4A1C5822401A5040221A6041
:1008700000220C4B0C485A701A70DA709A721A7275
:10088000DA710832C2735A71084B1960FFF73CFFE6
:1008900010BDC046080000500C00005000E100E010
:1008A000FFFF00FF30A7010030A801002C0000501E
:1008B0000B4A0C4B30B5548A9D890021A5420DD0BE
:1008C000518A0F3309B25B5C01210370538A0133F3
:1008D0001BB25382FF2B01DD00235382080030BD81
:1008E00030A8010030A70100064B1A78012AFCD07D
:1008F00003229A705A79D2B29A71012218711A7031
:100900007047C04630A701000023024A9381024A83
:100910005382704730A7010030A80100054B064AFA
:10092000988903B2508A00B2181A431E9841C0B287
:100930007047C04630A7010030A801000022014BDB
:10094000DA71704730A701000122014BDA7170475C
:1009500030A70100054B022118700123044A1360DF
:10096000044A1160044A13607047C04646A801005B
:100970002C0000500C000050080000500121030022
:1009800000B50B408DB00193022303400293042372
:10099000034003930823034004931023034005936B
:1009A0002023034006934023034007937F2398436B
:1009B000754B08901A78754B09910A911960002AB5
:1009C00000D008E1C046C046C046C046C046C0464A
:1009D000C046C046C046C046C046C046C046C046E7
:1009E0006B4A0198002805D0C046C046C0460A9907
:1009F000116005E00A991960C046C046C046C0466D
:100A0000C046C046C046C046C046C046C046C046B6
:100A1000C046C046C046C046C046C046C046029812
:100A2000002805D0C046C046C0460A99116005E0BE
:100A30000A991960C046C046C046C046C046C04676
:100A4000C046C046C046C046C046C046C046C04676
:100A5000C046C046C046C046C0460398002805D0E0
:100A6000C046C046C0460A99116005E00A9919605F
:100A7000C046C046C046C046C046C046C046C04646
:100A8000C046C046C046C046C046C046C046C04636
:100A9000C046C046C0460498002805D0C046C0469F
:100AA000C0460A99116005E00A991960C046C0461F
:100AB000C046C046C046C046C046C046C046C04606
:100AC000C046C046C046C046C046C046C046C046F6
:100AD000C0460598002805D0C046C046C0460A99C1
:100AE000116005E00A991960C046C046C046C0467C
:100AF000C046C046C046C046C046C046C046C046C6
:100B0000C046C046C046C046C046C046C04606981D
:100B1000002805D0C046C046C0460A99116005E0CD
:100B20000A991960C046C046C046C046C046C04685
:100B3000C046C046C046C046C046C046C046C04685
:100B4000C046C046C046C046C0460798002805D0EB
:100B5000C046C046C0460A99116005E00A9919606E
:100B6000C046C046C046C046C046C046C046C04655
:100B7000C046C046C046C046C046C046C046C04645
:100B8000C046C046C04605E046A8010030000050FF
:100B90002C0000500898002805D0C046C046C0462A
:100BA0000A99116005E00A991960C046C046C0461E
:100BB000C046C046C046C046C046C046C046C04605
:100BC000C046C046C046C046C046C046C046C046F5
:100BD000C0461160DDE000220B920B9A022A03DC72
:100BE000C0460B9A0132F7E7C046C0466A4A0198F0
:100BF000002805D0C046C046C0460A99116005E0ED
:100C00000A991960C046C046C046C046C046002189
:100C10000B910B99022903DCC0460B990131F7E7D0
:100C2000C0460298002805D0C046C046C0460A9972
:100C3000116005E00A991960C046C046C046C0462A
:100C4000C04600210B910B99022903DCC0460B9989
:100C50000131F7E7C0460398002805D0C046C046DA
:100C6000C0460A99116005E00A991960C046C0465D
:100C7000C046C046C04600210B910B99022903DCF7
:100C8000C0460B990131F7E7C0460498002805D00B
:100C9000C046C046C0460A99116005E00A9919602D
:100CA000C046C046C046C046C04600210B910B99C5
:100CB000022903DCC0460B990131F7E7C0460598CD
:100CC000002805D0C046C046C0460A99116005E01C
:100CD0000A991960C046C046C046C046C0460021B9
:100CE0000B910B99022903DCC0460B990131F7E700
:100CF000C0460698002805D0C046C046C0460A999E
:100D0000116005E00A991960C046C046C046C04659
:100D1000C04600210B910B99022903DCC0460B99B8
:100D20000131F7E7C0460798002805D0C046C04605
:100D3000C0460A99116005E00A991960C046C0468C
:100D4000C046C046C04600210B910B99022903DC26
:100D5000C0460B990131F7E7C0460898002805D036
:100D6000C046C046C0460A99116005E00A9919605C
:100D7000C046C046C046C046C04600230B930B9BEE
:100D8000022B03DCC0460B9B0133F7E7C04601236F
:100D900013600DB000BDC0462C000050A022F0B57D
:100DA000984B85B01B78D205002B00D0DDE00233D4
:100DB00011681942FCD1C046C046C046C046C04674
:100DC000C046C046C046C046C046C046C046C046F3
:100DD000C046C046C046C046C046C046C046C046E3
:100DE000C046C046C046C046C046C046C046C046D3
:100DF000A023DB051A68022313406A460332002B46
:100E000002D0C046C04601231370C046C046C0464B
:100E1000C046C046C046C046C046C046C046C046A2
:100E2000A023DB051A680223134001AA002B02D07D
:100E3000C046C04601231370C046C046C046C046E7
:100E4000C046C046C046C046C046C046C046A023B5
:100E5000DB051A68022313406A460532002B02D0D4
:100E6000C046C04601231370C046C046C046C046B7
:100E7000C046C046C046C046C046C046C046A02385
:100E8000DB051A68022313406A460632002B02D0A3
:100E9000C046C04601231370C046C046C046C04687
:100EA000C046C046C046C046C046C046C046A02355
:100EB000DB051A68022313406A460732002B02D072
:100EC000C046C04601231370C046C046C046C04657
:100ED000C046C046C046C046C046C046C046A02325
:100EE000DB051A680223134002AA002B02D0C04679
:100EF000C04601231370C046C046C046C046C04627
:100F0000C046C046C046C046C046C046A023DB051A
:100F10001A680223134009226A44002B02D0C046FB
:100F2000C04601231370C046C046C046C046C046F6
:100F3000C046C046C046C046C046C046A023DB05EA
:100F40001A68022313400A226A44002B02D0C046CA
:100F5000C04601231370C046C046C046C046C046C6
:100F6000C046C046C046C046DFE0022113680B40C1
:100F7000FCD10421244A11600393039B022B03DC60
:100F8000C046039B0133F7E7C046C046C046C04693
:100F9000C046C04600230393039B022B03DCC046DC
:100FA000039B0133F7E7C046C046A023DB051A6860
:100FB000022313406A460332002B02D0C046C046CB
:100FC0000123137000230393039B022B03DCC04611
:100FD000039B0133F7E7C046C046A023DB051A6830
:100FE0000223134001AA002B02D0C046C0460123B1
:100FF000137000230393039B022B07DCC046039B63
:101000000133F7E746A8010034000050C046C0464F
:10101000A023DB051A68022313406A460532002B21
:1010200002D0C046C0460123137000230393039BE4
:10103000022B03DCC046039B0133F7E7C046C046E2
:10104000A023DB051A68022313406A460632002BF0
:1010500002D0C046C0460123137000230393039BB4
:10106000022B03DCC046039B0133F7E7C046C046B2
:10107000A023DB051A68022313406A460732002BBF
:1010800002D0C046C0460123137000230393039B84
:10109000022B03DCC046039B0133F7E7C046C04682
:1010A000A023DB051A680223134002AA002B02D0FA
:1010B000C046C0460123137000230393039B022BF9
:1010C00003DCC046039B0133F7E7C046C046A023BC
:1010D000DB051A680223134009226A44002B02D060
:1010E000C046C0460123137000230393039B022BC9
:1010F00003DCC046039B0133F7E7C046C046A0238C
:10110000DB051A68022313400A226A44002B02D02E
:10111000C046C0460123137000230393039B022B98
:1011200003DCC046039B0133F7E7C046C046A0235B
:10113000DB051A68022313400B226A44002B02D0FD
:10114000C046C046012313706B46DF7801AB1878A8
:101150006B465E796B469D796B46DC7902AB1978FC
:1011600009236B441A780A23B60040003043384301
:10117000ED006B44284324011B78204349010843B8
:1011800092011043DB011843C0B205B0F0BD10B5A9
:1011900004000134631E1878002802D0FFF7EEFB2C
:1011A000F7E710BD10B504000134631E187800285D
:1011B00002D0FFF7E3FBF7E70A30FFF7DFFB0D2074
:1011C000FFF7DCFB10BDC0460822014B1A607047D8
:1011D00000000350014B18687047C0460C000350D4
:1011E0000222084B1A60084B1960084B1860084B24
:1011F00008481B680360084B1B684360074B1B686B
:10120000836070470000035008000350040003503F
:101210000C00035050A801001000035014000350AC
:101220000622094B1A60094B1960094B1860094BDB
:1012300009481B680C300360084B1B684360084B6F
:101240001B6883607047C0460000035008000350CD
:10125000040003500C00035050A80100100003507C
:101260001400035070B50600050000F033FD0022A5
:10127000002300F015FD002800DC99E07D4BF618F6
:10128000300000F027FD0022002300F009FD0028B7
:1012900003DD80243500240401E080242402764B01
:1012A000EE18300000F016FD0022002300F0F8FCDC
:1012B000002801DD35002401704BEE18300000F0ED
:1012C00009FD0022002300F0EBFC002801DD3500C1
:1012D000A4006B4BEE18300000F0FCFC0022002351
:1012E00000F0DEFC002801DD35006400654BEE18DF
:1012F000300000F0EFFC0022002300F0D1FC0028B9
:1013000002DD35006310E4185F4BEE18300000F08A
:10131000E1FC0022002300F0C3FC002802DD3500C0
:10132000A310E418594BEE18300000F0D3FC002253
:10133000002300F0B5FC002802DD3500E310E418BE
:10134000534BEE18300000F0C5FC0022002300F0E3
:10135000A7FC002802DD35002311E4184D4BEE18E0
:10136000300000F0B7FC0022002300F099FC0028B8
:1013700002DD35006311E4182E00FC3EFF3E300014
:1013800000F0A8FC0022002300F08AFC002802DD07
:101390003500A311E4182800FF3800F09BFC002260
:1013A000002300F07DFC002862DDE311E4185FE01B
:1013B000394BF518280000F08DFC0022002300F0C6
:1013C0006FFC012804DD2800FFF74CFF401050E0BF
:1013D000324BF518280000F07DFC0022002300F0BD
:1013E0005FFC012804DD2800FFF73CFF801040E08F
:1013F0002B4BF518280000F06DFC0022002300F0B4
:101400004FFC012804DD2800FFF72CFF001130E01D
:10141000244BF518280000F05DFC0022002300F0AA
:101420003FFC012804DD2800FFF71CFF001220E02C
:101430001D4BF518280000F04DFC0022002300F0A1
:101440002FFC012804DD2800FFF70CFF001310E03B
:10145000164BF618300000F03DFC0022002300F08F
:101460001FFC012804DD3000FFF7FCFEC01300E084
:10147000200070BD373AFDFF1C9DFEFF8E4EFFFF22
:1014800049A7FFFF19CCFFFF72E3FFFFECF0FFFF5E
:101490003FF8FFFF0FFCFFFFB758000072B10000DC
:1014A000E4620100C9C50200AD280400D73205007E
:1014B00070B505020400280000F00CFC8022002317
:1014C000120600F0EDFB002802DC2C004A4D00E083
:1014D00000252601300000F0FDFB802200231206CB
:1014E00000F0DEFB002802DC3400444BED18A600BF
:1014F000300000F0EFFB80220023120600F0D0FB4A
:10150000002802DC34003E4BED186600300000F08D
:10151000E1FB80220023120600F0C2FB002802DC5F
:101520003400384BED1866103619300000F0D2FB4D
:1015300080220023120600F0B3FB002802DC3400F6
:10154000314BED18A6103619300000F0C3FB802295
:101550000023120600F0A4FB002802DC34002B4B11
:10156000ED18E6103619300000F0B4FB802200239D
:10157000120600F095FB002802DC3400244BED1825
:101580002611A619300000F0A5FB802200231206C8
:1015900000F086FB002802DC34001E4BED186611BB
:1015A000A619300000F096FB80220023120600F0FE
:1015B00077FB002802DC3400174BED18A611A619A2
:1015C000300000F087FB80220023120600F068FB49
:1015D000002802DC3400FC3DFF3DE011001900F062
:1015E00079FB80220023120600F05AFB002800DC61
:1015F000FF3D280070BDC046373AFDFF1C9DFEFF31
:101600008E4EFFFF49A7FFFF19CCFFFF72E3FFFFDC
:10161000ECF0FFFF3FF8FFFF0FFCFFFF00000000B2
:101620000621344B0822F0B5997206211A70043A4B
:101630009A700422D9720721DA700725012202204C
:10164000002405275973032104261D749D185F711A
:101650001F725C701C719A71DA71587218739973E9
:10166000D9735C749974DC7419755A759875DA7548
:1016700018765A769876DA7618775C779977E977DC
:101680001D18EC775D18EA771D1DE977DD19E877FD
:101690009D1DEE77DD1DEF770825AC469C44654621
:1016A0000726EE772825AC469C44654606262E7014
:1016B0002925AC469C4465462A702A25AC469C44A4
:1016C0006546DC772C701C002B34207018002C3001
:1016D000017019002D310F70190004202E3108708F
:1016E000190006202F310870072130331970024B82
:1016F0001A60F0BD68A801000800005070B50D0028
:10170000040000F0CBFA00F0E5FA0022002300F01C
:10171000C7FA002800DC2C00200070BDF0B58BB0AB
:101720000192119A089307920022109B059006914E
:10173000009209932A4B00991A78520091424DDA8F
:10174000009A284F9B1801225B7C274E58101040AE
:101750001A40042340000138029240B23B6000F07E
:10176000C7FA059B214A224D306013602B68214C3B
:1017700003932368049304233B60029B58000138C1
:1017800040B200F0B5FA069B184A3060136004229C
:101790002B6821683A60079A04983260039A5B04C8
:1017A0005204C00BC90B1943104300F071FA012217
:1017B0000E4B18602B6821685B04C90B1943009B12
:1017C00009989C00134200D0089800F061FA019B30
:1017D0001851009B0133DBB20093ABE70BB0F0BDB7
:1017E00068A80100000003500800035004000350E3
:1017F000100003500C000350F0B500260F008BB012
:10180000099310AB1B7804900593119B01920793E9
:10181000039602967E4B1B78B34200D8D9E0730042
:1018200006937B4B72009B180222987C9A560123E8
:101830000892042218404000764B01381A6040B2EA
:1018400000F056FA744B754D18600420099B7149DD
:101850000693069A724B1A60724B1A682B685204F0
:10186000DB0B0860134307986D4A6B4908601360EF
:101870006C4B059A1B682C685B04E40B1C43089BAB
:101880009B00002E15D13968012A09D1019AD05840
:1018900000F0FEF973000133049A9B00995804E0AC
:1018A000019AD05800F0F4F9210000F0F1F902900B
:1018B00024E0012A0BD10199B200C958D05900F097
:1018C000E7F973000133049A9B00995806E0019AE6
:1018D0002100D05800F0DCF9B300D95900F0D8F954
:1018E00001000400029800F0D9F900F0F3F9002299
:1018F000002300F0D5F9002800DC02940124444BB9
:1019000072009A18145772009B18587C0123042205
:10191000184040003F4B01381A6040B200F0E8F92F
:101920003D4B069A186004203D4B3A491A603D4BE6
:10193000A4001A682B685204DB0B08601343079855
:101940003549374A08601360364B1B682D685B04C5
:10195000ED0B1D43059B002E14D13968012B08D1D6
:10196000019B185900F094F97300049A9B00995850
:1019700004E0019B185900F08BF9290000F088F968
:10198000039023E0012B0AD1019AB3001159D859D1
:1019900000F07EF97300049A9B00995806E0019BC1
:1019A0002900185900F074F9B300D95900F070F902
:1019B00001000400039800F071F900F08BF9002297
:1019C000002300F06DF9002800DC0394731CDEB2E4
:1019D00020E70399029800F061F9040000F07AF919
:1019E0000022052306000F0000F05AF901280ADC46
:1019F000052300225B423000390000F051F9002835
:101A000003DC094C01E0A024E40220000BB0F0BD8F
:101A100068A8010000000350080003500C000350A8
:101A200004000350100003500000FBFF70B500F0ED
:101A300051F9084B064A0D00040000F02BF9020092
:101A40000B002000290000F03DF900F04DF970BDB9
:101A5000000000800000000040BF40BF70478020B1
:101A600010B502498000FEF7BFFDFEE722222222C8
:101A700010B540BF8020044A044913688000013338
:101A80001360FEF7B1FDFEE79CA80100333333334A
:101A900040BF054A0121536801335360C023034A04
:101AA0005B00D15040BF70479CA8010000E100E0FE
:101AB00040BFC0230221044A5B00D150034A93680F
:101AC000013393607047C04600E100E09CA801002C
:101AD00040BFC0230421044A5B00D150034AD368AD
:101AE0000133D3607047C04600E100E09CA80100CC
:101AF00040BFC0230821044A5B00D150034A136948
:101B0000013313617047C04600E100E09CA801006A
:101B100040BFC0231021044A5B00D150034A5369DF
:101B2000013353617047C04600E100E09CA801000A
:101B300040BFC0232021044A5B00D150034A93696F
:101B4000013393617047C04600E100E09CA80100AA
:101B500040BFC0234021044A5B00D150034AD369EF
:101B60000133D3617047C04600E100E09CA801004A
:101B700040BFC0238021044A5B00D150034A136A4E
:101B8000013313627047C04600E100E09CA80100E9
:101B900040BF8021C023044A49005B00D150034A62
:101BA000536A01335362704700E100E09CA80100D2
:101BB00040BF8021C023044A89005B00D150034A02
:101BC000936A01339362704700E100E09CA8010032
:101BD00040BF8021C023044AC9005B00D150034AA2
:101BE000D36A0133D362704700E100E09CA8010092
:101BF00040BF8021C023044A09015B00D150034A41
:101C0000136B01331363704700E100E09CA80100EF
:101C100040BF8021C023044A49015B00D150034AE0
:101C2000536B01335363704700E100E09CA801004F
:101C300040BF8021C023044A89015B00D150034A80
:101C4000936B01339363704700E100E09CA80100AF
:101C500040BF8021C023044AC9015B00D150034A20
:101C6000D36B0133D363704700E100E09CA801000F
:101C700040BF8021C023044A09025B00D150034ABF
:101C8000136C01331364704700E100E09CA801006D
:101C900008187047801859417047C046401A70476D
:101CA0008B4206DC03D0994205DD02207047824258
:101CB000F9D90020FAE7994201D19042F5D80120E4
:101CC000F4E7C04610B5002482B0009400F012F88A
:101CD00002B010BD10B5C117040C090402040C4376
:101CE0001000210010BDC0460B04000C18437047C3
:101CF000C0037047F0B54D4644465F465646F0B4C3
:101D00008BB004000D0002920393002900DB77E002
:101D1000002544428D4101218B460399002907DAB1
:101D200000215042994101239C4602900391E344D3
:101D30006308EF071F436B109A4602980399E60762
:101D4000EC170B000200814688465046210000F047
:101D5000A1F802000B0002980399049205930692E1
:101D6000079302000B005046210000F093F8402139
:101D700000208C46002100960197DC0FA246019CB2
:101D800092185B41002C03DA0124002512196B41E3
:101D900000184941564604000D00002E04D1984514
:101DA0000AD801D1914507D802980399121A8B419C
:101DB0000120002100196941009E019F34003D006F
:101DC000A4197D410094019501246442A246D444A3
:101DD0006446002CD1D15B4608900991012B12D0AA
:101DE000149B002B03D008A906A800F023F808983C
:101DF00009990BB03CBC90469946A246AB46F0BD53
:101E000000218B4689E7002342428B4108920993C7
:101E10001A4307D104980599002342428B41069248
:101E20000793DDE70499059ACB430693D3430793C1
:101E3000D6E7C046436810B50268002B09DD0022D2
:101E40000023026043600122114B52420A604B6042
:101E500010BD002B01D1002AF1D114001C4313D076
:101E6000013206D1013304D180234A681B069A420D
:101E7000EED201225242D317026043608023002237
:101E80001B060A604B60E3E74B68002BE0DAD6E7FD
:101E9000FFFFFF7F002B11D1002A0FD1002900D1B5
:101EA000002802D00021C943081C07B4024802A13F
:101EB0004018029003BDC0469D01000003B468466F
:101EC00001B5029800F006F8019B9E4602B00CBCDA
:101ED0007047C046F0B54D46564644465F46F0B49E
:101EE000924683B004000D0099468B422FD82CD027
:101EF0004946504600F0B0F829000600200000F0E6
:101F0000ABF8331A9846203B9B4600D574E0534605
:101F10005A4693401F005346424693401E00AF422C
:101F200029D826D05B46A41BBD41002B00DA79E0FE
:101F3000002200230092019301235A46934001930B
:101F4000012342469340009319E08242D0D90022F7
:101F50000023009201930C9B002B01D01C605D605C
:101F60000098019903B03CBC90469946A246AB4606
:101F7000F0BDA342D6D9002200230092019343462C
:101F8000002BE8D0FB0772081A4346467B080EE098
:101F9000AB4201D1A2420CD8A41A9D4101202419C0
:101FA0006D410021013E24184D41002E06D0AB4268
:101FB000EED9013E24196D41002EF8D15B46009800
:101FC000019900196941002B22DB2B005A46D340AE
:101FD0002A004446E2401C005B461500002B2CDB27
:101FE00026009E40330026004746BE403200801A3D
:101FF000994100900191AEE7424620239B1A524638
:10200000DA40414613004A468A4017001F4382E7E0
:10201000424620239B1A2A0046469A402300F3405A
:102020001343D5E74246202300219B1A002200914A
:1020300001920122DA40019282E7424620232600E3
:102040009B1ADE402F00B446974066463B00334360
:10205000C9E7C0467047C04610B5002903D100F05B
:1020600007F8203002E0081C00F002F810BDC0465E
:102070001C2101231B04984201D3000C10391B0AB8
:10208000984201D3000A08391B09984201D300097C
:10209000043902A2105C40187047C04604030202D3
:1020A00001010101000000000000000070B50D4EAC
:1020B0000D4D0024AD1BAD1005D0A300F358013425
:1020C0009847A542F9D1FEF717F8084E084D0024AD
:1020D000AD1BAD1005D0A300F35801349847A542BD
:1020E000F9D170BDCCA20100CCA20100CCA20100AC
:1020F000D4A2010070B583073FD0541E002A3BD004
:10210000CEB20300032503E0621E002C34D014007D
:1021100001335A1E16702B42F6D1032C24D9FF2509
:102120000D402A0215432A0415430F2C11D926000D
:10213000103E3609013636011A009B1915605560AC
:102140009560D56010329342F8D10F221440032CD1
:102150000AD9261FB6080136B6001A009B1920C2FC
:102160009342FCD103221440002C05D0C9B21C19A3
:10217000197001339C42FBD170BD14000300CCE701
:10218000F0B55F4656464D464446F0B40F00394B15
:1021900085B01B68019002934933FF330393A42257
:1021A000029B52009E58002E4ED0039B9946C4239A
:1021B0005B00984604339A467468B044A5007519CC
:1021C000B244013C08D52DE06B1DFF331B689F42D4
:1021D00004D0043D013C25D3002FF5D173686A6813
:1021E000013BA34239D000236B60002AF1D0736811
:1021F00041469B460123A340096819422BD0514612
:10220000096819422BD12B00843319680198904733
:1022100073685B45C3D14B461B68B342BFD1043DD5
:10222000013CD9D2144B002B0ED07368002B1BD16C
:102230003368002B1CD04A463000136000E000BF1A
:102240004B461E68002EB2D105B03CBC9046994664
:10225000A246AB46F0BD9047DAE77460C5E72B00B5
:10226000843318689047D3E73368B1461E00E9E726
:102270000023FAE7BCA200000000000010B5010036
:1022800000230022002000F01BF810BD70B5094BA0
:10229000094CE41AA41009D0084AA518AD00ED189D
:1022A0002B68013C9847043D002CF9D100F074F8EC
:1022B00070BDC046D4A20100D8A20100FFFFFF3FBD
:1022C000F8B544465F4656464D469B462F4BF0B404
:1022D0001C68A4235B000500E0580E00904600280F
:1022E0004BD043681F2B0DDC5C1C002D21D1023329
:1022F0009B0044601E5000203CBC90469946A2467C
:10230000AB46F8BD224B002B3CD0C820400000E07B
:1023100000BF002836D0A42200235200A1584360F9
:102320000160A05040328350043283500124002DBC
:10233000DDD09A0091468144424688214F467A502A
:10234000C422520090468044424687399940126820
:102350008A460A43944642466146116084224946B1
:102360005F4652008F50022DC1D1020055468D327A
:10237000FF3211680D431560B9E720004D30FF3082
:10238000E050AEE701204042B6E7C046BCA20000E4
:1023900000000000FEE7C04600D6C7C2B5271ADD20
:0C23A0001600000043000000E8A201004D
:0C23AC00F8B5C046F8BC08BC9E4670475F
:0C23B800F8B5C046F8BC08BC9E46704753
:0823C40078E1FF7F0100000039
:0423CC00000000000D
:1023D000000000000000000000000000D4A5010083
:1023E0003CA60100A4A601000000000000000000BF
:1023F00000000000000000000000000000000000DD
:10240000000000000000000000000000B8A2000072
:1024100000000000000000000000000000000000BC
:1024200000000000000000000000000000000000AC
:10243000000000000000000000000000000000009C
:10244000000000000000000000000000000000008C
:10245000000000000000000000000000000000007C
:10246000000000000000000000000000000000006C
:10247000000000000000000000000000000000005C
:1024800001000000000000000E33CDAB34126DE6F9
:10249000ECDE05000B000000000000000000000062
:1024A000000000000000000000000000000000002C
:1024B000000000000000000000000000000000001C
:1024C000000000000000000000000000000000000C
:1024D00000000000000000000000000000000000FC
:04280000E8A2010049
:08280400C18300000184000003
:04280C00D98300006C
:0428100000000000C4
:04000003000000C336
:00000001FF
