:1000000000200020C3000000191600001F16000089
:1000100000000000000000000000000000000000E0
:10002000000000000000000000000000C10000000F
:100030000000000000000000C100000031160000B8
:10004000511600007116000091160000B116000054
:10005000D1160000F1160000111700003117000042
:10006000511700007117000091170000B117000030
:10007000D1170000F117000011180000311800001E
:100080000000000000000000000000000000000070
:100090000000000000000000000000000000000060
:1000A0000000000000000000000000000000000050
:1000B0000000000000000000000000000000000040
:1000C000FEE7002370B50A480A490B4C1A188A4209
:1000D00003D2E55C01331570F8E70021074B084AAD
:1000E000934202D219700133FAE700F01BF870BD99
:1000F0000000002034040020901B00004404002075
:10010000F405002010B50021040001F02BFC044B85
:100110001868C36B002B00D09847200001F02CFD1D
:10012000A09A0000F0B5604CA54401F033F901221B
:100130005E4B1A600023F8225D4892009A1802A9CB
:1001400004338850202BF6D100230093009AFFAB94
:100150000C33002A0ED1574A0099DA6019609A6070
:100160005A60DA619A615A611A6180250022022080
:100170002D0109E000228021C900511859589950D9
:100180000432202AF7D1F0E74B4900238C464B4C30
:10019000402726683E4201D1C046F9E761468226E3
:1001A0000F68360102A97618B618F7500433402BB1
:1001B000EED1FF21009B01331940414B00911C6897
:1001C000044001D0C046FAE73E4B00994032196026
:1001D0000193AA42D8D1FFAD2C3580272E003F01D4
:1001E0008223310002AA1B019B1818193200203902
:1001F000403401F04BF92036BC42F1D1FE27F2AC7D
:1002000026003F0102ABFF183100320038002031D8
:1002100001F0A2F9202302AA5B42203E9B18403F36
:10022000B342F1D182220221120102ABD218002383
:1002300023480068084201D0C046F9E7180020387A
:100240002858019E04333060202BF1D140201B4BF5
:100250001B68034201D1C046F8E7174B20351B68E5
:10026000AA42E4D10222002315490968114201D0B3
:10027000C046F9E7E058019904330860202BF3D118
:1002800040210E4B1B680B4201D1C046F8E70A4BD8
:1002900002A91B6820235B42203C5B18A342E2D1E9
:1002A0000122094B1A6051E7D4EFFFFF080000500C
:1002B000D7F5FEFF0000C0FF1800045000000450F6
:1002C000040004502800045034000050034B10B5C3
:1002D000002B02D0024801F0C3FB10BD000000005B
:1002E0007999000010B5064C2378002B07D1054BF7
:1002F000002B02D0044800E000BF0123237010BD92
:10030000F49E010000000000AC9A0000084B10B5FC
:10031000002B03D00749084800E000BF07480368E6
:10032000002B00D110BD064B002BFBD09847F9E7FE
:1003300000000000F89E0100AC9A0000BC9A010089
:1003400000000000164B002B00D1144B9D464022AC
:1003500092029A1A924600218B460F461348144A7D
:10036000121A01F0B9FA0F4B002B00D098470E4B30
:10037000002B00D098470020002104000D000D48FC
:10038000002802D00C4801F06BFB01F081FA20003C
:100390002900FFF7C7FEFFF7B5FEC04600000800C2
:1003A000000000000000000000000000F49E0100BA
:1003B000A4A001006999000079990000EFF3098079
:1003C000001C704780F309887047EFF30880001C19
:1003D000704780F308887047EFF31080704780F310
:1003E0001088704700BA704740BA7047C0BA70476B
:1003F000EFF31480704780F314887047830702D1AD
:1004000080239B05C1507047C30702D480239B05FE
:10041000C152704780239B05C15470470023820757
:1004200002D180239B05C358180070470023C207E0
:1004300002D480239B05C35A1800704780239B0574
:10044000C05C7047830701D1014BC1507047C04663
:10045000002000200023820701D1024BC35818005E
:100460007047C0460020002010B5044C2360044BA8
:100470001A60044B1960044B186010BD040003504F
:10048000080003500C0003501000035010B5044C3A
:100490002360044B1A60044B1960044B186010BDB4
:1004A00014000350180003501C0003502000035098
:1004B00030B504000B48056800209D4210D10A4B5E
:1004C00001301B6893420BD1084B01301B688B42F3
:1004D00006D1074B1B68181B431E98410423181AAA
:1004E00030BDC04624000350280003502C000350A8
:1004F00030000350A023DB0518688007C00F704749
:100500000122014B1A6070472C0000500122014B60
:100510001A60704730000050C04670471622074BE3
:10052000FF321A600022064B1A60064B03321A6033
:10053000054B1A60023A1A607047C0460C10004022
:1005400018100040141000400010004070B5414CDD
:100550002278D2B2012A34D16378002B0BD1A37850
:10056000013BDBB2A370002B2BD13B4B1A60032362
:100570006270A37025E0A378013BDBB2A370002B6F
:100580001FD1E178002915D123796179A079091A61
:100590000B41134201D0314B00E02F4B1A60032373
:1005A000A370A379013BDBB2A371002B09D1013306
:1005B000E37006E029490A600322A270E3706370C9
:1005C0002370E379002B44D1237A012B15D1637A70
:1005D000013BDBB26372002B3BD121002372A3727B
:1005E000A289A07B12B20F318854A289013212B2C3
:1005F000A281FF2A2DDDA3812BE0A37A002B0DD150
:10060000FFF778FF002824D10123154AA372033392
:10061000A0736372D37BDBB213741AE0637A013B7D
:10062000DBB26372002B14D103336372FFF762FFF6
:100630000B4AD17B157CA37B491B88401843C0B271
:10064000A073137C013BDBB21374002B01D1013387
:10065000237270BD109F0100300000502C0000502C
:1006600010A0010001210222C1200F4B10B519601A
:100670000E4B80001A600E4B0E4A1C5822401A5036
:1006800040221A6000220C4B0C485A701A70DA7023
:100690009A721A72DA710832C2735A71084B196071
:1006A000FFF73CFF10BDC046080000500C00005092
:1006B00000E100E0FFFF00FF109F010010A001001B
:1006C0002C0000500B4A0C4B30B5548A9D890021F8
:1006D000A5420DD0518A0F3309B25B5C0121037032
:1006E000538A01331BB25382FF2B01DD0023538257
:1006F000080030BD10A00100109F0100064B1A78C1
:10070000012AFCD003229A705A79D2B29A7101223E
:1007100018711A707047C046109F01000023024AEA
:100720009381024A53827047109F010010A001007C
:10073000054B064A988903B2508A00B2181A431E24
:100740009841C0B27047C046109F010010A0010040
:100750000022014BDA717047109F01000122014B0A
:10076000DA717047109F0100054B022118700123B8
:10077000044A1360044A1160044A13607047C0467B
:1007800026A001002C0000500C0000500800005072
:100790000121030000B50B408DB0019302230340FB
:1007A000029304230340039308230340049310237C
:1007B00003400593202303400693402303400793FF
:1007C0007F239843754B08901A78754B09910A91CD
:1007D0001960002A00D008E1C046C046C046C046A5
:1007E000C046C046C046C046C046C046C046C046D9
:1007F000C046C0466B4A0198002805D0C046C04696
:10080000C0460A99116005E00A991960C046C046C1
:10081000C046C046C046C046C046C046C046C046A8
:10082000C046C046C046C046C046C046C046C04698
:10083000C0460298002805D0C046C046C0460A9966
:10084000116005E00A991960C046C046C046C0461E
:10085000C046C046C046C046C046C046C046C04668
:10086000C046C046C046C046C046C046C0460398C3
:10087000002805D0C046C046C0460A99116005E070
:100880000A991960C046C046C046C046C046C04628
:10089000C046C046C046C046C046C046C046C04628
:1008A000C046C046C046C046C0460498002805D091
:1008B000C046C046C0460A99116005E00A99196011
:1008C000C046C046C046C046C046C046C046C046F8
:1008D000C046C046C046C046C046C046C046C046E8
:1008E000C046C046C0460598002805D0C046C04650
:1008F000C0460A99116005E00A991960C046C046D1
:10090000C046C046C046C046C046C046C046C046B7
:10091000C046C046C046C046C046C046C046C046A7
:10092000C0460698002805D0C046C046C0460A9971
:10093000116005E00A991960C046C046C046C0462D
:10094000C046C046C046C046C046C046C046C04677
:10095000C046C046C046C046C046C046C0460798CE
:10096000002805D0C046C046C0460A99116005E07F
:100970000A991960C046C046C046C046C046C04637
:10098000C046C046C046C046C046C046C046C04637
:10099000C046C046C046C046C04605E026A001008D
:1009A000300000502C0000500898002805D0C046A8
:1009B000C046C0460A99116005E00A991960C04610
:1009C000C046C046C046C046C046C046C046C046F7
:1009D000C046C046C046C046C046C046C046C046E7
:1009E000C046C046C0461160DDE000220B920B9A63
:1009F000022A03DCC0460B9A0132F7E7C046C04624
:100A00006A4A0198002805D0C046C046C0460A99E7
:100A1000116005E00A991960C046C046C046C0464C
:100A2000C04600210B910B99022903DCC0460B99AB
:100A30000131F7E7C0460298002805D0C046C046FD
:100A4000C0460A99116005E00A991960C046C0467F
:100A5000C046C046C04600210B910B99022903DC19
:100A6000C0460B990131F7E7C0460398002805D02E
:100A7000C046C046C0460A99116005E00A9919604F
:100A8000C046C046C046C046C04600210B910B99E7
:100A9000022903DCC0460B990131F7E7C0460498F0
:100AA000002805D0C046C046C0460A99116005E03E
:100AB0000A991960C046C046C046C046C0460021DB
:100AC0000B910B99022903DCC0460B990131F7E722
:100AD000C0460598002805D0C046C046C0460A99C1
:100AE000116005E00A991960C046C046C046C0467C
:100AF000C04600210B910B99022903DCC0460B99DB
:100B00000131F7E7C0460698002805D0C046C04628
:100B1000C0460A99116005E00A991960C046C046AE
:100B2000C046C046C04600210B910B99022903DC48
:100B3000C0460B990131F7E7C0460798002805D059
:100B4000C046C046C0460A99116005E00A9919607E
:100B5000C046C046C046C046C04600210B910B9916
:100B6000022903DCC0460B990131F7E7C04608981B
:100B7000002805D0C046C046C0460A99116005E06D
:100B80000A991960C046C046C046C046C046002308
:100B90000B930B9B022B03DCC0460B9B0133F7E747
:100BA000C046012313600DB000BDC0462C000050AC
:100BB000A022F0B5984B85B01B78D205002B00D051
:100BC000DDE0023311681942FCD1C046C046C04680
:100BD000C046C046C046C046C046C046C046C046E5
:100BE000C046C046C046C046C046C046C046C046D5
:100BF000C046C046C046C046C046C046C046C046C5
:100C0000C046C046A023DB051A68022313406A468B
:100C10000332002B02D0C046C04601231370C046E9
:100C2000C046C046C046C046C046C046C046C04694
:100C3000C046C046A023DB051A680223134001AA60
:100C4000002B02D0C046C04601231370C046C046E8
:100C5000C046C046C046C046C046C046C046C04664
:100C6000C046A023DB051A68022313406A460532FA
:100C7000002B02D0C046C04601231370C046C046B8
:100C8000C046C046C046C046C046C046C046C04634
:100C9000C046A023DB051A68022313406A460632C9
:100CA000002B02D0C046C04601231370C046C04688
:100CB000C046C046C046C046C046C046C046C04604
:100CC000C046A023DB051A68022313406A46073298
:100CD000002B02D0C046C04601231370C046C04658
:100CE000C046C046C046C046C046C046C046C046D4
:100CF000C046A023DB051A680223134002AA002B7A
:100D000002D0C046C04601231370C046C046C0464C
:100D1000C046C046C046C046C046C046C046C046A3
:100D2000A023DB051A680223134009226A44002B22
:100D300002D0C046C04601231370C046C046C0461C
:100D4000C046C046C046C046C046C046C046C04673
:100D5000A023DB051A68022313400A226A44002BF1
:100D600002D0C046C04601231370C046C046C046EC
:100D7000C046C046C046C046C046C046DFE002216D
:100D800013680B40FCD10421244A11600393039B98
:100D9000022B03DCC046039B0133F7E7C046C04685
:100DA000C046C046C046C04600230393039B022BA7
:100DB00003DCC046039B0133F7E7C046C046A023CF
:100DC000DB051A68022313406A460332002B02D067
:100DD000C046C0460123137000230393039B022BDC
:100DE00003DCC046039B0133F7E7C046C046A0239F
:100DF000DB051A680223134001AA002B02D0C0466B
:100E0000C0460123137000230393039B022B07DCCE
:100E1000C046039B0133F7E726A0010034000050D1
:100E2000C046C046A023DB051A68022313406A4669
:100E30000532002B02D0C046C046012313700023A8
:100E40000393039B022B03DCC046039B0133F7E7AC
:100E5000C046C046A023DB051A68022313406A4639
:100E60000632002B02D0C046C04601231370002377
:100E70000393039B022B03DCC046039B0133F7E77C
:100E8000C046C046A023DB051A68022313406A4609
:100E90000732002B02D0C046C04601231370002346
:100EA0000393039B022B03DCC046039B0133F7E74C
:100EB000C046C046A023DB051A680223134002AADD
:100EC000002B02D0C046C0460123137000230393B9
:100ED000039B022B03DCC046039B0133F7E7C046AC
:100EE000C046A023DB051A680223134009226A4486
:100EF000002B02D0C046C046012313700023039389
:100F0000039B022B03DCC046039B0133F7E7C0467B
:100F1000C046A023DB051A68022313400A226A4454
:100F2000002B02D0C046C046012313700023039358
:100F3000039B022B03DCC046039B0133F7E7C0464B
:100F4000C046A023DB051A68022313400B226A4423
:100F5000002B02D0C046C046012313706B46DF78D9
:100F600001AB18786B465E796B469D796B46DC79F0
:100F700002AB197809236B441A780A23B6004000A3
:100F800030433843ED006B44284324011B78204351
:100F90004901084392011043DB011843C0B205B078
:100FA000F0BD10B504000134631E1878002802D08B
:100FB000FFF7EEFBF7E710BD10B504000134631E28
:100FC0001878002802D0FFF7E3FBF7E70A30FFF7B5
:100FD000DFFB0D20FFF7DCFB10BDC04670B506003F
:100FE000050000F04BFC0022002300F035FC002837
:100FF00000DC99E07D4BF618300000F03FFC002249
:10100000002300F029FC002803DD8024350024049F
:1010100001E080242402764BEE18300000F02EFC14
:101020000022002300F018FC002801DD3500240117
:10103000704BEE18300000F021FC0022002300F07D
:101040000BFC002801DD3500A4006B4BEE183000CE
:1010500000F014FC0022002300F0FEFB002801DD5C
:1010600035006400654BEE18300000F007FC0022EC
:10107000002300F0F1FB002802DD35006310E418C6
:101080005F4BEE18300000F0F9FB0022002300F067
:10109000E3FB002802DD3500A310E418594BEE18DD
:1010A000300000F0EBFB0022002300F0D5FB00280D
:1010B00002DD3500E310E418534BEE18300000F069
:1010C000DDFB0022002300F0C7FB002802DD350015
:1010D0002311E4184D4BEE18300000F0CFFB002236
:1010E000002300F0B9FB002802DD35006311E4188D
:1010F0002E00FC3EFF3E300000F0C0FB002200232B
:1011000000F0AAFB002802DD3500A311E418280036
:10111000FF3800F0B3FB0022002300F09DFB002805
:1011200062DDE311E4185FE0394BF518280000F0A8
:10113000A5FB0022002300F08FFB012804DD28001E
:10114000FFF74CFF401050E0324BF518280000F03C
:1011500095FB0022002300F07FFB012804DD28001E
:10116000FFF73CFF801040E02B4BF518280000F003
:1011700085FB0022002300F06FFB012804DD28001E
:10118000FFF72CFF001130E0244BF518280000F089
:1011900075FB0022002300F05FFB012804DD28001E
:1011A000FFF71CFF001220E01D4BF518280000F08F
:1011B00065FB0022002300F04FFB012804DD28001E
:1011C000FFF70CFF001310E0164BF618300000F08C
:1011D00055FB0022002300F03FFB012804DD300016
:1011E000FFF7FCFEC01300E0200070BD373AFDFFA2
:1011F0001C9DFEFF8E4EFFFF49A7FFFF19CCFFFF8E
:1012000072E3FFFFECF0FFFF3FF8FFFF0FFCFFFF73
:10121000B758000072B10000E4620100C9C50200C5
:10122000AD280400D732050070B50502040028007F
:1012300000F024FB80220023120600F00DFB0028A2
:1012400002DC2C004A4D00E000252601300000F0B1
:1012500015FB80220023120600F0FEFA002802DCB3
:101260003400444BED18A600300000F007FB80224C
:101270000023120600F0F0FA002802DC34003E4B96
:10128000ED186600300000F0F9FA80220023120603
:1012900000F0E2FA002802DC3400384BED1866104A
:1012A0003619300000F0EAFA80220023120600F01E
:1012B000D3FA002802DC3400314BED18A6103619A1
:1012C000300000F0DBFA80220023120600F0C4FA9E
:1012D000002802DC34002B4BED18E61036193000E4
:1012E00000F0CCFA80220023120600F0B5FA0028A4
:1012F00002DC3400244BED182611A619300000F052
:10130000BDFA80220023120600F0A6FA002802DCB3
:1013100034001E4BED186611A619300000F0AEFA2D
:1013200080220023120600F097FA002802DC340025
:10133000174BED18A611A619300000F09FFA802275
:101340000023120600F088FA002802DC3400FC3D7D
:10135000FF3DE011001900F091FA802200231206EF
:1013600000F07AFA002800DCFF3D280070BDC0467E
:10137000373AFDFF1C9DFEFF8E4EFFFF49A7FFFF82
:1013800019CCFFFF72E3FFFFECF0FFFF3FF8FFFF18
:101390000FFCFFFF0621334B0822F0B5997206219E
:1013A0001A70043A9A70D972042207210725022084
:1013B00000240527DA7059730122032104261D74C5
:1013C000294D5F711F725C701C719A71DA715872CD
:1013D00018739973D9732A609D185C749974DC74BE
:1013E00019755A759875DA7518765A769876DA7688
:1013F00018775C77E9771D18EC775D18EA771D1D83
:10140000E977DD19E8779D1DEE77DD1DEF7708257B
:10141000AC469C4465460726EE772825AC469C449E
:10142000654606262E702925AC469C4465462A70E2
:101430001A002A3214701A002B3210701A002C3243
:1014400011701A002D3217701A0099772E3201315F
:1014500011701A0006212F3211700722DC77303309
:101460001A70F0BD2DA001000800005070B50D00ED
:10147000040000F0EFF900F001FA0022002300F070
:10148000EBF9002800DC2C00200070BDF0B5002432
:10149000270087B00190029103922E4B2D4E1B78AE
:1014A000A34244D9039AA300D31805932300294AE1
:1014B00010335B00D3185B780299DA009B0059580F
:1014C000019BD05800F0C4F9224A6300D3180333BB
:1014D000DB7F0299DA009B005958019B043204908B
:1014E0000500D05800F0B4F901000600049800F09F
:1014F000B1F900F0C3F90022002300F0ADF9002893
:1015000000DC3500059B29001D60002C0BD0380045
:1015100000F0A0F900F0B2F90022002300F09CF9DD
:10152000002800DD3D000134E4B22F00B5E70024BF
:101530003D003378A3420AD9039BA700DF1938681E
:10154000290000F087F901343860E4B2F1E707B010
:10155000F0BDC0462DA00100F0B50024260087B0E4
:101560000090019102922B4B2A4D1B78A3423FD948
:10157000029AA300D3180593264B6700DB19009A43
:10158000E50003935B785159019A9B00985800F04D
:101590005FF9039B009A9B785519019A9B00696833
:1015A00004900700985800F053F9010005000498D2
:1015B00000F050F900F062F90022002300F04CF92D
:1015C000002800DC2F00059B39001F60002C0BD089
:1015D000300000F03FF900F051F90022002300F044
:1015E0003BF9002800DD37000134E4B23E00BAE7E1
:1015F00000242B78A3420AD9029BA700DF19386880
:10160000310000F027F901343860E4B2F1E707B0A7
:10161000F0BDC0462DA0010040BF40BF70478020F4
:1016200010B502498000FEF7E9FEFEE722222222E1
:1016300010B540BF8020044A04491368800001337C
:101640001360FEF7DBFEFEE760A0010033333333A7
:1016500040BF054A0121536801335360C023034A48
:101660005B00D15040BF704760A0010000E100E086
:1016700040BFC0230221044A5B00D150034A936853
:10168000013393607047C04600E100E060A00100B4
:1016900040BFC0230421044A5B00D150034AD368F1
:1016A0000133D3607047C04600E100E060A0010054
:1016B00040BFC0230821044A5B00D150034A13698C
:1016C000013313617047C04600E100E060A00100F3
:1016D00040BFC0231021044A5B00D150034A536924
:1016E000013353617047C04600E100E060A0010093
:1016F00040BFC0232021044A5B00D150034A9369B4
:10170000013393617047C04600E100E060A0010032
:1017100040BFC0234021044A5B00D150034AD36933
:101720000133D3617047C04600E100E060A00100D2
:1017300040BFC0238021044A5B00D150034A136A92
:10174000013313627047C04600E100E060A0010071
:1017500040BF8021C023044A49005B00D150034AA6
:10176000536A01335362704700E100E060A001005A
:1017700040BF8021C023044A89005B00D150034A46
:10178000936A01339362704700E100E060A00100BA
:1017900040BF8021C023044AC9005B00D150034AE6
:1017A000D36A0133D362704700E100E060A001001A
:1017B00040BF8021C023044A09015B00D150034A85
:1017C000136B01331363704700E100E060A0010078
:1017D00040BF8021C023044A49015B00D150034A25
:1017E000536B01335363704700E100E060A00100D8
:1017F00040BF8021C023044A89015B00D150034AC5
:10180000936B01339363704700E100E060A0010037
:1018100040BF8021C023044AC9015B00D150034A64
:10182000D36B0133D363704700E100E060A0010097
:1018300040BF8021C023044A09025B00D150034A03
:10184000136C01331364704700E100E060A00100F5
:1018500008187047401A70478B4206DC03D0994243
:1018600005DD022070478242F9D90020FAE799424B
:1018700001D19042F5D80120F4E7C04610B5C11758
:10188000040C090402040C431000210010BDC046E2
:1018900070B50D4E0D4D0024AD1BAD1005D0A3004D
:1018A000F35801349847A542F9D1FEF725FC084EBC
:1018B000084D0024AD1BAD1005D0A300F358013432
:1018C0009847A542F9D170BDB09A0100B09A0100C5
:1018D000B09A0100B89A010070B583073FD0541E3A
:1018E000002A3BD0CEB20300032503E0621E002C89
:1018F00034D0140001335A1E16702B42F6D1032C3B
:1019000024D9FF250D402A0215432A0415430F2C24
:1019100011D92600103E3609013636011A009B19EE
:10192000156055609560D56010329342F8D10F2252
:101930001440032C0AD9261FB6080136B6001A0037
:101940009B1920C29342FCD103221440002C05D0E5
:10195000C9B21C19197001339C42FBD170BD14002F
:101960000300CCE7F0B55F4656464D464446F0B41A
:101970000F00394B85B01B68019002934933FF3348
:101980000393A422029B52009E58002E4ED0039B2C
:101990009946C4235B00984604339A467468B04461
:1019A000A5007519B244013C08D52DE06B1DFF332D
:1019B0001B689F4204D0043D013C25D3002FF5D184
:1019C00073686A68013BA34239D000236B60002A28
:1019D000F1D0736841469B460123A3400968194230
:1019E0002BD05146096819422BD12B00843319683A
:1019F0000198904773685B45C3D14B461B68B3425F
:101A0000BFD1043D013CD9D2144B002B0ED07368DA
:101A1000002B1BD13368002B1CD04A4630001360CA
:101A200000E000BF4B461E68002EB2D105B03CBCA2
:101A300090469946A246AB46F0BD9047DAE77460FF
:101A4000C5E72B00843318689047D3E73368B14665
:101A50001E00E9E70023FAE7A09A0000000000005A
:101A600010B5010000230022002000F01BF810BD7B
:101A700070B5094B094CE41AA41009D0084AA518FE
:101A8000AD00ED182B68013C9847043D002CF9D1BE
:101A900000F074F870BDC046B89A0100BC9A01000D
:101AA000FFFFFF3FF8B544465F4656464D469B460E
:101AB0002F4BF0B41C68A4235B000500E0580E0017
:101AC000904600284BD043681F2B0DDC5C1C002D7A
:101AD00021D102339B0044601E5000203CBC904644
:101AE0009946A246AB46F8BD224B002B3CD0C820FD
:101AF000400000E000BF002836D0A422002352009E
:101B0000A15843600160A05040328350043283509A
:101B10000124002DDDD09A0091468144424688215F
:101B20004F467A50C422520090468044424687393C
:101B3000994012688A460A439446424661461160BB
:101B4000842249465F4652008F50022DC1D10200C7
:101B500055468D32FF3211680D431560B9E72000FC
:101B60004D30FF30E050AEE701204042B6E7C046BE
:101B7000A09A000000000000FEE7C04600D6C7C2E1
:101B8000B5271ADD1600000043000000C89A0100C6
:0C1B9000F8B5C046F8BC08BC9E46704783
:0C1B9C00F8B5C046F8BC08BC9E46704777
:081BA800A8E7FF7F0100000027
:041BB0000000000031
:101BB400000000000000000000000000B49D0100CF
:101BC4001C9E0100849E0100000000000000000033
:101BD4000000000000000000000000000000000001
:101BE4000000000000000000000000009C9A0000BB
:101BF40000000000000000000000000000000000E1
:101C040000000000000000000000000000000000D0
:101C140000000000000000000000000000000000C0
:101C240000000000000000000000000000000000B0
:101C340000000000000000000000000000000000A0
:101C44000000000000000000000000000000000090
:101C54000000000000000000000000000000000080
:101C640001000000000000000E33CDAB34126DE61D
:101C7400ECDE05000B000000000000000000000086
:101C84000000000000000000000000000000000050
:101C94000000000000000000000000000000000040
:101CA4000000000000000000000000000000000030
:101CB4000000000000000000000000000000000020
:041FE400C89A010096
:081FE800D58100001582000004
:041FF000ED8100007F
:041FF40000000000E9
:04000003000000C336
:00000001FF
