:1000000000200020C3000000BD140000C314000045
:1000100000000000000000000000000000000000E0
:10002000000000000000000000000000C10000000F
:100030000000000000000000C1000000D514000016
:10004000F5140000151500003515000055150000C9
:100050007515000095150000B5150000D5150000B8
:10006000F5150000151600003516000055160000A5
:100070007516000095160000B5160000D516000094
:100080000000000000000000000000000000000070
:100090000000000000000000000000000000000060
:1000A0000000000000000000000000000000000050
:1000B0000000000000000000000000000000000040
:1000C000FEE7002370B50A480A490B4C1A188A4209
:1000D00003D2E55C01331570F8E70021074B084AAD
:1000E000934202D219700133FAE700F01BF870BD99
:1000F000000000203404002070260000440400208A
:10010000F405002010B50021040002F07BF9044B37
:100110001868C36B002B00D09847200002F07CFACF
:1001200080A50000F7B501F0EDF8012501220024BB
:10013000354B6D421A60354E6B1C09D133685B0636
:10014000F9D5334B1D68334B6DB21D606B1CF2D07B
:1001500033685B06EFD52E4B18680700002D28D1B9
:1001600000F0F4FE01F026FB80220023120600902E
:10017000019101F0FFFA02000B000098019901F0D3
:1001800011FB01F02BFB070001F01EFB224A234B61
:100190000090019101F0D8FA002809D10098019946
:1001A0001F4A204B01F0BCFA002802D0032700E0D0
:1001B0001D4F01341D4B0222610706D119681142FF
:1001C00001D0C046FAE7134A1460022219681142AE
:1001D00001D0C046FAE7164B1F60012332681A426D
:1001E00001D1C046FAE7134B24B21B6880235B00A1
:1001F0009C4202D1012500246D42E3069BD10122DD
:100200000D4B1A6097E7C0460800005000000450EC
:1002100018000450280004501EA7E8482EFFEF3FA6
:100220002D431CEBE2361A3FFC7F00000400045013
:100230001C0004500C00045034000050034B10B557
:10024000002B02D0024802F05BF910BD0000000054
:1002500019A4000010B5064C2378002B07D1054BDC
:10026000002B02D0044800E000BF0123237010BD22
:10027000D4A90100000000008CA50000084B10B5B7
:10028000002B03D00749084800E000BF0748036877
:10029000002B00D110BD064B002BFBD09847F9E78F
:1002A00000000000D8A901008CA500009CA5010059
:1002B00000000000164B002B00D1144B9D4640223D
:1002C00092029A1A924600218B460F461348144A0E
:1002D000121A02F051F80F4B002B00D098470E4B2A
:1002E000002B00D098470020002104000D000D488D
:1002F000002802D00C4802F003F902F019F820009F
:100300002900FFF70FFFFFF7FDFEC04600000800C1
:10031000000000000000000000000000D4A901005F
:1003200084AB010009A4000019A40000EFF30980C8
:10033000001C704780F309887047EFF30880001CA9
:10034000704780F308887047EFF31080704780F3A0
:100350001088704700BA704740BA7047C0BA7047FB
:10036000EFF31480704780F314887047830702D13D
:1003700080239B05C1507047C30702D480239B058F
:10038000C152704780239B05C154704700238207E8
:1003900002D180239B05C358180070470023C20771
:1003A00002D480239B05C35A1800704780239B0505
:1003B000C05C7047830701D1014BC1507047C046F4
:1003C000002000200023820701D1024BC3581800EF
:1003D0007047C0460020002010B5044C2360044B39
:1003E0001A60044B1960044B186010BD04000350E0
:1003F000080003500C0003501000035010B5044CCB
:100400002360044B1A60044B1960044B186010BD44
:1004100014000350180003501C0003502000035028
:1004200030B504000B48056800209D4210D10A4BEE
:1004300001301B6893420BD1084B01301B688B4283
:1004400006D1074B1B68181B431E98410423181A3A
:1004500030BDC04624000350280003502C00035038
:1004600030000350A023DB0518688007C00F7047D9
:100470000122014B1A6070472C0000500122014BF1
:100480001A60704730000050C04670471622074B74
:10049000FF321A600022064B1A60064B03321A60C4
:1004A000054B1A60023A1A607047C0460C100040B3
:1004B00018100040141000400010004070B5414C6E
:1004C0002278D2B2012A34D16378002B0BD1A378E1
:1004D000013BDBB2A370002B2BD13B4B1A600323F3
:1004E0006270A37025E0A378013BDBB2A370002B00
:1004F0001FD1E178002915D123796179A079091AF2
:100500000B41134201D0314B00E02F4B1A60032303
:10051000A370A379013BDBB2A371002B09D1013396
:10052000E37006E029490A600322A270E370637059
:100530002370E379002B44D1237A012B15D1637A00
:10054000013BDBB26372002B3BD121002372A3720B
:10055000A289A07B12B20F318854A289013212B253
:10056000A281FF2A2DDDA3812BE0A37A002B0DD1E0
:10057000FFF778FF002824D10123154AA372033323
:10058000A0736372D37BDBB213741AE0637A013B0E
:10059000DBB26372002B14D103336372FFF762FF87
:1005A0000B4AD17B157CA37B491B88401843C0B202
:1005B000A073137C013BDBB21374002B01D1013318
:1005C000237270BDF0A90100300000502C000050D3
:1005D000F0AA010001210222C1200F4B10B51960C1
:1005E0000E4B80001A600E4B0E4A1C5822401A50C7
:1005F00040221A6000220C4B0C485A701A70DA70B4
:100600009A721A72DA710832C2735A71084B196001
:10061000FFF73CFF10BDC046080000500C00005022
:1006200000E100E0FFFF00FFF0A90100F0AA0100D7
:100630002C0000500B4A0C4B30B5548A9D89002188
:10064000A5420DD0518A0F3309B25B5C01210370C2
:10065000538A01331BB25382FF2B01DD00235382E7
:10066000080030BDF0AA0100F0A90100064B1A787D
:10067000012AFCD003229A705A79D2B29A710122CF
:1006800018711A707047C046F0A901000023024A91
:100690009381024A53827047F0A90100F0AA010039
:1006A000054B064A988903B2508A00B2181A431EB5
:1006B0009841C0B27047C046F0A90100F0AA0100FD
:1006C0000022014BDA717047F0A901000122014BB1
:1006D000DA717047F0A90100054B0221187001235F
:1006E000044A1360044A1160044A13607047C0460C
:1006F00006AB01002C0000500C0000500800005018
:100700000121030000B50B408DB00193022303408B
:10071000029304230340039308230340049310230C
:10072000034005932023034006934023034007938F
:100730007F239843754B08901A78754B09910A915D
:100740001960002A00D008E1C046C046C046C04635
:10075000C046C046C046C046C046C046C046C04669
:10076000C046C0466B4A0198002805D0C046C04626
:10077000C0460A99116005E00A991960C046C04652
:10078000C046C046C046C046C046C046C046C04639
:10079000C046C046C046C046C046C046C046C04629
:1007A000C0460298002805D0C046C046C0460A99F7
:1007B000116005E00A991960C046C046C046C046AF
:1007C000C046C046C046C046C046C046C046C046F9
:1007D000C046C046C046C046C046C046C046039854
:1007E000002805D0C046C046C0460A99116005E001
:1007F0000A991960C046C046C046C046C046C046B9
:10080000C046C046C046C046C046C046C046C046B8
:10081000C046C046C046C046C0460498002805D021
:10082000C046C046C0460A99116005E00A991960A1
:10083000C046C046C046C046C046C046C046C04688
:10084000C046C046C046C046C046C046C046C04678
:10085000C046C046C0460598002805D0C046C046E0
:10086000C0460A99116005E00A991960C046C04661
:10087000C046C046C046C046C046C046C046C04648
:10088000C046C046C046C046C046C046C046C04638
:10089000C0460698002805D0C046C046C0460A9902
:1008A000116005E00A991960C046C046C046C046BE
:1008B000C046C046C046C046C046C046C046C04608
:1008C000C046C046C046C046C046C046C04607985F
:1008D000002805D0C046C046C0460A99116005E010
:1008E0000A991960C046C046C046C046C046C046C8
:1008F000C046C046C046C046C046C046C046C046C8
:10090000C046C046C046C046C04605E006AB010032
:10091000300000502C0000500898002805D0C04638
:10092000C046C0460A99116005E00A991960C046A0
:10093000C046C046C046C046C046C046C046C04687
:10094000C046C046C046C046C046C046C046C04677
:10095000C046C046C0461160DDE000220B920B9AF3
:10096000022A03DCC0460B9A0132F7E7C046C046B4
:100970006A4A0198002805D0C046C046C0460A9978
:10098000116005E00A991960C046C046C046C046DD
:10099000C04600210B910B99022903DCC0460B993C
:1009A0000131F7E7C0460298002805D0C046C0468E
:1009B000C0460A99116005E00A991960C046C04610
:1009C000C046C046C04600210B910B99022903DCAA
:1009D000C0460B990131F7E7C0460398002805D0BF
:1009E000C046C046C0460A99116005E00A991960E0
:1009F000C046C046C046C046C04600210B910B9978
:100A0000022903DCC0460B990131F7E7C046049880
:100A1000002805D0C046C046C0460A99116005E0CE
:100A20000A991960C046C046C046C046C04600216B
:100A30000B910B99022903DCC0460B990131F7E7B2
:100A4000C0460598002805D0C046C046C0460A9951
:100A5000116005E00A991960C046C046C046C0460C
:100A6000C04600210B910B99022903DCC0460B996B
:100A70000131F7E7C0460698002805D0C046C046B9
:100A8000C0460A99116005E00A991960C046C0463F
:100A9000C046C046C04600210B910B99022903DCD9
:100AA000C0460B990131F7E7C0460798002805D0EA
:100AB000C046C046C0460A99116005E00A9919600F
:100AC000C046C046C046C046C04600210B910B99A7
:100AD000022903DCC0460B990131F7E7C0460898AC
:100AE000002805D0C046C046C0460A99116005E0FE
:100AF0000A991960C046C046C046C046C046002399
:100B00000B930B9B022B03DCC0460B9B0133F7E7D7
:100B1000C046012313600DB000BDC0462C0000503C
:100B2000A022F0B5984B85B01B78D205002B00D0E1
:100B3000DDE0023311681942FCD1C046C046C04610
:100B4000C046C046C046C046C046C046C046C04675
:100B5000C046C046C046C046C046C046C046C04665
:100B6000C046C046C046C046C046C046C046C04655
:100B7000C046C046A023DB051A68022313406A461C
:100B80000332002B02D0C046C04601231370C0467A
:100B9000C046C046C046C046C046C046C046C04625
:100BA000C046C046A023DB051A680223134001AAF1
:100BB000002B02D0C046C04601231370C046C04679
:100BC000C046C046C046C046C046C046C046C046F5
:100BD000C046A023DB051A68022313406A4605328B
:100BE000002B02D0C046C04601231370C046C04649
:100BF000C046C046C046C046C046C046C046C046C5
:100C0000C046A023DB051A68022313406A46063259
:100C1000002B02D0C046C04601231370C046C04618
:100C2000C046C046C046C046C046C046C046C04694
:100C3000C046A023DB051A68022313406A46073228
:100C4000002B02D0C046C04601231370C046C046E8
:100C5000C046C046C046C046C046C046C046C04664
:100C6000C046A023DB051A680223134002AA002B0A
:100C700002D0C046C04601231370C046C046C046DD
:100C8000C046C046C046C046C046C046C046C04634
:100C9000A023DB051A680223134009226A44002BB3
:100CA00002D0C046C04601231370C046C046C046AD
:100CB000C046C046C046C046C046C046C046C04604
:100CC000A023DB051A68022313400A226A44002B82
:100CD00002D0C046C04601231370C046C046C0467D
:100CE000C046C046C046C046C046C046DFE00221FE
:100CF00013680B40FCD10421244A11600393039B29
:100D0000022B03DCC046039B0133F7E7C046C04615
:100D1000C046C046C046C04600230393039B022B37
:100D200003DCC046039B0133F7E7C046C046A0235F
:100D3000DB051A68022313406A460332002B02D0F7
:100D4000C046C0460123137000230393039B022B6C
:100D500003DCC046039B0133F7E7C046C046A0232F
:100D6000DB051A680223134001AA002B02D0C046FB
:100D7000C0460123137000230393039B022B07DC5F
:100D8000C046039B0133F7E706AB01003400005077
:100D9000C046C046A023DB051A68022313406A46FA
:100DA0000532002B02D0C046C04601231370002339
:100DB0000393039B022B03DCC046039B0133F7E73D
:100DC000C046C046A023DB051A68022313406A46CA
:100DD0000632002B02D0C046C04601231370002308
:100DE0000393039B022B03DCC046039B0133F7E70D
:100DF000C046C046A023DB051A68022313406A469A
:100E00000732002B02D0C046C046012313700023D6
:100E10000393039B022B03DCC046039B0133F7E7DC
:100E2000C046C046A023DB051A680223134002AA6D
:100E3000002B02D0C046C046012313700023039349
:100E4000039B022B03DCC046039B0133F7E7C0463C
:100E5000C046A023DB051A680223134009226A4416
:100E6000002B02D0C046C046012313700023039319
:100E7000039B022B03DCC046039B0133F7E7C0460C
:100E8000C046A023DB051A68022313400A226A44E5
:100E9000002B02D0C046C0460123137000230393E9
:100EA000039B022B03DCC046039B0133F7E7C046DC
:100EB000C046A023DB051A68022313400B226A44B4
:100EC000002B02D0C046C046012313706B46DF786A
:100ED00001AB18786B465E796B469D796B46DC7981
:100EE00002AB197809236B441A780A23B600400034
:100EF00030433843ED006B44284324011B782043E2
:100F00004901084392011043DB011843C0B205B008
:100F1000F0BD10B504000134631E1878002802D01B
:100F2000FFF7EEFBF7E710BD10B504000134631EB8
:100F30001878002802D0FFF7E3FBF7E70A30FFF745
:100F4000DFFB0D20FFF7DCFB10BDC04670B50600CF
:100F5000050000F02FFC0022002300F011FC002807
:100F600000DC99E07D4BF618300000F023FC0022F5
:100F7000002300F005FC002803DD80243500240454
:100F800001E080242402764BEE18300000F012FCC1
:100F90000022002300F0F4FB002801DD35002401CD
:100FA000704BEE18300000F005FC0022002300F02A
:100FB000E7FB002801DD3500A4006B4BEE18300084
:100FC00000F0F8FB0022002300F0DAFB002801DD2E
:100FD00035006400654BEE18300000F0EBFB00229A
:100FE000002300F0CDFB002802DD35006310E4187B
:100FF0005F4BEE18300000F0DDFB0022002300F014
:10100000BFFB002802DD3500A310E418594BEE1891
:10101000300000F0CFFB0022002300F0B1FB0028DD
:1010200002DD3500E310E418534BEE18300000F0F9
:10103000C1FB0022002300F0A3FB002802DD3500E5
:101040002311E4184D4BEE18300000F0B3FB0022E2
:10105000002300F095FB002802DD35006311E41841
:101060002E00FC3EFF3E300000F0A4FB00220023D7
:1010700000F086FB002802DD3500A311E4182800EB
:10108000FF3800F097FB0022002300F079FB0028D6
:1010900062DDE311E4185FE0394BF518280000F039
:1010A00089FB0022002300F06BFB012804DD2800EF
:1010B000FFF74CFF401050E0324BF518280000F0CD
:1010C00079FB0022002300F05BFB012804DD2800EF
:1010D000FFF73CFF801040E02B4BF518280000F094
:1010E00069FB0022002300F04BFB012804DD2800EF
:1010F000FFF72CFF001130E0244BF518280000F01A
:1011000059FB0022002300F03BFB012804DD2800EE
:10111000FFF71CFF001220E01D4BF518280000F01F
:1011200049FB0022002300F02BFB012804DD2800EE
:10113000FFF70CFF001310E0164BF618300000F01C
:1011400039FB0022002300F01BFB012804DD3000E6
:10115000FFF7FCFEC01300E0200070BD373AFDFF32
:101160001C9DFEFF8E4EFFFF49A7FFFF19CCFFFF1E
:1011700072E3FFFFECF0FFFF3FF8FFFF0FFCFFFF04
:10118000B758000072B10000E4620100C9C5020056
:10119000AD280400D732050070B505020400280010
:1011A00000F008FB80220023120600F0E9FA002874
:1011B00002DC2C004A4D00E000252601300000F042
:1011C000F9FA80220023120600F0DAFA002802DC85
:1011D0003400444BED18A600300000F0EBFA8022FA
:1011E0000023120600F0CCFA002802DC34003E4B4B
:1011F000ED186600300000F0DDFA802200231206B0
:1012000000F0BEFA002802DC3400384BED186610FE
:101210003619300000F0CEFA80220023120600F0CA
:10122000AFFA002802DC3400314BED18A610361955
:10123000300000F0BFFA80220023120600F0A0FA6E
:10124000002802DC34002B4BED18E6103619300074
:1012500000F0B0FA80220023120600F091FA002874
:1012600002DC3400244BED182611A619300000F0E2
:10127000A1FA80220023120600F082FA002802DC84
:1012800034001E4BED186611A619300000F092FADA
:1012900080220023120600F073FA002802DC3400DA
:1012A000174BED18A611A619300000F083FA802222
:1012B0000023120600F064FA002802DC3400FC3D32
:1012C000FF3DE011001900F075FA8022002312069C
:1012D00000F056FA002800DCFF3D280070BDC04633
:1012E000373AFDFF1C9DFEFF8E4EFFFF49A7FFFF13
:1012F00019CCFFFF72E3FFFFECF0FFFF3FF8FFFFA9
:101300000FFCFFFF0621334B0822F0B5997206212E
:101310001A70043A9A700422D9720721DA700725EC
:1013200001220220002405275973032104261D747D
:101330009D185F711F725C701C719A71DA7158721E
:1013400018739973D9735C749974DC7419755A7530
:101350009875DA7518765A769876DA7618775C7713
:101360009977E9771C4DDC772A601D18EC775D18BA
:10137000EA771D1DE977DD19E8779D1DEE77DD1D04
:10138000EF770825AC469C4465460726EE7728256E
:10139000AC469C44654606262E702925AC469C44E6
:1013A00065462A701A002A3214701A002B32107007
:1013B0001A002C3211701A002D3217701A000131E8
:1013C0002E3211701A0006212F321170072230338D
:1013D0001A70F0BD0DAB01000800005070B50D0093
:1013E000040000F0CBF900F0E5F90022002300F042
:1013F000C7F9002800DC2C00200070BDF0B50024E7
:10140000260087B00090019102922B4B2A4D1B7849
:10141000A3423FD9029AA300D3180593264B670035
:10142000DB19009AE50003935B785159019A9B0000
:10143000985800F09DF9039B009A9B785519019AE2
:101440009B00696804900700985800F091F901002A
:101450000500049800F092F900F0ACF90022002396
:1014600000F08EF9002800DC2F00059B39001F607A
:10147000002C0BD0300000F081F900F09BF9002225
:10148000002300F07DF9002800DD37000134E4B2CC
:101490003E00BAE700242B78A3420AD9029BA7009A
:1014A000DF193868310000F069F901343860E4B2BE
:1014B000F1E707B0F0BDC0460DAB010040BF40BF33
:1014C0007047802010B502498000FEF74FFFFEE70D
:1014D0002222222210B540BF8020044A044913680A
:1014E000800001331360FEF741FFFEE740AB0100CF
:1014F0003333333340BF054A01215368013353600E
:10150000C023034A5B00D15040BF704740AB01008D
:1015100000E100E040BFC0230221044A5B00D1503B
:10152000034A9368013393607047C04600E100E0CE
:1015300040AB010040BFC0230421044A5B00D150EE
:10154000034AD3680133D3607047C04600E100E02E
:1015500040AB010040BFC0230821044A5B00D150CA
:10156000034A1369013313617047C04600E100E08C
:1015700040AB010040BFC0231021044A5B00D150A2
:10158000034A5369013353617047C04600E100E0EC
:1015900040AB010040BFC0232021044A5B00D15072
:1015A000034A9369013393617047C04600E100E04C
:1015B00040AB010040BFC0234021044A5B00D15032
:1015C000034AD3690133D3617047C04600E100E0AC
:1015D00040AB010040BFC0238021044A5B00D150D2
:1015E000034A136A013313627047C04600E100E00A
:1015F00040AB010040BF8021C023044A49005B008A
:10160000D150034A536A01335362704700E100E04E
:1016100040AB010040BF8021C023044A89005B0029
:10162000D150034A936A01339362704700E100E0AE
:1016300040AB010040BF8021C023044AC9005B00C9
:10164000D150034AD36A0133D362704700E100E00E
:1016500040AB010040BF8021C023044A09015B0068
:10166000D150034A136B01331363704700E100E06C
:1016700040AB010040BF8021C023044A49015B0008
:10168000D150034A536B01335363704700E100E0CC
:1016900040AB010040BF8021C023044A89015B00A8
:1016A000D150034A936B01339363704700E100E02C
:1016B00040AB010040BF8021C023044AC9015B0048
:1016C000D150034AD36B0133D363704700E100E08C
:1016D00040AB010040BF8021C023044A09025B00E7
:1016E000D150034A136C01331364704700E100E0EA
:1016F00040AB01008446101C62468C46191C6346B0
:1017000000E0C0461FB500F011F9002801D4002107
:10171000C8421FBD10B500F065F84042013010BD51
:1017200010B500F003F9002801DB002010BD0120F6
:1017300010BDC04610B500F0F9F8002801DD00200A
:1017400010BD012010BDC04610B500F08BF8002878
:1017500001DC002010BD012010BDC04610B500F016
:1017600081F8002801DA002010BD012010BDC0461C
:1017700008187047801859417047C046401A704792
:101780008B4206DC03D0994205DD0220704782427D
:10179000F9D90020FAE7994201D19042F5D8012009
:1017A000F4E7C04610B5002482B0009400F002FCBB
:1017B00002B010BD10B5C117040C090402040C439B
:1017C0001000210010BDC04610B500F093FBFC23B3
:1017D00000229B0500F014F910BDC0460B04000C5C
:1017E00018437047F0B55F4656464D464446F0B440
:1017F0001F035C00DB0F9A46194B0E034D00C90F07
:101800008046360B6D0D8B4691463F0B640D9D4215
:1018100019D0134B9C421BD00123A54206D01800BF
:101820003CBC90469946A246AB46F0BDBE42F6D1BE
:10183000C845F4D1D34510D0002DF0D1304303007A
:101840005A1E9341EBE7310001230143E7D1E0E762
:101850003A430123002AE2D1DEE70023DFE7C04656
:10186000FF070000F0B55F46444656464D46F0B4CB
:101870001F033C0B2C4F0E034D00A3465C00844617
:10188000360B6D0DC90F9046640DDB0FBD422BD09A
:10189000254FBC422ED0002D0ED13043070081468B
:1018A00078427841002C17D15F463A4314D14B4619
:1018B0000020002B0AD006E0002C02D1584602433B
:1018C00001D099421AD00123484218433CBC9046AB
:1018D0009946A246AB46F0BD0028F2D05842584186
:1018E000012240421043F1E737000743D0D00220E5
:1018F0004042EBE75F461743CDD0F8E7A542E2DC74
:1019000005DB5E45DFD808D000205E45DED24842C8
:101910004841012340421843D8E7C445D3D80020AA
:10192000C445F4D3D2E7C046FF070000F0B55F46D8
:101930004D4644465646F0B41C03240BA4462F4C97
:101940000F034D005E00C90F80463F0B6D0D8B46A7
:101950009146760DDB0FA54220D0284CA64222D01E
:10196000002D12D1384344424441002E20D0002C97
:101970000DD05C42634101245B421C4320003CBC0F
:1019800090469946A246AB46F0BD002E17D05B4567
:1019900019D05B465C4201231C43EFE73900022467
:1019A0000143EBD1D9E7614602241143E6D1D7E7E1
:1019B00061460A43DBD100240028DFD0E9E7614615
:1019C0000A43E4D1E5E7B54203DD01225C4214435A
:1019D000D4E7B542CDDB6745DBD809D000246745A5
:1019E000CCD259464C426141012449420C43C5E7DF
:1019F000C845CED80024C845F3D3BFE7FF07000091
:101A0000F0B55F4656464D464446F0B40D03994640
:101A10004E002B0B87B00700924680469B46760D02
:101A2000CC0F002E69D06D4B9E4235D05B46802294
:101A3000DD001204430F13432B439B46C30098461B
:101A4000674B00279C460023664401934A461503D2
:101A50005000D20F53462D0B400D914600D176E039
:101A60005E4A90426CD080225B0F120413435C4AA2
:101A7000ED0094461D4353460022DB006044494676
:101A80003618701C6140029017430F2F00D9AFE049
:101A90005448BF00C759BF465B461F4300D088E08B
:101AA00000239B469846023308270193CEE7494618
:101AB000022A6AD0032A00D109E2012A00D0BBE140
:101AC00011400022002300259046CCB200212D03B6
:101AD0000A0D12052D0B1543434A1B0515401D43E6
:101AE0006D00E4076D0825434046290007B03CBC63
:101AF00090469946A246AB46F0BD034352D05B46A2
:101B0000002B00D18AE1584600F036FA03000B3B67
:101B10001C2B00DD7BE11D22D31A3A0001005D463B
:101B2000DA4008398D4013008F402B439B46B8465E
:101B30002E4B00279C46002360444642019385E7D4
:101B400052462A432CD100250023022297E7524611
:101B50002A4321D0002D00D154E1280000F00CFAD6
:101B600003000B3B1C2B00DD46E11D21CB1A514627
:101B70000200D9405346083A954093400D431B4A12
:101B8000944660444042002279E7012400220C4040
:101B9000124B0025904699E70025002301226EE7AD
:101BA00003226CE700239B469846013304270193E8
:101BB0004CE703230C27019348E700238025984630
:101BC00000242D03054B81E75D464346019A6FE7EC
:101BD0005D4643462100019A6AE7C046FF070000C0
:101BE00001FCFFFF3CA50000FFFF0F80F303000096
:101BF0004246120C91461A0C9446424617044A4635
:101C00001B041B0C5A43604690464A464243100050
:101C1000039262461C003F0C7A437C43424401928B
:101C2000220C9246019A5244904506D98246802061
:101C300040028046C24450460390100C049048462F
:101C40002404240C1204121905922A0C2D042D0CC4
:101C500068432C00824648467C4350438146200C12
:101C60008046574357444744BA4503D98020400231
:101C70008046C144380C3F04B84648442404240C30
:101C800001900498A044404404905846000C8146BA
:101C900058460404200C8246070048465F434C46E1
:101CA0004343604660436446834650464443380C91
:101CB0008446E4186444A34203D980235B029C4613
:101CC000E34448463F04230C3F0C2404E4195746E0
:101CD00068436F4384464D46504655434243380C53
:101CE000814662444A445B44944503D980204002C3
:101CF0008446654403983F04834604983F0C844619
:101D0000E344C34580414042824610048446019822
:101D1000674484466744A344BC46A345A44199460E
:101D2000D44464428742BF41D4458041E144A04647
:101D300099459B417F424042C8440743120CBA1860
:101D4000A045A4415F423B0064422343D718434669
:101D50007D19DB0D6D021D435B465A02059B1A433C
:101D6000531E9A415B46DB0D1A4343465B02134305
:101D7000EA0107D501225C0813402343EA07029ECB
:101D800013436D08574AB218002A4BDD580709D093
:101D90000F201840042805D0181D98429B415B4233
:101DA000ED180300E80104D54F4A15408022D20007
:101DB000B2184E48824200DDE7E60124DB086807DE
:101DC00018436D02530580462D0B5B0D0C407DE6DC
:101DD000802259461203114208D0154206D11543FC
:101DE0002D0398462D0B4C46414B6FE65D4615433F
:101DF0002D032D0B3E4B69E603005546283B9D40C5
:101E00000023BCE6504600F0B7F82030A8E60300F7
:101E1000283B9F400023BB46984689E600F0ACF87B
:101E2000203073E60124A61A382E07DD00220C406C
:101E300000230025904649E6029EA3E71F2E20DCE2
:101E400020222C001800921BF04094409340044341
:101E5000581E83411C43F540630709D00F232340DC
:101E6000042B05D023001C1D9C4292415242AD1808
:101E70002B021FD5012400220C400123002590468F
:101E800024E61F202C004042821AD440202E1CD071
:101E90004022961BB5402B43581E83410720234305
:101EA00018400025002809D00F2200251A401C00E8
:101EB000042AD8D1230068076D022D0B0124DB080A
:101EC000034398460C40002300E60025E3E7802208
:101ED0000124120315432D0398462D0B0C40044B8F
:101EE000F4E5C046FF030000FFFFFFFEFE07000011
:101EF000FF07000070B5002830D0C317C4185C403D
:101F0000C50F200000F038F8174B184A1B1AD21AD8
:101F10001F2A18DD164AD21A9440002224035B05BA
:101F2000240B5B0D0021100024030A0D1205240B65
:101F30001443104A1B0514401C436400ED07640859
:101F40002C43210070BD210091400A000B21081A8A
:101F5000C4405B052403240B5B0DE3E7002500234D
:101F600000240022DEE7C0461E0400003304000007
:101F700013040000FFFF0F801C2101231B04984263
:101F800001D3000C10391B0A984201D3000A08390A
:101F90001B09984201D30009043902A2105C4018C1
:101FA0007047C04604030202010101010000000065
:101FB00000000000F0B54D4644465F465646F0B47A
:101FC0008BB004000D0002920393002900DB77E040
:101FD000002544428D4101218B460399002907DAEF
:101FE00000215042994101239C4602900391E34411
:101FF0006308EF071F436B109A4602980399E607A0
:10200000EC170B000200814688465046210000F084
:10201000A1F802000B00029803990492059306921E
:10202000079302000B005046210000F093F8402176
:1020300000208C46002100960197DC0FA246019CEF
:1020400092185B41002C03DA0124002512196B4120
:1020500000184941564604000D00002E04D1984551
:102060000AD801D1914507D802980399121A8B41D9
:102070000120002100196941009E019F34003D00AC
:10208000A4197D410094019501246442A246D444E0
:102090006446002CD1D15B4608900991012B12D0E7
:1020A000149B002B03D008A906A800F023F8089879
:1020B00009990BB03CBC90469946A246AB46F0BD90
:1020C00000218B4689E7002342428B410892099305
:1020D0001A4307D104980599002342428B41069286
:1020E0000793DDE70499059ACB430693D3430793FF
:1020F000D6E7C046436810B50268002B09DD002210
:102100000023026043600122114B52420A604B607F
:1021100010BD002B01D1002AF1D114001C4313D0B3
:10212000013206D1013304D180234A681B069A424A
:10213000EED201225242D317026043608023002274
:102140001B060A604B60E3E74B68002BE0DAD6E73A
:10215000FFFFFF7F002B11D1002A0FD1002900D1F2
:10216000002802D00021C943081C07B4024802A17C
:102170004018029003BDC0469D01000003B46846AC
:1021800001B5029800F006F8019B9E4602B00CBC17
:102190007047C046F0B54D46564644465F46F0B4DB
:1021A000924683B004000D0099468B422FD82CD064
:1021B0004946504600F0B0F829000600200000F023
:1021C000ABF8331A9846203B9B4600D574E0534643
:1021D0005A4693401F005346424693401E00AF426A
:1021E00029D826D05B46A41BBD41002B00DA79E03C
:1021F000002200230092019301235A469340019349
:10220000012342469340009319E08242D0D9002234
:102210000023009201930C9B002B01D01C605D6099
:102220000098019903B03CBC90469946A246AB4643
:10223000F0BDA342D6D90022002300920193434669
:10224000002BE8D0FB0772081A4346467B080EE0D5
:10225000AB4201D1A2420CD8A41A9D4101202419FD
:102260006D410021013E24184D41002E06D0AB42A5
:10227000EED9013E24196D41002EF8D15B4600983D
:10228000019900196941002B22DB2B005A46D340EB
:102290002A004446E2401C005B461500002B2CDB64
:1022A00026009E40330026004746BE403200801A7A
:1022B000994100900191AEE7424620239B1A524675
:1022C000DA40414613004A468A4017001F4382E71E
:1022D000424620239B1A2A0046469A402300F34098
:1022E0001343D5E74246202300219B1A0022009188
:1022F00001920122DA40019282E742462023260021
:102300009B1ADE402F00B446974066463B0033439D
:10231000C9E7C0467047C04610B5002903D1FFF792
:102320002BFE203002E0081CFFF726FE10BDC04641
:1023300070B50D4E0D4D0024AD1BAD1005D0A300A2
:10234000F35801349847A542F9D1FDF7D5FE084E60
:10235000084D0024AD1BAD1005D0A300F358013487
:102360009847A542F9D170BD90A5010090A5010044
:1023700090A5010098A5010070B583073FD0541EB9
:10238000002A3BD0CEB20300032503E0621E002CDE
:1023900034D0140001335A1E16702B42F6D1032C90
:1023A00024D9FF250D402A0215432A0415430F2C7A
:1023B00011D92600103E3609013636011A009B1944
:1023C000156055609560D56010329342F8D10F22A8
:1023D0001440032C0AD9261FB6080136B6001A008D
:1023E0009B1920C29342FCD103221440002C05D03B
:1023F000C9B21C19197001339C42FBD170BD140085
:102400000300CCE7F0B55F4656464D464446F0B46F
:102410000F00394B85B01B68019002934933FF339D
:102420000393A422029B52009E58002E4ED0039B81
:102430009946C4235B00984604339A467468B044B6
:10244000A5007519B244013C08D52DE06B1DFF3382
:102450001B689F4204D0043D013C25D3002FF5D1D9
:1024600073686A68013BA34239D000236B60002A7D
:10247000F1D0736841469B460123A3400968194285
:102480002BD05146096819422BD12B00843319688F
:102490000198904773685B45C3D14B461B68B342B4
:1024A000BFD1043D013CD9D2144B002B0ED0736830
:1024B000002B1BD13368002B1CD04A463000136020
:1024C00000E000BF4B461E68002EB2D105B03CBCF8
:1024D00090469946A246AB46F0BD9047DAE7746055
:1024E000C5E72B00843318689047D3E73368B146BB
:1024F0001E00E9E70023FAE780A5000000000000C5
:1025000010B5010000230022002000F01BF810BDD0
:1025100070B5094B094CE41AA41009D0084AA51853
:10252000AD00ED182B68013C9847043D002CF9D113
:1025300000F074F870BDC04698A501009CA501008C
:10254000FFFFFF3FF8B544465F4656464D469B4663
:102550002F4BF0B41C68A4235B000500E0580E006C
:10256000904600284BD043681F2B0DDC5C1C002DCF
:1025700021D102339B0044601E5000203CBC904699
:102580009946A246AB46F8BD224B002B3CD0C82052
:10259000400000E000BF002836D0A42200235200F3
:1025A000A15843600160A0504032835004328350F0
:1025B0000124002DDDD09A009146814442468821B5
:1025C0004F467A50C4225200904680444246873992
:1025D000994012688A460A43944642466146116011
:1025E000842249465F4652008F50022DC1D102001D
:1025F00055468D32FF3211680D431560B9E7200052
:102600004D30FF30E050AEE701204042B6E7C04613
:1026100080A5000000000000FEE7C04600D6C7C24B
:10262000B5271ADD16000000F89A0000B8990000DE
:10263000B8990000B6990000D09A0000D09A000026
:10264000C29A0000B6990000D09A0000C29A000019
:10265000D09A0000B6990000D89A0000D89A0000DD
:10266000D89A0000D89C000043000000A8A50100F3
:0C267000F8B5C046F8BC08BC9E46704798
:0C267C00F8B5C046F8BC08BC9E4670478C
:0826880038DCFF7F01000000B7
:042690000000000046
:1026940000000000000000000000000094A80100F9
:1026A400FCA8010064A90100000000000000000073
:1026B4000000000000000000000000000000000016
:1026C4000000000000000000000000007CA50000E5
:1026D40000000000000000000000000000000000F6
:1026E40000000000000000000000000000000000E6
:1026F40000000000000000000000000000000000D6
:1027040000000000000000000000000000000000C5
:1027140000000000000000000000000000000000B5
:1027240000000000000000000000000000000000A5
:102734000000000000000000000000000000000095
:1027440001000000000000000E33CDAB34126DE632
:10275400ECDE05000B00000000000000000000009B
:102764000000000000000000000000000000000065
:102774000000000000000000000000000000000055
:102784000000000000000000000000000000000045
:102794000000000000000000000000000000000035
:042AC400A8A50100C0
:082AC80045810000858100003A
:042AD0005D81000024
:042AD40000000000FE
:04000003000000C336
:00000001FF
