:1000000000200020C3000000A1170000A717000077
:1000100000000000000000000000000000000000E0
:10002000000000000000000000000000C10000000F
:100030000000000000000000C1000000B91700002F
:10004000D9170000F9170000191800003518000032
:10005000551800007118000091180000C518000024
:10006000E5180000051900002519000045190000D9
:100070006519000085190000A5190000C5190000C8
:100080000000000000000000000000000000000070
:100090000000000000000000000000000000000060
:1000A0000000000000000000000000000000000050
:1000B0000000000000000000000000000000000040
:1000C000FEE7002370B50A480A490B4C1A188A4209
:1000D00003D2E55C01331570F8E70021074B084AAD
:1000E000934202D219700133FAE700F01BF870BD99
:1000F0000000002034040020782B0000440400207D
:10010000F405002010B50021040002F07BFB044B35
:100110001868C36B002B00D09847200002F07CFCCD
:1001200088AA00008022F0B5B64BB74CD202A54495
:100130001A6001F013FA00F0F5FCC8239B030C933E
:1001400000231F001C0005930A930E930393019351
:1001500000930D93099308930793049302930E9BC6
:10016000002B6CD112ABDD1D280000F00DFD002826
:1001700051D0049B002B15D10020029B28569E00D5
:1001800001F0EEFC012101F073FC01F0D1FC8022B2
:100190000023120601F068FC01F0DEFC14ABF05005
:1001A000012337E0049B012B16D10020029B285627
:1001B0009E0001F0D5FC049901F05AFC01F0B8FC56
:1001C00080220023120601F04FFC01F0C5FCFFABBA
:1001D0005433F05002231DE0049B022B1BD100205E
:1001E000029B28569E0001F0BBFC012101F040FC5F
:1001F00001F09EFC80220023120601F035FC01F084
:10020000ABFC824B12AA9B18F050029B01331BB22D
:100210000293002304938023029A5B009A42A1D1A7
:100220000C9801F085FC020080200B0000060021E4
:1002300001F076FC01F090FC01230C900E93744DBC
:100240002B685B0603D5002F01D1724B1F6800227B
:100250002B680B925B0710D56F4B186801F082FC7E
:100260003F22089B119001331A40089201220B9201
:100270005B0702D1694A6A4B1A6000222B6806921A
:10028000DB0610D5674B186801F06CFC3F22099B18
:10029000109001331A400992012206925B0702D1A5
:1002A0005E4A614B1A60614B9F4214D18023009AD1
:1002B0005B0002249A4200D1D4E013000024DB0644
:1002C00000D0CFE05311019A52119B1A012B00DC90
:1002D000C8E00234C6E0564B9F4214D12B6800257B
:1002E0005B0600D4C0E04B4B2F00186801F03AFCCD
:1002F0003F230D9A0F9001321A400D924D4B474A01
:1003000001351A60B0E04C4B9F4200D008E2402318
:100310002D681D4000D1A7E0484B1B681B0F012B27
:1003200000D8FDE13B4A464D136810680222DBB25B
:100330002968114201D0C046FAE742493D4A05000A
:100340001160002B28D100F02DFF01F0F1FB80227D
:100350000023120606000F0001F082FB02000B00D2
:100360003000390001F0DCFB01F0F6FB050001F084
:10037000E9FB354A354B06000F0001F05DFB002814
:1003800009D1334A334B3000390001F041FB0028DA
:1003900002D0032500E0304D3F23079A01321A4076
:1003A0001300013B0792DBB2059A9B00DBB2012AE6
:1003B00001D12A4AD35C2A4A12A99B0052189D50A7
:1003C000019B01331BB201930B9B012B00D0B4E1C5
:1003D00000252F00089B059A9B00033BDBB2012AF6
:1003E00001D11E4AD35C1E49119A12A89B0009181C
:1003F0005A50019B01331BB20193069B012B4CD138
:1004000038E0C04608000050ACEFFFFF08080000CD
:1004100000000450180004501000045004000010A4
:100420002000045014000450240004500100003047
:100430000600003028000450050000300800045079
:1004400004000450030000101EA7E8482EFFEF3FF1
:100450002D431CEBE2361A3FFC7F000030A9000060
:10046000080C000000252F000B9B012BB2D0069B2F
:10047000012B74D1099B059A9B00023BDBB2012A38
:1004800001D1B24AD35CB249109A12A89B00091854
:100490005A50019B01331BB20193012D12D10D9BC8
:1004A000059A9B00013BDBB2012A01D1A74AD35C2C
:1004B000A7490F9A12A89B0009185A50019B0133B3
:1004C0001BB20193009BFF2B0DDC022C0BD11F22D2
:1004D000019B1A4007D1009B01995B1149115B1ADE
:1004E000012B00DC14008023019A5B009A4238D172
:1004F000059AFF3B9B1ADBB20593039B0133DBB2EA
:100500000393012B00D10DE1022B00D00CE100245C
:1005100012ABDD1D8E4B12AA9B18E05801F008FBB0
:100520000023002201F0CCFA0123012800DC002383
:100530002B70287800F044FB280000F025FB0028F1
:1005400001D1C046F8E780230434DB009C42E1D1AE
:1005500000240A94039401940094029402E6012D6D
:100560009DD0029B009A934200DCF8E5002C00D05D
:10057000F5E5002A25D1022376480168754A19421B
:1005800001D0C046F9E77449744B19600221106824
:10059000084201D0C046FAE70A99196002211068A2
:1005A000084201D0C046FAE70C9A1A6040236C4A10
:1005B00012681A4201D1C046F9E76A4B1B68002352
:1005C0000093022363490A68624D1A4201D0C04673
:1005D000F9E7654B614C2360059B002B3FD102334B
:1005E0002A681A4201D0C046FAE7009B14AA9B0071
:1005F0009B58236002232A681A4201D0C046FAE7BA
:10060000009BFFAA9B0054329B582360039B002B46
:1006100001D1023301E002230CE02A681A4201D022
:10062000C046FAE70222514B23602968114244D0A8
:10063000C046FAE72A681A4201D0C046FAE7009B92
:10064000434A12A99B0052189E58300000F0D0FE79
:10065000022320602A681A4245D0C046FAE7009A71
:100660003A4B9B5C02222968114201D0C046FAE74E
:100670009A0014A95258226002222968114201D01E
:10068000C046FAE7009A3A4912A89200091852584F
:100690002260039A002A01D1022301E002220EE027
:1006A0002A681A4201D0C046FAE702222F4B236083
:1006B0002968114201D0C046FAE7236022E0296888
:1006C000114201D0C046FAE7214A12A99B005218F4
:1006D0009E58300000F08CFE022320602A681A42E7
:1006E00001D0C046FAE7300001F022FA0200802073
:1006F0000B000006002101F0B7F901F02DFA00F01F
:1007000077FE2060009B012401339BB21AB2009255
:10071000DB0600D023E58022164BD2021A601EE5CC
:100720000025A1E6039B0A9300230193029B002B63
:1007300000DD20E70024009411E5069B0027012B33
:1007400000D0BFE600252F0094E6C04630A9000087
:10075000080C0000040004500100001028000450A0
:1007600000000450180004500200001049A7FFFFC9
:100770000808000034000050034B10B5002B02D0D5
:10078000024802F0BDF810BD0000000019A80000EA
:1007900010B5064C2378002B07D1054B002B02D057
:1007A000044800E000BF0123237010BDDCAE01004F
:1007B0000000000094AA0000084B10B5002B03D0E5
:1007C0000749084800E000BF07480368002B00D134
:1007D00010BD064B002BFBD09847F9E70000000046
:1007E000E0AE010094AA0000A4AA010000000000ED
:1007F000164B002B00D1144B9D46402292029A1AB0
:10080000924600218B460F461348144A121A01F0F3
:10081000B3FF0F4B002B00D098470E4B002B00D09E
:1008200098470020002104000D000D48002802D048
:100830000C4802F065F801F03DFF20002900FFF7A9
:1008400071FCFFF75FFCC0460000080000000000DC
:100850000000000000000000DCAE01008CB00100D0
:1008600009A8000019A80000EFF30980001C7047D8
:1008700080F309887047EFF30880001C704780F30D
:1008800008887047EFF31080704780F31088704736
:1008900000BA704740BA7047C0BA7047EFF314808F
:1008A000704780F314887047830702D180239B052B
:1008B000C1507047C30702D480239B05C1527047C3
:1008C00080239B05C15470470023820702D18023F7
:1008D0009B05C358180070470023C20702D4802329
:1008E0009B05C35A1800704780239B05C05C704766
:1008F000830701D1014BC1507047C0460020002042
:100900000023820701D1024BC35818007047C0462C
:100910000020002010B5044C2360044B1A60044BE7
:100920001960044B186010BD040003500800035008
:100930000C0003501000035010B5044C2360044B0E
:100940001A60044B1960044B186010BD140003506A
:10095000180003501C0003502000035030B5040061
:100960000B48056800209D4210D10A4B01301B68DE
:1009700093420BD1084B01301B688B4206D1074BC9
:100980001B68181B431E98410423181A30BDC0462B
:1009900024000350280003502C0003503000035063
:1009A000A023DB0518688003C00F70478022024B2C
:1009B00052021A607047C0462C0000508022024B41
:1009C00052021A607047C04630000050C04670475F
:1009D0001622074BFF321A600022064B1A60064BA4
:1009E00003321A60054B1A60023A1A607047C0461B
:1009F0000C1000401810004014100040001000407F
:100A000070B5444C2278D2B2012A3AD16378002BD7
:100A10000DD1A378013BDBB2A370002B31D1802133
:100A20003D4B4902196003236270A37029E0A3784B
:100A3000013BDBB2A370002B23D1E178002917D151
:100A400023796179A079091A0B4180214902134267
:100A500001D0324B00E0304B19600323A370A3791F
:100A6000013BDBB2A371002B0BD10133E37008E033
:100A700080212A4A490211600322A270E370637048
:100A80002370E379002B44D1237A012B15D1637AAB
:100A9000013BDBB26372002B3BD121002372A372B6
:100AA000A289A07B12B20F318854A289013212B2FE
:100AB000A281FF2A2DDDA3812BE0A37A002B0DD18B
:100AC000FFF76EFF002824D10123154AA3720333D8
:100AD000A0736372D37BDBB213741AE0637A013BB9
:100AE000DBB26372002B14D103336372FFF758FF3C
:100AF0000B4AD17B157CA37B491B88401843C0B2AD
:100B0000A073137C013BDBB21374002B01D10133C2
:100B1000237270BDF8AE0100300000502C00005070
:100B2000F8AF010080218022C120104B490210B58E
:100B300019600F4B92021A600E4B80001C580E4A2F
:100B400022401A5040221A6000220C4B0C485A7066
:100B50001A70DA709A721A72DA710832C2735A71A4
:100B6000084B1960FFF734FF10BDC0460800005065
:100B70000C00005000E100E0FFFF00FFF8AE0100B4
:100B8000F8AF01002C0000500B4A0C4B30B5548AD2
:100B90009D890021A5420DD0518A0F3309B25B5CBB
:100BA00001210370538A01331BB25382FF2B01DDF5
:100BB00000235382080030BDF8AF0100F8AE0100F9
:100BC000064B1A78012AFCD003229A705A79D2B2C5
:100BD0009A71012218711A707047C046F8AE010070
:100BE0000023024A9381024A53827047F8AE010003
:100BF000F8AF0100054B064A988903B2508A00B24B
:100C0000181A431E9841C0B27047C046F8AE0100A2
:100C1000F8AF01000022014BDA717047F8AE010015
:100C20000122014BDA717047F8AE0100054B01213A
:100C300018708023044A5B021360044A1160044A5E
:100C4000136070470EB001002C0000500C000050E3
:100C5000080000500122030000B513408DB001933D
:100C60000223034002930423034003930823034019
:100C7000049310230340059320230340069340234D
:100C8000034007937F239843802308900992754A75
:100C90005B0212780A93002A01D1C046E0E0724A52
:100CA000136000230B930B9B022B03DCC0460B9BB2
:100CB0000133F7E7C046C0466C4B0198002805D0C9
:100CC000C046C046C0460A99196005E00A991160FD
:100CD000C046C046C046C046C04600210B910B9995
:100CE000022903DCC0460B990131F7E7C0460298A0
:100CF000002805D0C046C046C0460A99196005E0E4
:100D00000A991160C046C046C046C046C046002190
:100D10000B910B99022903DCC0460B990131F7E7CF
:100D2000C0460398002805D0C046C046C0460A9970
:100D3000196005E00A991160C046C046C046C04629
:100D4000C04600210B910B99022903DCC0460B9988
:100D50000131F7E7C0460498002805D0C046C046D8
:100D6000C0460A99196005E00A991160C046C0465C
:100D7000C046C046C04600210B910B99022903DCF6
:100D8000C0460B990131F7E7C0460598002805D009
:100D9000C046C046C0460A99196005E00A9911602C
:100DA000C046C046C046C046C04600210B910B99C4
:100DB000022903DCC0460B990131F7E7C0460698CB
:100DC000002805D0C046C046C0460A99196005E013
:100DD0000A991160C046C046C046C046C0460021C0
:100DE0000B910B99022903DCC0460B990131F7E7FF
:100DF000C0460798002805D0C046C046C0460A999C
:100E0000196005E00A991160C046C046C046C04658
:100E1000C04600210B910B99022903DCC0460B99B7
:100E20000131F7E7C0460898002805D0C046C04603
:100E3000C0460A99196005E00A991160C046C0468B
:100E4000C046C046C04600220B920B9A022A03DC21
:100E5000C0460B9A0132F7E7C046802252021A6060
:100E60000DB000BD0EB00100300000502C0000504D
:100E7000F0B58B4B85B01B78002B01D1C046ECE060
:100E8000A0210122C9050B681340FCD10421854A29
:100E900011600393039B022B03DCC046039B0133C9
:100EA000F7E7C046C046C046C046C046C04600231D
:100EB0000393039B022B03DCC046039B0133F7E73C
:100EC000C046C046A02301216A46DB051B680332E9
:100ED0000B4003D0C046C046117000E013700023E1
:100EE0000393039B022B03DCC046039B0133F7E70C
:100EF000C046C046A0230121DB051B6801AA0B40A8
:100F000003D0C046C046117000E013700023039365
:100F1000039B022B03DCC046039B0133F7E7C0466B
:100F2000C046A02301216A46DB051B6805320B4041
:100F300003D0C046C046117000E013700023039335
:100F4000039B022B03DCC046039B0133F7E7C0463B
:100F5000C046A02301216A46DB051B6806320B4010
:100F600003D0C046C046117000E013700023039305
:100F7000039B022B03DCC046039B0133F7E7C0460B
:100F8000C046A02301216A46DB051B6807320B40DF
:100F900003D0C046C046117000E0137000230393D5
:100FA000039B022B03DCC046039B0133F7E7C046DB
:100FB000C046A0230121DB051B6802AA0B4003D019
:100FC000C046C046117000E0137000230393039BDA
:100FD000022B03DCC046039B0133F7E7C046C04643
:100FE000A02301210922DB051B686A440B4003D0C2
:100FF000C046C046117000E0137000230393039BAA
:10100000022B03DCC046039B0133F7E7C046C04612
:10101000A02301210A22DB051B686A440B4003D090
:10102000C046C046117000E0137000230393039B79
:10103000022B03DCC046039B0133F7E7C046C046E2
:10104000A02301210B22DB051B686A440B4003D05F
:10105000C046C046117000E013706B46DF7801ABEC
:1010600018786B465E796B469D796B46DC7902ABEE
:10107000197809236B441A780A23B60040003043DC
:101080003843ED006B44284324011B782043490179
:10109000084392011043DB011843C0B205B0F0BD14
:1010A0000EB001003400005010B504000134631E7E
:1010B0001878002802D0FFF7CDFDF7E710BD10B576
:1010C00004000134631E1878002802D0FFF7C2FD27
:1010D000F7E70A30FFF7BEFD0D20FFF7BBFD10BD9F
:1010E000F0B505AC277806AC257807AC2678012446
:1010F0002540A54027402F430325BF0015403D4311
:10110000A54023402B43084D5A002B6821409B08E3
:1011100023401343A3401943A1402040034B0843FD
:1011200028601E60F0BDC046082000400C20004032
:101130000421024A13680B431360704708200040E3
:101140000421024A13688B43136070470820004053
:10115000022304490A681A4201D0C046FAE7024B4A
:10116000186070470420004000200040022310B5A2
:101170000A490A68094C1A4001D0C046F9E7084BF1
:101180001A60013220680549104201D1C046F9E7D2
:1011900001200A6802430A60186810BD042000405C
:1011A0000020004070B50600050000F0C1FC0022E0
:1011B000002300F085FC002800DC99E07D4BF61848
:1011C000300000F0B5FC0022002300F079FC00287C
:1011D00003DD80243500240401E080242402764BC2
:1011E000EE18300000F0A4FC0022002300F068FCA0
:1011F000002801DD35002401704BEE18300000F0AE
:1012000097FC0022002300F05BFC002801DD350084
:10121000A4006B4BEE18300000F08AFC0022002383
:1012200000F04EFC002801DD35006400654BEE182F
:10123000300000F07DFC0022002300F041FC00287B
:1012400002DD35006310E4185F4BEE18300000F04B
:101250006FFC0022002300F033FC002802DD350083
:10126000A310E418594BEE18300000F061FC002286
:10127000002300F025FC002802DD3500E310E4180F
:10128000534BEE18300000F053FC0022002300F016
:1012900017FC002802DD35002311E4184D4BEE1831
:1012A000300000F045FC0022002300F009FC00287B
:1012B00002DD35006311E4182E00FC3EFF3E3000D5
:1012C00000F036FC0022002300F0FAFB002802DDCB
:1012D0003500A311E4182800FF3800F029FC002293
:1012E000002300F0EDFB002862DDE311E4185FE06D
:1012F000394BF518280000F01BFC0022002300F0F9
:10130000DFFB012804DD2800FFF74CFF401050E010
:10131000324BF518280000F00BFC0022002300F0EF
:10132000CFFB012804DD2800FFF73CFF801040E0E0
:101330002B4BF518280000F0FBFB0022002300F0E7
:10134000BFFB012804DD2800FFF72CFF001130E06F
:10135000244BF518280000F0EBFB0022002300F0DE
:10136000AFFB012804DD2800FFF71CFF001220E07E
:101370001D4BF518280000F0DBFB0022002300F0D5
:101380009FFB012804DD2800FFF70CFF001310E08D
:10139000164BF618300000F0CBFB0022002300F0C3
:1013A0008FFB012804DD3000FFF7FCFEC01300E0D6
:1013B000200070BD373AFDFF1C9DFEFF8E4EFFFFE3
:1013C00049A7FFFF19CCFFFF72E3FFFFECF0FFFF1F
:1013D0003FF8FFFF0FFCFFFFB758000072B100009D
:1013E000E4620100C9C50200AD280400D73205003F
:1013F00070B505020400280000F09AFB802200234B
:10140000120600F05DFB002802DC2C004A4D00E0D3
:1014100000252601300000F08BFB802200231206FD
:1014200000F04EFB002802DC3400444BED18A6000F
:10143000300000F07DFB80220023120600F040FB0C
:10144000002802DC34003E4BED186600300000F04E
:101450006FFB80220023120600F032FB002802DC22
:101460003400384BED1866103619300000F060FB80
:1014700080220023120600F023FB002802DC340047
:10148000314BED18A6103619300000F051FB8022C8
:101490000023120600F014FB002802DC34002B4B62
:1014A000ED18E6103619300000F042FB80220023D0
:1014B000120600F005FB002802DC3400244BED1876
:1014C0002611A619300000F033FB802200231206FB
:1014D00000F0F6FA002802DC34001E4BED1866110D
:1014E000A619300000F024FB80220023120600F031
:1014F000E7FA002802DC3400174BED18A611A619F4
:10150000300000F015FB80220023120600F0D8FA0C
:10151000002802DC3400FC3DFF3DE011001900F022
:1015200007FB80220023120600F0CAFA002800DC24
:10153000FF3D280070BDC046373AFDFF1C9DFEFFF1
:101540008E4EFFFF49A7FFFF19CCFFFF72E3FFFF9D
:10155000ECF0FFFF3FF8FFFF0FFCFFFF0822324BCC
:10156000F0B51A70043A9A700422DA7006229A7260
:101570000622DA720722012407250221002005270E
:101580005A73032204261D741D195F711F7258704F
:1015900018719C71DC71597219739A73DA735874EB
:1015A0009A74D8741A755C759975DC7519765C76C1
:1015B0009976DC76197758779A77EA775D18E87725
:1015C0009D18EC771D1DEA77DD19E9779D1DEE77F3
:1015D000DD1DEF770825AC469C4465460726EE776F
:1015E0002825AC469C44654606262E702925AC4627
:1015F0009C4465462C701C002A34D8772070180053
:101600002B30017019002C310A701A002D3217701E
:101610001A0004212E3211701A0006212F32117087
:10162000072230331A70F0BD15B00100F7B501255F
:101630000024AC46019101998C4212D061460A4EB9
:10164000055D5B00F3185D196E7C650077100F4037
:1016500057550E4055196E70055D01345B195B7866
:10166000E9E71800FEBDC04615B00100F7B515004A
:101670006A464B000733DB08DB00D21AD31A00AFEF
:1016800095469D460C003B60002306007A60FFF7FC
:10169000CDFF6A46E31DDB08DB00D31A9D46300010
:1016A000694600F026F83A68002321006846FFF7F3
:1016B000BDFF0022A2420ED078685300C05CD11852
:1016C000685478680133C05C691848703868013222
:1016D000C35C8B70EEE7BD46F7BDC04610B502ACEB
:1016E0002478013921405B5C0138D2181040C0B227
:1016F00010BDF7B501AC042206000D002000094919
:1017000000F0FCFF80200023E522032740001900A1
:101710003940615C5218D2B2B15CE9540133834262
:10172000F5D1F7BD39AA0000F7B501AC04220600D7
:101730000D0020000B4900F0E1FF03270023E52204
:1017400019003940615C5218D2B2910089598C4617
:101750006046990068508021013349008B42EFD1E7
:10176000F7BDC04639AA0000F7B504220D000B49A9
:1017700001AC89180600200000F0C0FF8020002383
:10178000EE220327400019003940615C5218D2B2A2
:10179000B15CE95401338342F5D1F7BD39AA0000A9
:1017A00040BF40BF7047802010B502498000FFF75E
:1017B0007BF8FEE72222222210B540BF8020044A97
:1017C00004491368800001331360FFF76DF8FEE7EA
:1017D00048B001003333333340BF054A0121536819
:1017E00001335360C023034A5B00D15040BF7047B0
:1017F00048B0010000E100E040BFC0230221044ADC
:101800005B00D150034A9368013393607047C04630
:1018100000E100E048B0010040BF0422034BDA675A
:10182000034AD3680133D3607047C04604E100E047
:1018300048B0010040BFC0230821044A5B00D150DA
:10184000034A1369013313617047C04600E100E0A9
:1018500048B0010040BF1022034BDA67034A5369C6
:10186000013353617047C04604E100E048B0010015
:1018700040BFC0232021044A5B00D150034A936932
:10188000013393617047C04600E100E048B00100B9
:1018900010B540BFC0234021074A5B00D150074A22
:1018A000D3690133D361064B1A68D20703D50022EE
:1018B0001A60FFF7A5F810BD00E100E048B0010094
:1018C0000410004040BFC0238021044A5B00D15077
:1018D000034A136A013313627047C04600E100E017
:1018E00048B0010040BF8021C023044A49005B008A
:1018F000D150034A536A01335362704700E100E05C
:1019000048B0010040BF8021C023044A89005B0029
:10191000D150034A936A01339362704700E100E0BB
:1019200048B0010040BF8021C023044AC9005B00C9
:10193000D150034AD36A0133D362704700E100E01B
:1019400048B0010040BF8021C023044A09015B0068
:10195000D150034A136B01331363704700E100E079
:1019600048B0010040BF8021C023044A49015B0008
:10197000D150034A536B01335363704700E100E0D9
:1019800048B0010040BF8021C023044A89015B00A8
:10199000D150034A936B01339363704700E100E039
:1019A00048B0010040BF8021C023044AC9015B0048
:1019B000D150034AD36B0133D363704700E100E099
:1019C00048B0010040BF8021C023044A09025B00E7
:1019D000D150034A136C01331364704700E100E0F7
:1019E00048B001008446101C62468C46191C6346B0
:1019F00000E0C0461FB500F05BF9002801D40021CB
:101A0000C8421FBD10B500F0AFF84042013010BD14
:101A100010B500F04DF9002801DB002010BD0120B9
:101A200010BDC04610B500F043F9002801DD0020CC
:101A300010BD012010BDC04610B500F0D5F800283B
:101A400001DC002010BD012010BDC04610B500F023
:101A5000CBF8002801DA002010BD012010BDC046DF
:101A6000801859417047C046801A99417047C04656
:101A700010B5002200F002F810BDC04630B5C41702
:101A800083B01F290ADD002301900093002A02D0B1
:101A9000684600F027F8009803B030BD20235B4271
:101AA000CB1805D404009C40019488400090EDE7D9
:101AB000202305005B1ADD408C402C430194F4E7A1
:101AC0008B4206DC03D0994205DD0220704782423A
:101AD000F9D90020FAE7994201D19042F5D80120C6
:101AE000F4E7C04643680268002B0BDC08D0591CA1
:101AF0000DDA8022012312065B42026043607047C8
:101B0000002AFCDA0023054A02604360F7E701334C
:101B1000F5D180231B069A42EBD3F0E7FFFFFF7F4E
:101B200010B5002482B0009400F006FC02B010BD95
:101B300010B5C117040C090402040C431000210065
:101B400010BDC04610B500F097FBFC2300229B059A
:101B500000F018F910BDC0460B04000C1843704784
:101B6000C0037047C0037047F0B55F4656464D4608
:101B70004446F0B41F035C00DB0F9A46194B0E037A
:101B80004D00C90F8046360B6D0D8B4691463F0BBD
:101B9000640D9D4219D0134B9C421BD00123A542DA
:101BA00006D018003CBC90469946A246AB46F0BD14
:101BB000BE42F6D1C845F4D1D34510D0002DF0D1A6
:101BC000304303005A1E9341EBE7310001230143E8
:101BD000E7D1E0E73A430123002AE2D1DEE7002320
:101BE000DFE7C046FF070000F0B55F4644465646B3
:101BF0004D46F0B41F033C0B2C4F0E034D00A34683
:101C00005C008446360B6D0DC90F9046640DDB0FEA
:101C1000BD422BD0254FBC422ED0002D0ED13043DB
:101C20000700814678427841002C17D15F463A433D
:101C300014D14B460020002B0AD006E0002C02D124
:101C40005846024301D099421AD001234842184312
:101C50003CBC90469946A246AB46F0BD0028F2D067
:101C600058425841012240421043F1E737000743F0
:101C7000D0D002204042EBE75F461743CDD0F8E7D3
:101C8000A542E2DC05DB5E45DFD808D000205E45DA
:101C9000DED248424841012340421843D8E7C445B8
:101CA000D3D80020C445F4D3D2E7C046FF070000D4
:101CB000F0B55F464D4644465646F0B41C03240B2F
:101CC000A4462F4C0F034D005E00C90F80463F0B0A
:101CD0006D0D8B469146760DDB0FA54220D0284C2A
:101CE000A64222D0002D12D1384344424441002E56
:101CF00020D0002C0DD05C42634101245B421C4388
:101D000020003CBC90469946A246AB46F0BD002E52
:101D100017D05B4519D05B465C4201231C43EFE7BB
:101D2000390002240143EBD1D9E761460224114373
:101D3000E6D1D7E761460A43DBD100240028DFD093
:101D4000E9E761460A43E4D1E5E7B54203DD012254
:101D50005C421443D4E7B542CDDB6745DBD809D0FC
:101D600000246745CCD259464C4261410124494286
:101D70000C43C5E7C845CED80024C845F3D3BFE718
:101D8000FF070000F0B55F4656464D464446F0B4A6
:101D90000D0399464E002B0B87B0070092468046F4
:101DA0009B46760DCC0F002E69D06D4B9E4235D0F0
:101DB0005B468022DD001204430F13432B439B46F6
:101DC000C3009846674B00279C4600236644019356
:101DD0004A4615035000D20F53462D0B400D914635
:101DE00000D176E05E4A90426CD080225B0F1204F4
:101DF00013435C4AED0094461D4353460022DB002A
:101E0000604449463618701C6140029017430F2FFA
:101E100000D9AFE05448BF00C759BF465B461F43D7
:101E200000D088E000239B469846023308270193A0
:101E3000CEE74946022A6AD0032A00D109E2012AE4
:101E400000D0BBE111400022002300259046CCB217
:101E500000212D030A0D12052D0B1543434A1B05C6
:101E600015401D436D00E4076D08254340462900D9
:101E700007B03CBC90469946A246AB46F0BD034332
:101E800052D05B46002B00D18AE1584600F036FA6A
:101E900003000B3B1C2B00DD7BE11D22D31A3A0013
:101EA00001005D46DA4008398D4013008F402B4316
:101EB0009B46B8462E4B00279C4600236044464272
:101EC000019385E752462A432CD1002500230222A4
:101ED00097E752462A4321D0002D00D154E1280033
:101EE00000F00CFA03000B3B1C2B00DD46E11D212A
:101EF000CB1A51460200D9405346083A95409340C8
:101F00000D431B4A944660444042002279E7012475
:101F100000220C40124B0025904699E70025002333
:101F200001226EE703226CE700239B4698460133AB
:101F3000042701934CE703230C27019348E7002370
:101F40008025984600242D03054B81E75D464346D6
:101F5000019A6FE75D4643462100019A6AE7C04651
:101F6000FF07000001FCFFFF44AA0000FFFF0F80F5
:101F7000F30300004246120C91461A0C9446424666
:101F800017044A461B041B0C5A43604690464A46B7
:101F900042431000039262461C003F0C7A437C438C
:101FA00042440192220C9246019A5244904506D92D
:101FB0008246802040028046C24450460390100C66
:101FC000049048462404240C1204121905922A0C89
:101FD0002D042D0C68432C00824648467C43504318
:101FE0008146200C8046574357444744BA4503D99D
:101FF000802040028046C144380C3F04B846484423
:102000002404240C01900498A044404404905846B1
:10201000000C814658460404200C824607004846BE
:102020005F434C46434360466043644683465046A4
:102030004443380C8446E4186444A34203D9802303
:102040005B029C46E34448463F04230C3F0C2404B7
:10205000E419574668436F4384464D4650465543FE
:102060004243380C814662444A445B44944503D958
:10207000802040028446654403983F0483460498C8
:102080003F0C8446E344C3458041404282461004ED
:1020900084460198674484466744A344BC46A345EC
:1020A000A4419946D44464428742BF41D44580410B
:1020B000E144A04699459B417F424042C8440743C2
:1020C000120CBA18A045A4415F423B00644223436E
:1020D000D71843467D19DB0D6D021D435B465A023E
:1020E000059B1A43531E9A415B46DB0D1A43434638
:1020F0005B021343EA0107D501225C081340234326
:10210000EA07029E13436D08574AB218002A4BDDB6
:10211000580709D00F201840042805D0181D9842F0
:102120009B415B42ED180300E80104D54F4A15407E
:102130008022D200B2184E48824200DDE7E6012438
:10214000DB08680718436D02530580462D0B5B0DB5
:102150000C407DE6802259461203114208D01542F8
:1021600006D115432D0398462D0B4C46414B6FE687
:102170005D4615432D032D0B3E4B69E60300554686
:10218000283B9D400023BCE6504600F0B7F82030C5
:10219000A8E60300283B9F400023BB46984689E6FB
:1021A00000F0ACF8203073E60124A61A382E07DDC3
:1021B00000220C4000230025904649E6029EA3E73A
:1021C0001F2E20DC20222C001800921BF04094408F
:1021D00093400443581E83411C43F540630709D0D4
:1021E0000F232340042B05D023001C1D9C42924149
:1021F0005242AD182B021FD5012400220C400123AE
:102200000025904624E61F202C004042821AD4402C
:10221000202E1CD04022961BB5402B43581E8341D4
:102220000720234318400025002809D00F2200254D
:102230001A401C00042AD8D1230068076D022D0B18
:102240000124DB08034398460C40002300E60025E8
:10225000E3E780220124120315432D0398462D0B3A
:102260000C40044BF4E5C046FF030000FFFFFFFEF7
:10227000FE070000FF07000070B5002830D0C3172C
:10228000C4185C40C50F200000F038F8174B184AFE
:102290001B1AD21A1F2A18DD164AD21A944000229D
:1022A00024035B05240B5B0D0021100024030A0DA1
:1022B0001205240B1443104A1B0514401C436400F0
:1022C000ED0764082C43210070BD210091400A00F5
:1022D0000B21081AC4405B052403240B5B0DE3E7C4
:1022E0000025002300240022DEE7C0461E04000073
:1022F0003304000013040000FFFF0F801C210123A2
:102300001B04984201D3000C10391B0A984201D3D8
:10231000000A08391B09984201D30009043902A2B6
:10232000105C40187047C04604030202010101011D
:102330000000000000000000F0B54D4644465F4636
:102340005646F0B48BB004000D00029203930029AE
:1023500000DB77E0002544428D4101218B46039943
:10236000002907DA00215042994101239C4602903E
:102370000391E3446308EF071F436B109A460298EA
:102380000399E607EC170B00020081468846504689
:10239000210000F0A1F802000B00029803990492BA
:1023A00005930692079302000B005046210000F0AF
:1023B00093F8402100208C46002100960197DC0F05
:1023C000A246019C92185B41002C03DA01240025EF
:1023D00012196B4100184941564604000D00002EA9
:1023E00004D198450AD801D1914507D8029803999C
:1023F000121A8B410120002100196941009E019FA2
:1024000034003D00A4197D410094019501246442EB
:10241000A246D4446446002CD1D15B460890099171
:10242000012B12D0149B002B03D008A906A800F0A2
:1024300023F8089809990BB03CBC90469946A246EF
:10244000AB46F0BD00218B4689E7002342428B4119
:10245000089209931A4307D1049805990023424230
:102460008B4106920793DDE70499059ACB430693C7
:10247000D3430793D6E7C046436810B50268002BE4
:1024800009DD00220023026043600122114B524209
:102490000A604B6010BD002B01D1002AF1D114005D
:1024A0001C4313D0013206D1013304D180234A6882
:1024B0001B069A42EED201225242D31702604360B9
:1024C000802300221B060A604B60E3E74B68002B69
:1024D000E0DAD6E7FFFFFF7F002B11D1002A0FD1F2
:1024E000002900D1002802D00021C943081C07B4EC
:1024F000024802A14018029003BDC0469D010000A1
:1025000003B4684601B5029800F006F8019B9E46A8
:1025100002B00CBC7047C046F0B54D465646444626
:102520005F46F0B4924683B004000D0099468B429A
:102530002FD82CD04946504600F0B0F829000600AC
:10254000200000F0ABF8331A9846203B9B4600D59C
:1025500074E053465A4693401F0053464246934008
:102560001E00AF4229D826D05B46A41BBD41002BDC
:1025700000DA79E0002200230092019301235A46F9
:1025800093400193012342469340009319E0824215
:10259000D0D900220023009201930C9B002B01D084
:1025A0001C605D600098019903B03CBC9046994660
:1025B000A246AB46F0BDA342D6D90022002300922A
:1025C00001934346002BE8D0FB0772081A434646A6
:1025D0007B080EE0AB4201D1A2420CD8A41A9D4167
:1025E000012024196D410021013E24184D41002E87
:1025F00006D0AB42EED9013E24196D41002EF8D130
:102600005B460098019900196941002B22DB2B00E1
:102610005A46D3402A004446E2401C005B4615005F
:10262000002B2CDB26009E40330026004746BE4090
:102630003200801A994100900191AEE74246202372
:102640009B1A5246DA40414613004A468A40170018
:102650001F4382E7424620239B1A2A0046469A409F
:102660002300F3401343D5E74246202300219B1A61
:102670000022009101920122DA40019282E7424653
:10268000202326009B1ADE402F00B4469740664662
:102690003B003343C9E7C0467047C04610B5002928
:1026A00003D1FFF72BFE203002E0081CFFF726FEC7
:1026B00010BDC04670B50D4E0D4D0024AD1BAD10C4
:1026C00005D0A300F35801349847A542F9D1FDF78E
:1026D00013FD084E084D0024AD1BAD1005D0A3001E
:1026E000F35801349847A542F9D170BD98AA01006A
:1026F00098AA010098AA0100A0AA010070B50F2AAB
:1027000032D90C0004430B00A40731D1150004009A
:10271000103D2D0901352D0149191E6826605E689E
:1027200066609E68A660DE681033E66010349942E9
:10273000F3D10F2345191340032B1BD91C1F002372
:10274000A4080134A400CE58EE5004339C42FAD1C0
:1027500003232D1909191A4005D00023CC5CEC5431
:1027600001339A42FAD170BD0500002AF5D1FAE78B
:102770000500F2E71A00F8E770B583073FD0541E52
:10278000002A3BD0CEB20300032503E0621E002CDA
:1027900034D0140001335A1E16702B42F6D1032C8C
:1027A00024D9FF250D402A0215432A0415430F2C76
:1027B00011D92600103E3609013636011A009B1940
:1027C000156055609560D56010329342F8D10F22A4
:1027D0001440032C0AD9261FB6080136B6001A0089
:1027E0009B1920C29342FCD103221440002C05D037
:1027F000C9B21C19197001339C42FBD170BD140081
:102800000300CCE7F0B55F4656464D464446F0B46B
:102810000F00394B85B01B68019002934933FF3399
:102820000393A422029B52009E58002E4ED0039B7D
:102830009946C4235B00984604339A467468B044B2
:10284000A5007519B244013C08D52DE06B1DFF337E
:102850001B689F4204D0043D013C25D3002FF5D1D5
:1028600073686A68013BA34239D000236B60002A79
:10287000F1D0736841469B460123A3400968194281
:102880002BD05146096819422BD12B00843319688B
:102890000198904773685B45C3D14B461B68B342B0
:1028A000BFD1043D013CD9D2144B002B0ED073682C
:1028B000002B1BD13368002B1CD04A46300013601C
:1028C00000E000BF4B461E68002EB2D105B03CBCF4
:1028D00090469946A246AB46F0BD9047DAE7746051
:1028E000C5E72B00843318689047D3E73368B146B7
:1028F0001E00E9E70023FAE788AA000000000000B4
:1029000010B5010000230022002000F01BF810BDCC
:1029100070B5094B094CE41AA41009D0084AA5184F
:10292000AD00ED182B68013C9847043D002CF9D10F
:1029300000F074F870BDC046A0AA0100A4AA01006E
:10294000FFFFFF3FF8B544465F4656464D469B465F
:102950002F4BF0B41C68A4235B000500E0580E0068
:10296000904600284BD043681F2B0DDC5C1C002DCB
:1029700021D102339B0044601E5000203CBC904695
:102980009946A246AB46F8BD224B002B3CD0C8204E
:10299000400000E000BF002836D0A42200235200EF
:1029A000A15843600160A0504032835004328350EC
:1029B0000124002DDDD09A009146814442468821B1
:1029C0004F467A50C422520090468044424687398E
:1029D000994012688A460A4394464246614611600D
:1029E000842249465F4652008F50022DC1D1020019
:1029F00055468D32FF3211680D431560B9E720004E
:102A00004D30FF30E050AEE701204042B6E7C0460F
:102A100088AA000000000000FEE7C0460C2603194B
:102A2000405A374D748E6B81A8C29FB5DCF6D3E94E
:102A3000102A071D445E3B5178926F85ACC6A3B93E
:102A4000E0FAD7ED142E0B2148623F557C9673892E
:102A5000B0CAA7BDE4FEDBF118320F254C6643591E
:102A6000809A778DB4CEABC1E802DFF51C3613290E
:102A7000506A475D849E7B91B8D2AFC5EC06E3F9FE
:102A8000203A172D546E4B6188A27F95BCD6B3C9EE
:102A9000F00AE7FD243E1B3158724F658CA68399DE
:102AA000C0DAB7CDF40EEB0128421F355C765369CE
:102AB00090AA879DC4DEBBD1F812EF052C462339BE
:102AC000607A576D94AE8BA1C8E2BFD5FC16F309AE
:102AD000304A273D647E5B7198B28FA5CCE6C3D99E
:102AE000001AF70D344E2B4168825F759CB693A98E
:102AF000D0EAC7DD041EFB1138522F456C8663797E
:102B0000A0BA97ADD4EECBE10822FF153C5633496D
:102B1000708A677DA4BE9BB1D8F2CFE512D6C7C23A
:102B2000B5271ADD16271ADD16D6C7C2B500000074
:102B30007C9E00003C9D00003C9D00003A9D0000F2
:102B4000549E0000549E0000469E00003A9D0000E6
:102B5000549E0000469E0000549E00003A9D0000D6
:102B60005C9E00005C9E00005C9E00005CA000007B
:082B700043000000B0AA0100BF
:0C2B7800F8B5C046F8BC08BC9E4670478B
:0C2B8400F8B5C046F8BC08BC9E4670477F
:082B90006CDCFF7F0100000076
:042B98000000000039
:102B9C000000000000000000000000009CAD0100DF
:102BAC0004AE01006CAE010000000000000000004B
:102BBC000000000000000000000000000000000009
:102BCC0000000000000000000000000084AA0000CB
:102BDC0000000000000000000000000000000000E9
:102BEC0000000000000000000000000000000000D9
:102BFC0000000000000000000000000000000000C9
:102C0C0000000000000000000000000000000000B8
:102C1C0000000000000000000000000000000000A8
:102C2C000000000000000000000000000000000098
:102C3C000000000000000000000000000000000088
:102C4C0001000000000000000E33CDAB34126DE625
:102C5C00ECDE05000B00000000000000000000008E
:102C6C000000000000000000000000000000000058
:102C7C000000000000000000000000000000000048
:102C8C000000000000000000000000000000000038
:102C9C000000000000000000000000000000000028
:042FCC00B0AA0100A6
:082FD00081860000C1860000AB
:042FD80099860000D6
:042FDC0000000000F1
:04000003000000C336
:00000001FF
